{
    "_format": "hh-sol-artifact-1",
    "contractName": "WristAficionadoWatchClub",
    "sourceName": "contracts/Wristables.sol",
    "abi": [
        {
            "anonymous": false,
            "inputs": [
                {
                    "indexed": false,
                    "internalType": "address",
                    "name": "previousAdmin",
                    "type": "address"
                },
                {
                    "indexed": false,
                    "internalType": "address",
                    "name": "newAdmin",
                    "type": "address"
                }
            ],
            "name": "AdminChanged",
            "type": "event"
        },
        {
            "anonymous": false,
            "inputs": [
                {
                    "indexed": true,
                    "internalType": "address",
                    "name": "owner",
                    "type": "address"
                },
                {
                    "indexed": true,
                    "internalType": "address",
                    "name": "approved",
                    "type": "address"
                },
                {
                    "indexed": true,
                    "internalType": "uint256",
                    "name": "tokenId",
                    "type": "uint256"
                }
            ],
            "name": "Approval",
            "type": "event"
        },
        {
            "anonymous": false,
            "inputs": [
                {
                    "indexed": true,
                    "internalType": "address",
                    "name": "owner",
                    "type": "address"
                },
                {
                    "indexed": true,
                    "internalType": "address",
                    "name": "operator",
                    "type": "address"
                },
                {
                    "indexed": false,
                    "internalType": "bool",
                    "name": "approved",
                    "type": "bool"
                }
            ],
            "name": "ApprovalForAll",
            "type": "event"
        },
        {
            "anonymous": false,
            "inputs": [
                {
                    "indexed": true,
                    "internalType": "address",
                    "name": "beacon",
                    "type": "address"
                }
            ],
            "name": "BeaconUpgraded",
            "type": "event"
        },
        {
            "anonymous": false,
            "inputs": [
                {
                    "indexed": true,
                    "internalType": "contract IERC20Upgradeable",
                    "name": "token",
                    "type": "address"
                },
                {
                    "indexed": false,
                    "internalType": "address",
                    "name": "to",
                    "type": "address"
                },
                {
                    "indexed": false,
                    "internalType": "uint256",
                    "name": "amount",
                    "type": "uint256"
                }
            ],
            "name": "ERC20PaymentReleased",
            "type": "event"
        },
        {
            "anonymous": false,
            "inputs": [
                {
                    "indexed": false,
                    "internalType": "uint256",
                    "name": "startingPrice",
                    "type": "uint256"
                },
                {
                    "indexed": false,
                    "internalType": "uint256",
                    "name": "floorPrice",
                    "type": "uint256"
                },
                {
                    "indexed": false,
                    "internalType": "uint256",
                    "name": "startAt",
                    "type": "uint256"
                },
                {
                    "indexed": false,
                    "internalType": "uint256",
                    "name": "expiresAt",
                    "type": "uint256"
                },
                {
                    "indexed": false,
                    "internalType": "uint256",
                    "name": "priceDeductionRate",
                    "type": "uint256"
                }
            ],
            "name": "NewDutchAuction",
            "type": "event"
        },
        {
            "anonymous": false,
            "inputs": [
                {
                    "indexed": true,
                    "internalType": "address",
                    "name": "previousOwner",
                    "type": "address"
                },
                {
                    "indexed": true,
                    "internalType": "address",
                    "name": "newOwner",
                    "type": "address"
                }
            ],
            "name": "OwnershipTransferred",
            "type": "event"
        },
        {
            "anonymous": false,
            "inputs": [
                {
                    "indexed": false,
                    "internalType": "address",
                    "name": "account",
                    "type": "address"
                },
                {
                    "indexed": false,
                    "internalType": "uint256",
                    "name": "shares",
                    "type": "uint256"
                }
            ],
            "name": "PayeeAdded",
            "type": "event"
        },
        {
            "anonymous": false,
            "inputs": [
                {
                    "indexed": false,
                    "internalType": "address",
                    "name": "from",
                    "type": "address"
                },
                {
                    "indexed": false,
                    "internalType": "uint256",
                    "name": "amount",
                    "type": "uint256"
                }
            ],
            "name": "PaymentReceived",
            "type": "event"
        },
        {
            "anonymous": false,
            "inputs": [
                {
                    "indexed": false,
                    "internalType": "address",
                    "name": "to",
                    "type": "address"
                },
                {
                    "indexed": false,
                    "internalType": "uint256",
                    "name": "amount",
                    "type": "uint256"
                }
            ],
            "name": "PaymentReleased",
            "type": "event"
        },
        {
            "anonymous": false,
            "inputs": [
                {
                    "indexed": true,
                    "internalType": "address",
                    "name": "from",
                    "type": "address"
                },
                {
                    "indexed": true,
                    "internalType": "address",
                    "name": "to",
                    "type": "address"
                },
                {
                    "indexed": true,
                    "internalType": "uint256",
                    "name": "tokenId",
                    "type": "uint256"
                }
            ],
            "name": "Transfer",
            "type": "event"
        },
        {
            "anonymous": false,
            "inputs": [
                {
                    "indexed": true,
                    "internalType": "address",
                    "name": "implementation",
                    "type": "address"
                }
            ],
            "name": "Upgraded",
            "type": "event"
        },
        {
            "inputs": [],
            "name": "MAX_SUPPLY",
            "outputs": [
                {
                    "internalType": "uint256",
                    "name": "",
                    "type": "uint256"
                }
            ],
            "stateMutability": "view",
            "type": "function"
        },
        {
            "inputs": [
                {
                    "internalType": "address",
                    "name": "to",
                    "type": "address"
                },
                {
                    "internalType": "uint256",
                    "name": "quantity",
                    "type": "uint256"
                }
            ],
            "name": "airdrop",
            "outputs": [],
            "stateMutability": "payable",
            "type": "function"
        },
        {
            "inputs": [
                {
                    "internalType": "address",
                    "name": "to",
                    "type": "address"
                },
                {
                    "internalType": "uint256",
                    "name": "tokenId",
                    "type": "uint256"
                }
            ],
            "name": "approve",
            "outputs": [],
            "stateMutability": "nonpayable",
            "type": "function"
        },
        {
            "inputs": [],
            "name": "availableSupply",
            "outputs": [
                {
                    "internalType": "uint256",
                    "name": "",
                    "type": "uint256"
                }
            ],
            "stateMutability": "view",
            "type": "function"
        },
        {
            "inputs": [
                {
                    "internalType": "address",
                    "name": "owner",
                    "type": "address"
                }
            ],
            "name": "balanceOf",
            "outputs": [
                {
                    "internalType": "uint256",
                    "name": "",
                    "type": "uint256"
                }
            ],
            "stateMutability": "view",
            "type": "function"
        },
        {
            "inputs": [
                {
                    "internalType": "address[]",
                    "name": "to",
                    "type": "address[]"
                }
            ],
            "name": "batchAirdrop",
            "outputs": [],
            "stateMutability": "payable",
            "type": "function"
        },
        {
            "inputs": [
                {
                    "internalType": "address",
                    "name": "",
                    "type": "address"
                },
                {
                    "internalType": "uint256",
                    "name": "",
                    "type": "uint256"
                }
            ],
            "name": "claimedWL",
            "outputs": [
                {
                    "internalType": "bool",
                    "name": "",
                    "type": "bool"
                }
            ],
            "stateMutability": "view",
            "type": "function"
        },
        {
            "inputs": [],
            "name": "dutchAuction",
            "outputs": [
                {
                    "internalType": "uint256",
                    "name": "startingPrice",
                    "type": "uint256"
                },
                {
                    "internalType": "uint256",
                    "name": "floorPrice",
                    "type": "uint256"
                },
                {
                    "internalType": "uint256",
                    "name": "startAt",
                    "type": "uint256"
                },
                {
                    "internalType": "uint256",
                    "name": "expiresAt",
                    "type": "uint256"
                },
                {
                    "internalType": "uint256",
                    "name": "priceDeductionRate",
                    "type": "uint256"
                }
            ],
            "stateMutability": "view",
            "type": "function"
        },
        {
            "inputs": [
                {
                    "internalType": "uint256",
                    "name": "tokenId",
                    "type": "uint256"
                }
            ],
            "name": "getApproved",
            "outputs": [
                {
                    "internalType": "address",
                    "name": "",
                    "type": "address"
                }
            ],
            "stateMutability": "view",
            "type": "function"
        },
        {
            "inputs": [],
            "name": "indexWL",
            "outputs": [
                {
                    "internalType": "uint32",
                    "name": "",
                    "type": "uint32"
                }
            ],
            "stateMutability": "view",
            "type": "function"
        },
        {
            "inputs": [
                {
                    "internalType": "address[]",
                    "name": "payees",
                    "type": "address[]"
                },
                {
                    "internalType": "uint256[]",
                    "name": "shares_",
                    "type": "uint256[]"
                },
                {
                    "internalType": "bytes32",
                    "name": "_root",
                    "type": "bytes32"
                }
            ],
            "name": "initialize",
            "outputs": [],
            "stateMutability": "nonpayable",
            "type": "function"
        },
        {
            "inputs": [
                {
                    "internalType": "address",
                    "name": "owner",
                    "type": "address"
                },
                {
                    "internalType": "address",
                    "name": "operator",
                    "type": "address"
                }
            ],
            "name": "isApprovedForAll",
            "outputs": [
                {
                    "internalType": "bool",
                    "name": "",
                    "type": "bool"
                }
            ],
            "stateMutability": "view",
            "type": "function"
        },
        {
            "inputs": [],
            "name": "mint",
            "outputs": [],
            "stateMutability": "payable",
            "type": "function"
        },
        {
            "inputs": [],
            "name": "mintAuction",
            "outputs": [],
            "stateMutability": "payable",
            "type": "function"
        },
        {
            "inputs": [],
            "name": "name",
            "outputs": [
                {
                    "internalType": "string",
                    "name": "",
                    "type": "string"
                }
            ],
            "stateMutability": "view",
            "type": "function"
        },
        {
            "inputs": [],
            "name": "owner",
            "outputs": [
                {
                    "internalType": "address",
                    "name": "",
                    "type": "address"
                }
            ],
            "stateMutability": "view",
            "type": "function"
        },
        {
            "inputs": [
                {
                    "internalType": "uint256",
                    "name": "tokenId",
                    "type": "uint256"
                }
            ],
            "name": "ownerOf",
            "outputs": [
                {
                    "internalType": "address",
                    "name": "",
                    "type": "address"
                }
            ],
            "stateMutability": "view",
            "type": "function"
        },
        {
            "inputs": [
                {
                    "internalType": "uint256",
                    "name": "index",
                    "type": "uint256"
                }
            ],
            "name": "payee",
            "outputs": [
                {
                    "internalType": "address",
                    "name": "",
                    "type": "address"
                }
            ],
            "stateMutability": "view",
            "type": "function"
        },
        {
            "inputs": [
                {
                    "internalType": "bytes32[]",
                    "name": "proof",
                    "type": "bytes32[]"
                }
            ],
            "name": "redeem",
            "outputs": [],
            "stateMutability": "payable",
            "type": "function"
        },
        {
            "inputs": [
                {
                    "internalType": "address payable",
                    "name": "account",
                    "type": "address"
                }
            ],
            "name": "release",
            "outputs": [],
            "stateMutability": "nonpayable",
            "type": "function"
        },
        {
            "inputs": [
                {
                    "internalType": "contract IERC20Upgradeable",
                    "name": "token",
                    "type": "address"
                },
                {
                    "internalType": "address",
                    "name": "account",
                    "type": "address"
                }
            ],
            "name": "release",
            "outputs": [],
            "stateMutability": "nonpayable",
            "type": "function"
        },
        {
            "inputs": [
                {
                    "internalType": "contract IERC20Upgradeable",
                    "name": "token",
                    "type": "address"
                },
                {
                    "internalType": "address",
                    "name": "account",
                    "type": "address"
                }
            ],
            "name": "released",
            "outputs": [
                {
                    "internalType": "uint256",
                    "name": "",
                    "type": "uint256"
                }
            ],
            "stateMutability": "view",
            "type": "function"
        },
        {
            "inputs": [
                {
                    "internalType": "address",
                    "name": "account",
                    "type": "address"
                }
            ],
            "name": "released",
            "outputs": [
                {
                    "internalType": "uint256",
                    "name": "",
                    "type": "uint256"
                }
            ],
            "stateMutability": "view",
            "type": "function"
        },
        {
            "inputs": [],
            "name": "renounceOwnership",
            "outputs": [],
            "stateMutability": "nonpayable",
            "type": "function"
        },
        {
            "inputs": [],
            "name": "root",
            "outputs": [
                {
                    "internalType": "bytes32",
                    "name": "",
                    "type": "bytes32"
                }
            ],
            "stateMutability": "view",
            "type": "function"
        },
        {
            "inputs": [
                {
                    "internalType": "uint256",
                    "name": "_tokenId",
                    "type": "uint256"
                },
                {
                    "internalType": "uint256",
                    "name": "_salePrice",
                    "type": "uint256"
                }
            ],
            "name": "royaltyInfo",
            "outputs": [
                {
                    "internalType": "address",
                    "name": "receiver",
                    "type": "address"
                },
                {
                    "internalType": "uint256",
                    "name": "royaltyAmount",
                    "type": "uint256"
                }
            ],
            "stateMutability": "view",
            "type": "function"
        },
        {
            "inputs": [
                {
                    "internalType": "address",
                    "name": "from",
                    "type": "address"
                },
                {
                    "internalType": "address",
                    "name": "to",
                    "type": "address"
                },
                {
                    "internalType": "uint256",
                    "name": "tokenId",
                    "type": "uint256"
                }
            ],
            "name": "safeTransferFrom",
            "outputs": [],
            "stateMutability": "nonpayable",
            "type": "function"
        },
        {
            "inputs": [
                {
                    "internalType": "address",
                    "name": "from",
                    "type": "address"
                },
                {
                    "internalType": "address",
                    "name": "to",
                    "type": "address"
                },
                {
                    "internalType": "uint256",
                    "name": "tokenId",
                    "type": "uint256"
                },
                {
                    "internalType": "bytes",
                    "name": "_data",
                    "type": "bytes"
                }
            ],
            "name": "safeTransferFrom",
            "outputs": [],
            "stateMutability": "nonpayable",
            "type": "function"
        },
        {
            "inputs": [
                {
                    "internalType": "address",
                    "name": "operator",
                    "type": "address"
                },
                {
                    "internalType": "bool",
                    "name": "approved",
                    "type": "bool"
                }
            ],
            "name": "setApprovalForAll",
            "outputs": [],
            "stateMutability": "nonpayable",
            "type": "function"
        },
        {
            "inputs": [
                {
                    "internalType": "uint256",
                    "name": "availableSupplyIncrease",
                    "type": "uint256"
                }
            ],
            "name": "setAvailableSupply",
            "outputs": [],
            "stateMutability": "payable",
            "type": "function"
        },
        {
            "inputs": [
                {
                    "internalType": "string",
                    "name": "baseURI",
                    "type": "string"
                }
            ],
            "name": "setBaseURI",
            "outputs": [],
            "stateMutability": "payable",
            "type": "function"
        },
        {
            "inputs": [
                {
                    "internalType": "uint256",
                    "name": "_startingPrice",
                    "type": "uint256"
                },
                {
                    "internalType": "uint256",
                    "name": "_floorPrice",
                    "type": "uint256"
                },
                {
                    "internalType": "uint256",
                    "name": "_startAt",
                    "type": "uint256"
                },
                {
                    "internalType": "uint256",
                    "name": "_expiresAt",
                    "type": "uint256"
                },
                {
                    "internalType": "uint256",
                    "name": "_priceDeductionRate",
                    "type": "uint256"
                }
            ],
            "name": "setDutchAuction",
            "outputs": [],
            "stateMutability": "payable",
            "type": "function"
        },
        {
            "inputs": [
                {
                    "internalType": "uint32",
                    "name": "_indexWL",
                    "type": "uint32"
                }
            ],
            "name": "setIndexWL",
            "outputs": [],
            "stateMutability": "payable",
            "type": "function"
        },
        {
            "inputs": [
                {
                    "internalType": "uint256",
                    "name": "_mintPrice",
                    "type": "uint256"
                }
            ],
            "name": "setMintPrice",
            "outputs": [],
            "stateMutability": "payable",
            "type": "function"
        },
        {
            "inputs": [
                {
                    "internalType": "bool",
                    "name": "_saleActive",
                    "type": "bool"
                }
            ],
            "name": "setSaleActive",
            "outputs": [],
            "stateMutability": "payable",
            "type": "function"
        },
        {
            "inputs": [
                {
                    "internalType": "bool",
                    "name": "_toggleAuction",
                    "type": "bool"
                }
            ],
            "name": "setToggleAuction",
            "outputs": [],
            "stateMutability": "payable",
            "type": "function"
        },
        {
            "inputs": [
                {
                    "internalType": "address",
                    "name": "account",
                    "type": "address"
                }
            ],
            "name": "shares",
            "outputs": [
                {
                    "internalType": "uint256",
                    "name": "",
                    "type": "uint256"
                }
            ],
            "stateMutability": "view",
            "type": "function"
        },
        {
            "inputs": [
                {
                    "internalType": "bytes4",
                    "name": "interfaceId",
                    "type": "bytes4"
                }
            ],
            "name": "supportsInterface",
            "outputs": [
                {
                    "internalType": "bool",
                    "name": "",
                    "type": "bool"
                }
            ],
            "stateMutability": "view",
            "type": "function"
        },
        {
            "inputs": [],
            "name": "symbol",
            "outputs": [
                {
                    "internalType": "string",
                    "name": "",
                    "type": "string"
                }
            ],
            "stateMutability": "view",
            "type": "function"
        },
        {
            "inputs": [
                {
                    "internalType": "uint256",
                    "name": "tokenId",
                    "type": "uint256"
                }
            ],
            "name": "tokenURI",
            "outputs": [
                {
                    "internalType": "string",
                    "name": "",
                    "type": "string"
                }
            ],
            "stateMutability": "view",
            "type": "function"
        },
        {
            "inputs": [
                {
                    "internalType": "contract IERC20Upgradeable",
                    "name": "token",
                    "type": "address"
                }
            ],
            "name": "totalReleased",
            "outputs": [
                {
                    "internalType": "uint256",
                    "name": "",
                    "type": "uint256"
                }
            ],
            "stateMutability": "view",
            "type": "function"
        },
        {
            "inputs": [],
            "name": "totalReleased",
            "outputs": [
                {
                    "internalType": "uint256",
                    "name": "",
                    "type": "uint256"
                }
            ],
            "stateMutability": "view",
            "type": "function"
        },
        {
            "inputs": [],
            "name": "totalShares",
            "outputs": [
                {
                    "internalType": "uint256",
                    "name": "",
                    "type": "uint256"
                }
            ],
            "stateMutability": "view",
            "type": "function"
        },
        {
            "inputs": [
                {
                    "internalType": "address",
                    "name": "from",
                    "type": "address"
                },
                {
                    "internalType": "address",
                    "name": "to",
                    "type": "address"
                },
                {
                    "internalType": "uint256",
                    "name": "tokenId",
                    "type": "uint256"
                }
            ],
            "name": "transferFrom",
            "outputs": [],
            "stateMutability": "nonpayable",
            "type": "function"
        },
        {
            "inputs": [
                {
                    "internalType": "address",
                    "name": "newOwner",
                    "type": "address"
                }
            ],
            "name": "transferOwnership",
            "outputs": [],
            "stateMutability": "nonpayable",
            "type": "function"
        },
        {
            "inputs": [
                {
                    "internalType": "address",
                    "name": "newImplementation",
                    "type": "address"
                }
            ],
            "name": "upgradeTo",
            "outputs": [],
            "stateMutability": "nonpayable",
            "type": "function"
        },
        {
            "inputs": [
                {
                    "internalType": "address",
                    "name": "newImplementation",
                    "type": "address"
                },
                {
                    "internalType": "bytes",
                    "name": "data",
                    "type": "bytes"
                }
            ],
            "name": "upgradeToAndCall",
            "outputs": [],
            "stateMutability": "payable",
            "type": "function"
        },
        {
            "stateMutability": "payable",
            "type": "receive"
        }
    ],
    "bytecode": "0x60a06040523060601b60805234801561001757600080fd5b5060805160601c61509861004b600039600081816114040152818161149a0152818161195d01526119f301526150986000f3fe60806040526004361061030c5760003560e01c8063715018a61161019a578063b88d4fde116100e1578063e33b7de31161008a578063f2fde38b11610064578063f2fde38b14610915578063f4a0a52814610935578063f54dd7d01461094857610355565b8063e33b7de3146108a0578063e985e9c5146108b5578063ebf0c717146108fe57610355565b8063cc200b18116100bb578063cc200b1814610801578063ce7c2ac214610834578063d79779b21461086a57610355565b8063b88d4fde146107a1578063c455b540146107c1578063c87b56dd146107e157610355565b806395d89b41116101435780639edfbec91161011d5780639edfbec91461075b578063a22cb4651461076e578063a70bd59d1461078e57610355565b806395d89b41146106bc5780639852595c146106d15780639da0d7d41461070757610355565b80638b83209b116101745780638b83209b1461066b5780638ba4cc3c1461068b5780638da5cb5b1461069e57610355565b8063715018a61461062c5780637ecc2b5614610641578063841718a61461065857610355565b80633659cfe61161025e5780634f1ef286116102075780635791ef23116101e15780635791ef23146105d95780636352211e146105ec57806370a082311461060c57610355565b80634f1ef286146105a0578063524c2a04146105b357806355f804b3146105c657610355565b8063406072a911610238578063406072a91461051a57806342842e0e1461056057806348b750441461058057610355565b80633659cfe6146104d25780633a98ef39146104f25780633e91b5161461050757610355565b80631723934d116102c05780632a55205a1161029a5780632a55205a1461046657806332cb6b0c146104a557806332f4a69b146104ca57610355565b80631723934d14610413578063191655871461042657806323b872dd1461044657610355565b8063081812fc116102f1578063081812fc146103b1578063095ea7b3146103e95780631249c58b1461040b57610355565b806301ffc9a71461035a57806306fdde031461038f57610355565b36610355577f6ef95f06320e7a25a04a175ca677b7052bdd97131872c2192525a629f51be77033604080516001600160a01b0390921682523460208301520160405180910390a1005b600080fd5b34801561036657600080fd5b5061037a610375366004614bca565b610968565b60405190151581526020015b60405180910390f35b34801561039b57600080fd5b506103a4610a4f565b6040516103869190614dee565b3480156103bd57600080fd5b506103d16103cc366004614c5a565b610ae1565b6040516001600160a01b039091168152602001610386565b3480156103f557600080fd5b50610409610404366004614a04565b610b8c565b005b610409610cbe565b610409610421366004614c5a565b610e27565b34801561043257600080fd5b5061040961044136600461488b565b610efd565b34801561045257600080fd5b506104096104613660046148df565b6110d7565b34801561047257600080fd5b50610486610481366004614c8a565b61115e565b604080516001600160a01b039093168352602083019190915201610386565b3480156104b157600080fd5b506104bc61019a5481565b604051908152602001610386565b610409611184565b3480156104de57600080fd5b506104096104ed36600461488b565b6113f9565b3480156104fe57600080fd5b5060c9546104bc565b610409610515366004614cab565b611597565b34801561052657600080fd5b506104bc610535366004614c02565b6001600160a01b03918216600090815260cf6020908152604080832093909416825291909152205490565b34801561056c57600080fd5b5061040961057b3660046148df565b61168a565b34801561058c57600080fd5b5061040961059b366004614c02565b6116a5565b6104096105ae3660046149b6565b611952565b6104096105c1366004614b23565b611ae1565b6104096105d4366004614c14565b611d59565b6104096105e7366004614b92565b611dc7565b3480156105f857600080fd5b506103d1610607366004614c5a565b611e53565b34801561061857600080fd5b506104bc61062736600461488b565b611ede565b34801561063857600080fd5b50610409611f78565b34801561064d57600080fd5b506104bc6101995481565b610409610666366004614b92565b611fde565b34801561067757600080fd5b506103d1610686366004614c5a565b612070565b610409610699366004614a04565b6120ae565b3480156106aa57600080fd5b506097546001600160a01b03166103d1565b3480156106c857600080fd5b506103a4612218565b3480156106dd57600080fd5b506104bc6106ec36600461488b565b6001600160a01b0316600090815260cc602052604090205490565b34801561071357600080fd5b506101925461019354610194546101955461019654610733949392919085565b604080519586526020860194909452928401919091526060830152608082015260a001610386565b610409610769366004614a2f565b612227565b34801561077a57600080fd5b50610409610789366004614989565b6123ac565b61040961079c366004614ce5565b6123b7565b3480156107ad57600080fd5b506104096107bc36600461491f565b6124a5565b3480156107cd57600080fd5b5061037a6107dc366004614a04565b612533565b3480156107ed57600080fd5b506103a46107fc366004614c5a565b61256d565b34801561080d57600080fd5b5061019e5461081f9063ffffffff1681565b60405163ffffffff9091168152602001610386565b34801561084057600080fd5b506104bc61084f36600461488b565b6001600160a01b0316600090815260cb602052604090205490565b34801561087657600080fd5b506104bc61088536600461488b565b6001600160a01b0316600090815260ce602052604090205490565b3480156108ac57600080fd5b5060ca546104bc565b3480156108c157600080fd5b5061037a6108d03660046148a7565b6001600160a01b039182166000908152606a6020908152604080832093909416825291909152205460ff1690565b34801561090a57600080fd5b506104bc61019d5481565b34801561092157600080fd5b5061040961093036600461488b565b6126ed565b610409610943366004614c5a565b6127cc565b34801561095457600080fd5b50610409610963366004614a62565b61282c565b60007fffffffff0000000000000000000000000000000000000000000000000000000082167f80ac58cd0000000000000000000000000000000000000000000000000000000014806109fb57507fffffffff0000000000000000000000000000000000000000000000000000000082167f5b5e139f00000000000000000000000000000000000000000000000000000000145b80610a4757507f01ffc9a7000000000000000000000000000000000000000000000000000000007fffffffff000000000000000000000000000000000000000000000000000000008316145b90505b919050565b606060658054610a5e90614f20565b80601f0160208091040260200160405190810160405280929190818152602001828054610a8a90614f20565b8015610ad75780601f10610aac57610100808354040283529160200191610ad7565b820191906000526020600020905b815481529060010190602001808311610aba57829003601f168201915b5050505050905090565b6000818152606760205260408120546001600160a01b0316610b705760405162461bcd60e51b815260206004820152602c60248201527f4552433732313a20617070726f76656420717565727920666f72206e6f6e657860448201527f697374656e7420746f6b656e000000000000000000000000000000000000000060648201526084015b60405180910390fd5b506000908152606960205260409020546001600160a01b031690565b6000610b9782611e53565b9050806001600160a01b0316836001600160a01b03161415610c215760405162461bcd60e51b815260206004820152602160248201527f4552433732313a20617070726f76616c20746f2063757272656e74206f776e6560448201527f72000000000000000000000000000000000000000000000000000000000000006064820152608401610b67565b336001600160a01b0382161480610c3d5750610c3d81336108d0565b610caf5760405162461bcd60e51b815260206004820152603860248201527f4552433732313a20617070726f76652063616c6c6572206973206e6f74206f7760448201527f6e6572206e6f7220617070726f76656420666f7220616c6c00000000000000006064820152608401610b67565b610cb98383612a1c565b505050565b61019c54610100900460ff16610d165760405162461bcd60e51b815260206004820152600b60248201527f73616c65207061757365640000000000000000000000000000000000000000006044820152606401610b67565b600261015f541415610d6a5760405162461bcd60e51b815260206004820152601f60248201527f5265656e7472616e637947756172643a207265656e7472616e742063616c6c006044820152606401610b67565b600261015f5561019c5460ff1615610dc45760405162461bcd60e51b815260206004820152601160248201527f75736520606d696e7441756374696f6e600000000000000000000000000000006044820152606401610b67565b61019b543414610e165760405162461bcd60e51b815260206004820152601460248201527f696e636f72726563742065746865722073656e740000000000000000000000006044820152606401610b67565b610e1f33612aa2565b600161015f55565b6097546001600160a01b03163314610e815760405162461bcd60e51b815260206004820181905260248201527f4f776e61626c653a2063616c6c6572206973206e6f7420746865206f776e65726044820152606401610b67565b61019a548161019954610e949190614e74565b1115610ee25760405162461bcd60e51b815260206004820152601b60248201527f63616e6e6f742062652067726561746572207468616e203939393900000000006044820152606401610b67565b806101996000828254610ef59190614e74565b909155505050565b6001600160a01b038116600090815260cb6020526040902054610f885760405162461bcd60e51b815260206004820152602660248201527f5061796d656e7453706c69747465723a206163636f756e7420686173206e6f2060448201527f73686172657300000000000000000000000000000000000000000000000000006064820152608401610b67565b6000610f9360ca5490565b610f9d9047614e74565b90506000610fca8383610fc5866001600160a01b0316600090815260cc602052604090205490565b612b1c565b90508061103f5760405162461bcd60e51b815260206004820152602b60248201527f5061796d656e7453706c69747465723a206163636f756e74206973206e6f742060448201527f647565207061796d656e740000000000000000000000000000000000000000006064820152608401610b67565b6001600160a01b038316600090815260cc602052604081208054839290611067908490614e74565b925050819055508060ca60008282546110809190614e74565b9091555061109090508382612b64565b604080516001600160a01b0385168152602081018390527fdf20fd1e76bc69d672e4814fafb2c449bba3a5369d8359adf9e05e6fde87b056910160405180910390a1505050565b6110e13382612c7d565b6111535760405162461bcd60e51b815260206004820152603160248201527f4552433732313a207472616e736665722063616c6c6572206973206e6f74206f60448201527f776e6572206e6f7220617070726f7665640000000000000000000000000000006064820152608401610b67565b610cb9838383612d81565b60008030606461116f856006614ea0565b6111799190614e8c565b915091509250929050565b61019c54610100900460ff166111dc5760405162461bcd60e51b815260206004820152600b60248201527f73616c65207061757365640000000000000000000000000000000000000000006044820152606401610b67565b600261015f5414156112305760405162461bcd60e51b815260206004820152601f60248201527f5265656e7472616e637947756172643a207265656e7472616e742063616c6c006044820152606401610b67565b600261015f5561019c5460ff166112895760405162461bcd60e51b815260206004820152600a60248201527f75736520606d696e7460000000000000000000000000000000000000000000006044820152606401610b67565b6101945442116112db5760405162461bcd60e51b815260206004820152601b60248201527f61756374696f6e20686173206e6f7420737461727465642079657400000000006044820152606401610b67565b61019554421061132d5760405162461bcd60e51b815260206004820152600f60248201527f61756374696f6e206578706972656400000000000000000000000000000000006044820152606401610b67565b6101945460009061133e9042614edd565b9050600061134e61012c83614e8c565b6101965461135c9190614ea0565b61019354610192549192506000916113749190614edd565b821161138e5761019254611389908390614edd565b611393565b610193545b9050803410156113e55760405162461bcd60e51b815260206004820152601260248201527f696e73756666696369656e742066756e647300000000000000000000000000006044820152606401610b67565b6113ee33612aa2565b5050600161015f5550565b306001600160a01b037f00000000000000000000000000000000000000000000000000000000000000001614156114985760405162461bcd60e51b815260206004820152602c60248201527f46756e6374696f6e206d7573742062652063616c6c6564207468726f7567682060448201527f64656c656761746563616c6c00000000000000000000000000000000000000006064820152608401610b67565b7f00000000000000000000000000000000000000000000000000000000000000006001600160a01b03166114f37f360894a13ba1a3210667c828492db98dca3e2076cc3735a920a3ca505d382bbc546001600160a01b031690565b6001600160a01b03161461156f5760405162461bcd60e51b815260206004820152602c60248201527f46756e6374696f6e206d7573742062652063616c6c6564207468726f7567682060448201527f6163746976652070726f787900000000000000000000000000000000000000006064820152608401610b67565b61157881612f66565b6040805160008082526020820190925261159491839190612fc0565b50565b6097546001600160a01b031633146115f15760405162461bcd60e51b815260206004820181905260248201527f4f776e61626c653a2063616c6c6572206973206e6f7420746865206f776e65726044820152606401610b67565b6040805160a080820183528782526020808301889052828401879052606080840187905260809384018690526101928a905561019389905561019488905561019587905561019686905584518a81529182018990529381018790529283018590529082018390527fbd0bbff8ef694cfae32ec10e7671cfe67d5b3452e8adfd13ffb731b2efdbd453910160405180910390a15050505050565b610cb9838383604051806020016040528060008152506124a5565b6001600160a01b038116600090815260cb60205260409020546117305760405162461bcd60e51b815260206004820152602660248201527f5061796d656e7453706c69747465723a206163636f756e7420686173206e6f2060448201527f73686172657300000000000000000000000000000000000000000000000000006064820152608401610b67565b6001600160a01b038216600090815260ce60205260408120546040517f70a082310000000000000000000000000000000000000000000000000000000081523060048201526001600160a01b038516906370a082319060240160206040518083038186803b1580156117a157600080fd5b505afa1580156117b5573d6000803e3d6000fd5b505050506040513d601f19601f820116820180604052508101906117d99190614c72565b6117e39190614e74565b9050600061181c8383610fc587876001600160a01b03918216600090815260cf6020908152604080832093909416825291909152205490565b9050806118915760405162461bcd60e51b815260206004820152602b60248201527f5061796d656e7453706c69747465723a206163636f756e74206973206e6f742060448201527f647565207061796d656e740000000000000000000000000000000000000000006064820152608401610b67565b6001600160a01b03808516600090815260cf60209081526040808320938716835292905290812080548392906118c8908490614e74565b90915550506001600160a01b038416600090815260ce6020526040812080548392906118f5908490614e74565b9091555061190690508484836131de565b604080516001600160a01b038581168252602082018490528616917f3be5b7a71e84ed12875d241991c70855ac5817d847039e17a9d895c1ceb0f18a910160405180910390a250505050565b306001600160a01b037f00000000000000000000000000000000000000000000000000000000000000001614156119f15760405162461bcd60e51b815260206004820152602c60248201527f46756e6374696f6e206d7573742062652063616c6c6564207468726f7567682060448201527f64656c656761746563616c6c00000000000000000000000000000000000000006064820152608401610b67565b7f00000000000000000000000000000000000000000000000000000000000000006001600160a01b0316611a4c7f360894a13ba1a3210667c828492db98dca3e2076cc3735a920a3ca505d382bbc546001600160a01b031690565b6001600160a01b031614611ac85760405162461bcd60e51b815260206004820152602c60248201527f46756e6374696f6e206d7573742062652063616c6c6564207468726f7567682060448201527f6163746976652070726f787900000000000000000000000000000000000000006064820152608401610b67565b611ad182612f66565b611add82826001612fc0565b5050565b604080513360601b7fffffffffffffffffffffffffffffffffffffffff000000000000000000000000166020808301919091528251601481840301815260349092019092528051910120611b689083838080602002602001604051908101604052809392919081815260200183836020028082843760009201919091525061325e92505050565b611bb45760405162461bcd60e51b815260206004820152601460248201527f496e76616c6964206d65726b6c652070726f6f660000000000000000000000006044820152606401610b67565b61019c5460ff1615611c085760405162461bcd60e51b815260206004820152601160248201527f75736520606d696e7441756374696f6e600000000000000000000000000000006044820152606401610b67565b61019b543414611c5a5760405162461bcd60e51b815260206004820152601460248201527f696e636f72726563742065746865722073656e740000000000000000000000006044820152606401610b67565b3360009081526101916020526040902061019e5463ffffffff16600a8110611c9257634e487b7160e01b600052603260045260246000fd5b602081049091015460ff601f9092166101000a90041615611cf55760405162461bcd60e51b815260206004820152600760248201527f636c61696d6564000000000000000000000000000000000000000000000000006044820152606401610b67565b3360009081526101916020526040902061019e546001919063ffffffff16600a8110611d3157634e487b7160e01b600052603260045260246000fd5b602091828204019190066101000a81548160ff021916908315150217905550611add33612aa2565b6097546001600160a01b03163314611db35760405162461bcd60e51b815260206004820181905260248201527f4f776e61626c653a2063616c6c6572206973206e6f7420746865206f776e65726044820152606401610b67565b8051611add906101989060208401906146e8565b6097546001600160a01b03163314611e215760405162461bcd60e51b815260206004820181905260248201527f4f776e61626c653a2063616c6c6572206973206e6f7420746865206f776e65726044820152606401610b67565b61019c80547fffffffffffffffffffffffffffffffffffffffffffffffffffffffffffffff0016911515919091179055565b6000818152606760205260408120546001600160a01b031680610a475760405162461bcd60e51b815260206004820152602960248201527f4552433732313a206f776e657220717565727920666f72206e6f6e657869737460448201527f656e7420746f6b656e00000000000000000000000000000000000000000000006064820152608401610b67565b60006001600160a01b038216611f5c5760405162461bcd60e51b815260206004820152602a60248201527f4552433732313a2062616c616e636520717565727920666f7220746865207a6560448201527f726f2061646472657373000000000000000000000000000000000000000000006064820152608401610b67565b506001600160a01b031660009081526068602052604090205490565b6097546001600160a01b03163314611fd25760405162461bcd60e51b815260206004820181905260248201527f4f776e61626c653a2063616c6c6572206973206e6f7420746865206f776e65726044820152606401610b67565b611fdc600061326e565b565b6097546001600160a01b031633146120385760405162461bcd60e51b815260206004820181905260248201527f4f776e61626c653a2063616c6c6572206973206e6f7420746865206f776e65726044820152606401610b67565b61019c8054911515610100027fffffffffffffffffffffffffffffffffffffffffffffffffffffffffffff00ff909216919091179055565b600060cd828154811061209357634e487b7160e01b600052603260045260246000fd5b6000918252602090912001546001600160a01b031692915050565b6097546001600160a01b031633146121085760405162461bcd60e51b815260206004820181905260248201527f4f776e61626c653a2063616c6c6572206973206e6f7420746865206f776e65726044820152606401610b67565b600261015f54141561215c5760405162461bcd60e51b815260206004820152601f60248201527f5265656e7472616e637947756172643a207265656e7472616e742063616c6c006044820152606401610b67565b600261015f55600061216e6101975490565b6101995490915061217f8383614e74565b11156121cd5760405162461bcd60e51b815260206004820152601860248201527f6578636565647320617661696c61626c6520737570706c7900000000000000006044820152606401610b67565b60005b8281101561220c576121eb846121e68385614e74565b6132d8565b6121fa61019780546001019055565b8061220481614f5b565b9150506121d0565b5050600161015f555050565b606060668054610a5e90614f20565b6097546001600160a01b031633146122815760405162461bcd60e51b815260206004820181905260248201527f4f776e61626c653a2063616c6c6572206973206e6f7420746865206f776e65726044820152606401610b67565b600261015f5414156122d55760405162461bcd60e51b815260206004820152601f60248201527f5265656e7472616e637947756172643a207265656e7472616e742063616c6c006044820152606401610b67565b600261015f5560006122e76101975490565b9050610199548251826122fa9190614e74565b11156123485760405162461bcd60e51b815260206004820152601460248201527f6578636565647320746f6b656e20737570706c790000000000000000000000006044820152606401610b67565b60005b82518110156113ee5761238b83828151811061237757634e487b7160e01b600052603260045260246000fd5b602002602001015182846121e69190614e74565b61239a61019780546001019055565b806123a481614f5b565b91505061234b565b611add3383836132f2565b6097546001600160a01b031633146124115760405162461bcd60e51b815260206004820181905260248201527f4f776e61626c653a2063616c6c6572206973206e6f7420746865206f776e65726044820152606401610b67565b61019e5463ffffffff9081169082161161246d5760405162461bcd60e51b815260206004820152601760248201527f6c657373207468616e2063757272656e7420696e6465780000000000000000006044820152606401610b67565b61019e80547fffffffffffffffffffffffffffffffffffffffffffffffffffffffff000000001663ffffffff92909216919091179055565b6124af3383612c7d565b6125215760405162461bcd60e51b815260206004820152603160248201527f4552433732313a207472616e736665722063616c6c6572206973206e6f74206f60448201527f776e6572206e6f7220617070726f7665640000000000000000000000000000006064820152608401610b67565b61252d848484846133df565b50505050565b61019160205281600052604060002081600a811061255057600080fd5b602081049091015460ff601f9092166101000a9004169150829050565b6000818152606760205260409020546060906001600160a01b03166125d45760405162461bcd60e51b815260206004820152601f60248201527f55524920717565727920666f72206e6f6e6578697374656e7420746f6b656e006044820152606401610b67565b60408051808201909152600581527f2e6a736f6e000000000000000000000000000000000000000000000000000000602082015261019880546000919061261a90614f20565b80601f016020809104026020016040519081016040528092919081815260200182805461264690614f20565b80156126935780601f1061266857610100808354040283529160200191612693565b820191906000526020600020905b81548152906001019060200180831161267657829003601f168201915b5050505050905060008151116126b857604051806020016040528060008152506126e5565b806126c285613468565b836040516020016126d593929190614d6f565b6040516020818303038152906040525b949350505050565b6097546001600160a01b031633146127475760405162461bcd60e51b815260206004820181905260248201527f4f776e61626c653a2063616c6c6572206973206e6f7420746865206f776e65726044820152606401610b67565b6001600160a01b0381166127c35760405162461bcd60e51b815260206004820152602660248201527f4f776e61626c653a206e6577206f776e657220697320746865207a65726f206160448201527f64647265737300000000000000000000000000000000000000000000000000006064820152608401610b67565b6115948161326e565b6097546001600160a01b031633146128265760405162461bcd60e51b815260206004820181905260248201527f4f776e61626c653a2063616c6c6572206973206e6f7420746865206f776e65726044820152606401610b67565b61019b55565b600054610100900460ff166128475760005460ff161561284b565b303b155b6128bd5760405162461bcd60e51b815260206004820152602e60248201527f496e697469616c697a61626c653a20636f6e747261637420697320616c72656160448201527f647920696e697469616c697a65640000000000000000000000000000000000006064820152608401610b67565b600054610100900460ff1615801561292357600080547fffffffffffffffffffffffffffffffffffffffffffffffffffffffffffffff007fffffffffffffffffffffffffffffffffffffffffffffffffffffffffffff00ff909116610100171660011790555b61292b6135b7565b61299f6040518060400160405280601b81526020017f57726973742041666963696f6e61646f20576174636820436c756200000000008152506040518060400160405280600481526020017f5741574300000000000000000000000000000000000000000000000000000000815250613644565b6129a984846136db565b6129b161376a565b61270f61019a5561019d8290556129e77f2a55205a00000000000000000000000000000000000000000000000000000000610968565b50801561252d57600080547fffffffffffffffffffffffffffffffffffffffffffffffffffffffffffff00ff16905550505050565b600081815260696020526040902080547fffffffffffffffffffffffff0000000000000000000000000000000000000000166001600160a01b0384169081179091558190612a6982611e53565b6001600160a01b03167f8c5be1e5ebec7d5bd14f71427d1e84f3dd0314c0f7b2291e5b200ac8c7c3b92560405160405180910390a45050565b6000612aae6101975490565b905061019954811115612b035760405162461bcd60e51b815260206004820152601460248201527f6578636565647320746f6b656e20737570706c790000000000000000000000006044820152606401610b67565b612b0d82826132d8565b611add61019780546001019055565b60c9546001600160a01b038416600090815260cb602052604081205490918391612b469086614ea0565b612b509190614e8c565b612b5a9190614edd565b90505b9392505050565b80471015612bb45760405162461bcd60e51b815260206004820152601d60248201527f416464726573733a20696e73756666696369656e742062616c616e63650000006044820152606401610b67565b6000826001600160a01b03168260405160006040518083038185875af1925050503d8060008114612c01576040519150601f19603f3d011682016040523d82523d6000602084013e612c06565b606091505b5050905080610cb95760405162461bcd60e51b815260206004820152603a60248201527f416464726573733a20756e61626c6520746f2073656e642076616c75652c207260448201527f6563697069656e74206d617920686176652072657665727465640000000000006064820152608401610b67565b6000818152606760205260408120546001600160a01b0316612d075760405162461bcd60e51b815260206004820152602c60248201527f4552433732313a206f70657261746f7220717565727920666f72206e6f6e657860448201527f697374656e7420746f6b656e00000000000000000000000000000000000000006064820152608401610b67565b6000612d1283611e53565b9050806001600160a01b0316846001600160a01b03161480612d4d5750836001600160a01b0316612d4284610ae1565b6001600160a01b0316145b806126e557506001600160a01b038082166000908152606a602090815260408083209388168352929052205460ff166126e5565b826001600160a01b0316612d9482611e53565b6001600160a01b031614612e105760405162461bcd60e51b815260206004820152602960248201527f4552433732313a207472616e73666572206f6620746f6b656e2074686174206960448201527f73206e6f74206f776e00000000000000000000000000000000000000000000006064820152608401610b67565b6001600160a01b038216612e8b5760405162461bcd60e51b8152602060048201526024808201527f4552433732313a207472616e7366657220746f20746865207a65726f2061646460448201527f72657373000000000000000000000000000000000000000000000000000000006064820152608401610b67565b612e96600082612a1c565b6001600160a01b0383166000908152606860205260408120805460019290612ebf908490614edd565b90915550506001600160a01b0382166000908152606860205260408120805460019290612eed908490614e74565b909155505060008181526067602052604080822080547fffffffffffffffffffffffff0000000000000000000000000000000000000000166001600160a01b0386811691821790925591518493918716917fddf252ad1be2c89b69c2b068fc378daa952ba7f163c4a11628f55a4df523b3ef91a4505050565b6097546001600160a01b031633146115945760405162461bcd60e51b815260206004820181905260248201527f4f776e61626c653a2063616c6c6572206973206e6f7420746865206f776e65726044820152606401610b67565b6000612ff37f360894a13ba1a3210667c828492db98dca3e2076cc3735a920a3ca505d382bbc546001600160a01b031690565b9050612ffe846137ef565b60008351118061300b5750815b1561301c5761301a84846138bc565b505b7f4910fdfa16fed3260ed0e7147f7cc6da11a60208b5b9406d12a635614ffd9143805460ff166131d75780547fffffffffffffffffffffffffffffffffffffffffffffffffffffffffffffff001660011781556040516001600160a01b0383166024820152613105908690604401604080517fffffffffffffffffffffffffffffffffffffffffffffffffffffffffffffffe08184030181529190526020810180517bffffffffffffffffffffffffffffffffffffffffffffffffffffffff167f3659cfe6000000000000000000000000000000000000000000000000000000001790526138bc565b5080547fffffffffffffffffffffffffffffffffffffffffffffffffffffffffffffff001681557f360894a13ba1a3210667c828492db98dca3e2076cc3735a920a3ca505d382bbc546001600160a01b038381169116146131ce5760405162461bcd60e51b815260206004820152602f60248201527f45524331393637557067726164653a207570677261646520627265616b73206660448201527f75727468657220757067726164657300000000000000000000000000000000006064820152608401610b67565b6131d7856139be565b5050505050565b604080516001600160a01b038416602482015260448082018490528251808303909101815260649091019091526020810180517bffffffffffffffffffffffffffffffffffffffffffffffffffffffff167fa9059cbb00000000000000000000000000000000000000000000000000000000179052610cb99084906139fe565b6000612b5d8261019d5485613ae3565b609780546001600160a01b038381167fffffffffffffffffffffffff0000000000000000000000000000000000000000831681179093556040519116919082907f8be0079c531659141344cd1fd0a4f28419497f9722a3daafe3b4186f6b6457e090600090a35050565b611add828260405180602001604052806000815250613af9565b816001600160a01b0316836001600160a01b031614156133545760405162461bcd60e51b815260206004820152601960248201527f4552433732313a20617070726f766520746f2063616c6c6572000000000000006044820152606401610b67565b6001600160a01b038381166000818152606a602090815260408083209487168084529482529182902080547fffffffffffffffffffffffffffffffffffffffffffffffffffffffffffffff001686151590811790915591519182527f17307eab39ab6107e8899845ad3d59bd9653f200f220920489ca2b5937696c31910160405180910390a3505050565b6133ea848484612d81565b6133f684848484613b82565b61252d5760405162461bcd60e51b815260206004820152603260248201527f4552433732313a207472616e7366657220746f206e6f6e20455243373231526560448201527f63656976657220696d706c656d656e74657200000000000000000000000000006064820152608401610b67565b6060816134a9575060408051808201909152600181527f30000000000000000000000000000000000000000000000000000000000000006020820152610a4a565b8160005b81156134d357806134bd81614f5b565b91506134cc9050600a83614e8c565b91506134ad565b60008167ffffffffffffffff8111156134fc57634e487b7160e01b600052604160045260246000fd5b6040519080825280601f01601f191660200182016040528015613526576020820181803683370190505b5090505b84156126e55761353b600183614edd565b9150613548600a86614f94565b613553906030614e74565b60f81b81838151811061357657634e487b7160e01b600052603260045260246000fd5b60200101907effffffffffffffffffffffffffffffffffffffffffffffffffffffffffffff1916908160001a9053506135b0600a86614e8c565b945061352a565b600054610100900460ff166136345760405162461bcd60e51b815260206004820152602b60248201527f496e697469616c697a61626c653a20636f6e7472616374206973206e6f74206960448201527f6e697469616c697a696e670000000000000000000000000000000000000000006064820152608401610b67565b61363c613d4d565b611fdc613dca565b600054610100900460ff166136c15760405162461bcd60e51b815260206004820152602b60248201527f496e697469616c697a61626c653a20636f6e7472616374206973206e6f74206960448201527f6e697469616c697a696e670000000000000000000000000000000000000000006064820152608401610b67565b6136c9613d4d565b6136d1613d4d565b611add8282613e50565b600054610100900460ff166137585760405162461bcd60e51b815260206004820152602b60248201527f496e697469616c697a61626c653a20636f6e7472616374206973206e6f74206960448201527f6e697469616c697a696e670000000000000000000000000000000000000000006064820152608401610b67565b613760613d4d565b611add8282613ef4565b600054610100900460ff166137e75760405162461bcd60e51b815260206004820152602b60248201527f496e697469616c697a61626c653a20636f6e7472616374206973206e6f74206960448201527f6e697469616c697a696e670000000000000000000000000000000000000000006064820152608401610b67565b611fdc6140af565b803b6138635760405162461bcd60e51b815260206004820152602d60248201527f455243313936373a206e657720696d706c656d656e746174696f6e206973206e60448201527f6f74206120636f6e7472616374000000000000000000000000000000000000006064820152608401610b67565b7f360894a13ba1a3210667c828492db98dca3e2076cc3735a920a3ca505d382bbc80547fffffffffffffffffffffffff0000000000000000000000000000000000000000166001600160a01b0392909216919091179055565b6060823b6139325760405162461bcd60e51b815260206004820152602660248201527f416464726573733a2064656c65676174652063616c6c20746f206e6f6e2d636f60448201527f6e747261637400000000000000000000000000000000000000000000000000006064820152608401610b67565b600080846001600160a01b03168460405161394d9190614d53565b600060405180830381855af49150503d8060008114613988576040519150601f19603f3d011682016040523d82523d6000602084013e61398d565b606091505b50915091506139b5828260405180606001604052806027815260200161503c6027913961412c565b95945050505050565b6139c7816137ef565b6040516001600160a01b038216907fbc7cd75a20ee27fd9adebab32041f755214dbc6bffa90cc0225b39da2e5c2d3b90600090a250565b6000613a53826040518060400160405280602081526020017f5361666545524332303a206c6f772d6c6576656c2063616c6c206661696c6564815250856001600160a01b03166141659092919063ffffffff16565b805190915015610cb95780806020019051810190613a719190614bae565b610cb95760405162461bcd60e51b815260206004820152602a60248201527f5361666545524332303a204552433230206f7065726174696f6e20646964206e60448201527f6f742073756363656564000000000000000000000000000000000000000000006064820152608401610b67565b600082613af08584614174565b14949350505050565b613b03838361422e565b613b106000848484613b82565b610cb95760405162461bcd60e51b815260206004820152603260248201527f4552433732313a207472616e7366657220746f206e6f6e20455243373231526560448201527f63656976657220696d706c656d656e74657200000000000000000000000000006064820152608401610b67565b60006001600160a01b0384163b15613d42576040517f150b7a020000000000000000000000000000000000000000000000000000000081526001600160a01b0385169063150b7a0290613bdf903390899088908890600401614db2565b602060405180830381600087803b158015613bf957600080fd5b505af1925050508015613c47575060408051601f3d9081017fffffffffffffffffffffffffffffffffffffffffffffffffffffffffffffffe0168201909252613c4491810190614be6565b60015b613cf7573d808015613c75576040519150601f19603f3d011682016040523d82523d6000602084013e613c7a565b606091505b508051613cef5760405162461bcd60e51b815260206004820152603260248201527f4552433732313a207472616e7366657220746f206e6f6e20455243373231526560448201527f63656976657220696d706c656d656e74657200000000000000000000000000006064820152608401610b67565b805181602001fd5b7fffffffff00000000000000000000000000000000000000000000000000000000167f150b7a02000000000000000000000000000000000000000000000000000000001490506126e5565b506001949350505050565b600054610100900460ff16611fdc5760405162461bcd60e51b815260206004820152602b60248201527f496e697469616c697a61626c653a20636f6e7472616374206973206e6f74206960448201527f6e697469616c697a696e670000000000000000000000000000000000000000006064820152608401610b67565b600054610100900460ff16613e475760405162461bcd60e51b815260206004820152602b60248201527f496e697469616c697a61626c653a20636f6e7472616374206973206e6f74206960448201527f6e697469616c697a696e670000000000000000000000000000000000000000006064820152608401610b67565b611fdc3361326e565b600054610100900460ff16613ecd5760405162461bcd60e51b815260206004820152602b60248201527f496e697469616c697a61626c653a20636f6e7472616374206973206e6f74206960448201527f6e697469616c697a696e670000000000000000000000000000000000000000006064820152608401610b67565b8151613ee09060659060208501906146e8565b508051610cb99060669060208401906146e8565b600054610100900460ff16613f715760405162461bcd60e51b815260206004820152602b60248201527f496e697469616c697a61626c653a20636f6e7472616374206973206e6f74206960448201527f6e697469616c697a696e670000000000000000000000000000000000000000006064820152608401610b67565b8051825114613fe85760405162461bcd60e51b815260206004820152603260248201527f5061796d656e7453706c69747465723a2070617965657320616e64207368617260448201527f6573206c656e677468206d69736d6174636800000000000000000000000000006064820152608401610b67565b60008251116140395760405162461bcd60e51b815260206004820152601a60248201527f5061796d656e7453706c69747465723a206e6f207061796565730000000000006044820152606401610b67565b60005b8251811015610cb95761409d83828151811061406857634e487b7160e01b600052603260045260246000fd5b602002602001015183838151811061409057634e487b7160e01b600052603260045260246000fd5b6020026020010151614388565b806140a781614f5b565b91505061403c565b600054610100900460ff16610e1f5760405162461bcd60e51b815260206004820152602b60248201527f496e697469616c697a61626c653a20636f6e7472616374206973206e6f74206960448201527f6e697469616c697a696e670000000000000000000000000000000000000000006064820152608401610b67565b6060831561413b575081612b5d565b82511561414b5782518084602001fd5b8160405162461bcd60e51b8152600401610b679190614dee565b6060612b5a84846000856145a9565b600081815b84518110156142265760008582815181106141a457634e487b7160e01b600052603260045260246000fd5b602002602001015190508083116141e6576040805160208101859052908101829052606001604051602081830303815290604052805190602001209250614213565b60408051602081018390529081018490526060016040516020818303038152906040528051906020012092505b508061421e81614f5b565b915050614179565b509392505050565b6001600160a01b0382166142845760405162461bcd60e51b815260206004820181905260248201527f4552433732313a206d696e7420746f20746865207a65726f20616464726573736044820152606401610b67565b6000818152606760205260409020546001600160a01b0316156142e95760405162461bcd60e51b815260206004820152601c60248201527f4552433732313a20746f6b656e20616c7265616479206d696e746564000000006044820152606401610b67565b6001600160a01b0382166000908152606860205260408120805460019290614312908490614e74565b909155505060008181526067602052604080822080547fffffffffffffffffffffffff0000000000000000000000000000000000000000166001600160a01b03861690811790915590518392907fddf252ad1be2c89b69c2b068fc378daa952ba7f163c4a11628f55a4df523b3ef908290a45050565b6001600160a01b0382166144045760405162461bcd60e51b815260206004820152602c60248201527f5061796d656e7453706c69747465723a206163636f756e74206973207468652060448201527f7a65726f206164647265737300000000000000000000000000000000000000006064820152608401610b67565b600081116144545760405162461bcd60e51b815260206004820152601d60248201527f5061796d656e7453706c69747465723a207368617265732061726520300000006044820152606401610b67565b6001600160a01b038216600090815260cb6020526040902054156144e05760405162461bcd60e51b815260206004820152602b60248201527f5061796d656e7453706c69747465723a206163636f756e7420616c726561647960448201527f20686173207368617265730000000000000000000000000000000000000000006064820152608401610b67565b60cd8054600181019091557f83978b4c69c48dd978ab43fe30f077615294f938fb7f936d9eb340e51ea7db2e0180547fffffffffffffffffffffffff0000000000000000000000000000000000000000166001600160a01b038416908117909155600090815260cb6020526040902081905560c954614560908290614e74565b60c955604080516001600160a01b0384168152602081018390527f40c340f65e17194d14ddddb073d3c9f888e3cb52b5aae0c6c7706b4fbc905fac910160405180910390a15050565b6060824710156146215760405162461bcd60e51b815260206004820152602660248201527f416464726573733a20696e73756666696369656e742062616c616e636520666f60448201527f722063616c6c00000000000000000000000000000000000000000000000000006064820152608401610b67565b843b61466f5760405162461bcd60e51b815260206004820152601d60248201527f416464726573733a2063616c6c20746f206e6f6e2d636f6e74726163740000006044820152606401610b67565b600080866001600160a01b0316858760405161468b9190614d53565b60006040518083038185875af1925050503d80600081146146c8576040519150601f19603f3d011682016040523d82523d6000602084013e6146cd565b606091505b50915091506146dd82828661412c565b979650505050505050565b8280546146f490614f20565b90600052602060002090601f016020900481019282614716576000855561475c565b82601f1061472f57805160ff191683800117855561475c565b8280016001018555821561475c579182015b8281111561475c578251825591602001919060010190614741565b5061476892915061476c565b5090565b5b80821115614768576000815560010161476d565b600067ffffffffffffffff83111561479b5761479b614fd4565b6147cc60207fffffffffffffffffffffffffffffffffffffffffffffffffffffffffffffffe0601f86011601614e01565b90508281528383830111156147e057600080fd5b828260208301376000602084830101529392505050565b600082601f830112614807578081fd5b8135602061481c61481783614e50565b614e01565b8281528181019085830183850287018401881015614838578586fd5b855b8581101561485f57813561484d81614fea565b8452928401929084019060010161483a565b5090979650505050505050565b600082601f83011261487c578081fd5b612b5d83833560208501614781565b60006020828403121561489c578081fd5b8135612b5d81614fea565b600080604083850312156148b9578081fd5b82356148c481614fea565b915060208301356148d481614fea565b809150509250929050565b6000806000606084860312156148f3578081fd5b83356148fe81614fea565b9250602084013561490e81614fea565b929592945050506040919091013590565b60008060008060808587031215614934578081fd5b843561493f81614fea565b9350602085013561494f81614fea565b925060408501359150606085013567ffffffffffffffff811115614971578182fd5b61497d8782880161486c565b91505092959194509250565b6000806040838503121561499b578182fd5b82356149a681614fea565b915060208301356148d481614fff565b600080604083850312156149c8578182fd5b82356149d381614fea565b9150602083013567ffffffffffffffff8111156149ee578182fd5b6149fa8582860161486c565b9150509250929050565b60008060408385031215614a16578182fd5b8235614a2181614fea565b946020939093013593505050565b600060208284031215614a40578081fd5b813567ffffffffffffffff811115614a56578182fd5b6126e5848285016147f7565b600080600060608486031215614a76578081fd5b833567ffffffffffffffff80821115614a8d578283fd5b614a99878388016147f7565b9450602091508186013581811115614aaf578384fd5b86019050601f81018713614ac1578283fd5b8035614acf61481782614e50565b81815283810190838501858402850186018b1015614aeb578687fd5b8694505b83851015614b0d578035835260019490940193918501918501614aef565b5096999698505050506040949094013593505050565b60008060208385031215614b35578182fd5b823567ffffffffffffffff80821115614b4c578384fd5b818501915085601f830112614b5f578384fd5b813581811115614b6d578485fd5b8660208083028501011115614b80578485fd5b60209290920196919550909350505050565b600060208284031215614ba3578081fd5b8135612b5d81614fff565b600060208284031215614bbf578081fd5b8151612b5d81614fff565b600060208284031215614bdb578081fd5b8135612b5d8161500d565b600060208284031215614bf7578081fd5b8151612b5d8161500d565b600080604083850312156148b9578182fd5b600060208284031215614c25578081fd5b813567ffffffffffffffff811115614c3b578182fd5b8201601f81018413614c4b578182fd5b6126e584823560208401614781565b600060208284031215614c6b578081fd5b5035919050565b600060208284031215614c83578081fd5b5051919050565b60008060408385031215614c9c578182fd5b50508035926020909101359150565b600080600080600060a08688031215614cc2578283fd5b505083359560208501359550604085013594606081013594506080013592509050565b600060208284031215614cf6578081fd5b813563ffffffff81168114612b5d578182fd5b60008151808452614d21816020860160208601614ef4565b601f017fffffffffffffffffffffffffffffffffffffffffffffffffffffffffffffffe0169290920160200192915050565b60008251614d65818460208701614ef4565b9190910192915050565b60008451614d81818460208901614ef4565b845190830190614d95818360208901614ef4565b8451910190614da8818360208801614ef4565b0195945050505050565b60006001600160a01b03808716835280861660208401525083604083015260806060830152614de46080830184614d09565b9695505050505050565b600060208252612b5d6020830184614d09565b604051601f82017fffffffffffffffffffffffffffffffffffffffffffffffffffffffffffffffe016810167ffffffffffffffff81118282101715614e4857614e48614fd4565b604052919050565b600067ffffffffffffffff821115614e6a57614e6a614fd4565b5060209081020190565b60008219821115614e8757614e87614fa8565b500190565b600082614e9b57614e9b614fbe565b500490565b6000817fffffffffffffffffffffffffffffffffffffffffffffffffffffffffffffffff0483118215151615614ed857614ed8614fa8565b500290565b600082821015614eef57614eef614fa8565b500390565b60005b83811015614f0f578181015183820152602001614ef7565b8381111561252d5750506000910152565b600281046001821680614f3457607f821691505b60208210811415614f5557634e487b7160e01b600052602260045260246000fd5b50919050565b60007fffffffffffffffffffffffffffffffffffffffffffffffffffffffffffffffff821415614f8d57614f8d614fa8565b5060010190565b600082614fa357614fa3614fbe565b500690565b634e487b7160e01b600052601160045260246000fd5b634e487b7160e01b600052601260045260246000fd5b634e487b7160e01b600052604160045260246000fd5b6001600160a01b038116811461159457600080fd5b801515811461159457600080fd5b7fffffffff000000000000000000000000000000000000000000000000000000008116811461159457600080fdfe416464726573733a206c6f772d6c6576656c2064656c65676174652063616c6c206661696c6564a2646970667358221220be8f2d26f4d740189ca11ab3557355033e64c787e6e5994b7d2c606b58788bfc64736f6c63430008020033",
    "linkReferences": {},
    "deployedLinkReferences": {}
}