{
    "_format": "hh-sol-artifact-1",
    "contractName": "WristAficionadoWatchClub",
    "sourceName": "contracts/Wristables.sol",
    "abi": [
        {
            "anonymous": false,
            "inputs": [
                {
                    "indexed": false,
                    "internalType": "address",
                    "name": "previousAdmin",
                    "type": "address"
                },
                {
                    "indexed": false,
                    "internalType": "address",
                    "name": "newAdmin",
                    "type": "address"
                }
            ],
            "name": "AdminChanged",
            "type": "event"
        },
        {
            "anonymous": false,
            "inputs": [
                {
                    "indexed": true,
                    "internalType": "address",
                    "name": "owner",
                    "type": "address"
                },
                {
                    "indexed": true,
                    "internalType": "address",
                    "name": "approved",
                    "type": "address"
                },
                {
                    "indexed": true,
                    "internalType": "uint256",
                    "name": "tokenId",
                    "type": "uint256"
                }
            ],
            "name": "Approval",
            "type": "event"
        },
        {
            "anonymous": false,
            "inputs": [
                {
                    "indexed": true,
                    "internalType": "address",
                    "name": "owner",
                    "type": "address"
                },
                {
                    "indexed": true,
                    "internalType": "address",
                    "name": "operator",
                    "type": "address"
                },
                {
                    "indexed": false,
                    "internalType": "bool",
                    "name": "approved",
                    "type": "bool"
                }
            ],
            "name": "ApprovalForAll",
            "type": "event"
        },
        {
            "anonymous": false,
            "inputs": [
                {
                    "indexed": true,
                    "internalType": "address",
                    "name": "beacon",
                    "type": "address"
                }
            ],
            "name": "BeaconUpgraded",
            "type": "event"
        },
        {
            "anonymous": false,
            "inputs": [
                {
                    "indexed": true,
                    "internalType": "contract IERC20Upgradeable",
                    "name": "token",
                    "type": "address"
                },
                {
                    "indexed": false,
                    "internalType": "address",
                    "name": "to",
                    "type": "address"
                },
                {
                    "indexed": false,
                    "internalType": "uint256",
                    "name": "amount",
                    "type": "uint256"
                }
            ],
            "name": "ERC20PaymentReleased",
            "type": "event"
        },
        {
            "anonymous": false,
            "inputs": [
                {
                    "indexed": false,
                    "internalType": "uint128",
                    "name": "startingPrice",
                    "type": "uint128"
                },
                {
                    "indexed": false,
                    "internalType": "uint128",
                    "name": "floorPrice",
                    "type": "uint128"
                },
                {
                    "indexed": false,
                    "internalType": "uint64",
                    "name": "startAt",
                    "type": "uint64"
                },
                {
                    "indexed": false,
                    "internalType": "uint64",
                    "name": "expiresAt",
                    "type": "uint64"
                },
                {
                    "indexed": false,
                    "internalType": "uint128",
                    "name": "priceDeductionRate",
                    "type": "uint128"
                }
            ],
            "name": "NewDutchAuction",
            "type": "event"
        },
        {
            "anonymous": false,
            "inputs": [
                {
                    "indexed": true,
                    "internalType": "address",
                    "name": "previousOwner",
                    "type": "address"
                },
                {
                    "indexed": true,
                    "internalType": "address",
                    "name": "newOwner",
                    "type": "address"
                }
            ],
            "name": "OwnershipTransferred",
            "type": "event"
        },
        {
            "anonymous": false,
            "inputs": [
                {
                    "indexed": false,
                    "internalType": "address",
                    "name": "account",
                    "type": "address"
                },
                {
                    "indexed": false,
                    "internalType": "uint256",
                    "name": "shares",
                    "type": "uint256"
                }
            ],
            "name": "PayeeAdded",
            "type": "event"
        },
        {
            "anonymous": false,
            "inputs": [
                {
                    "indexed": false,
                    "internalType": "address",
                    "name": "from",
                    "type": "address"
                },
                {
                    "indexed": false,
                    "internalType": "uint256",
                    "name": "amount",
                    "type": "uint256"
                }
            ],
            "name": "PaymentReceived",
            "type": "event"
        },
        {
            "anonymous": false,
            "inputs": [
                {
                    "indexed": false,
                    "internalType": "address",
                    "name": "to",
                    "type": "address"
                },
                {
                    "indexed": false,
                    "internalType": "uint256",
                    "name": "amount",
                    "type": "uint256"
                }
            ],
            "name": "PaymentReleased",
            "type": "event"
        },
        {
            "anonymous": false,
            "inputs": [
                {
                    "indexed": true,
                    "internalType": "address",
                    "name": "from",
                    "type": "address"
                },
                {
                    "indexed": true,
                    "internalType": "address",
                    "name": "to",
                    "type": "address"
                },
                {
                    "indexed": true,
                    "internalType": "uint256",
                    "name": "tokenId",
                    "type": "uint256"
                }
            ],
            "name": "Transfer",
            "type": "event"
        },
        {
            "anonymous": false,
            "inputs": [
                {
                    "indexed": true,
                    "internalType": "address",
                    "name": "implementation",
                    "type": "address"
                }
            ],
            "name": "Upgraded",
            "type": "event"
        },
        {
            "inputs": [],
            "name": "MAX_TOKEN_ID",
            "outputs": [
                {
                    "internalType": "uint256",
                    "name": "",
                    "type": "uint256"
                }
            ],
            "stateMutability": "view",
            "type": "function"
        },
        {
            "inputs": [],
            "name": "_baseTokenURI",
            "outputs": [
                {
                    "internalType": "string",
                    "name": "",
                    "type": "string"
                }
            ],
            "stateMutability": "view",
            "type": "function"
        },
        {
            "inputs": [
                {
                    "internalType": "address",
                    "name": "to",
                    "type": "address"
                },
                {
                    "internalType": "uint256",
                    "name": "tokenId",
                    "type": "uint256"
                }
            ],
            "name": "approve",
            "outputs": [],
            "stateMutability": "nonpayable",
            "type": "function"
        },
        {
            "inputs": [],
            "name": "availableTokenId",
            "outputs": [
                {
                    "internalType": "uint16",
                    "name": "",
                    "type": "uint16"
                }
            ],
            "stateMutability": "view",
            "type": "function"
        },
        {
            "inputs": [
                {
                    "internalType": "address",
                    "name": "owner",
                    "type": "address"
                }
            ],
            "name": "balanceOf",
            "outputs": [
                {
                    "internalType": "uint256",
                    "name": "",
                    "type": "uint256"
                }
            ],
            "stateMutability": "view",
            "type": "function"
        },
        {
            "inputs": [
                {
                    "internalType": "address[]",
                    "name": "to",
                    "type": "address[]"
                },
                {
                    "internalType": "uint16[]",
                    "name": "quantity",
                    "type": "uint16[]"
                }
            ],
            "name": "batchAirdrop",
            "outputs": [],
            "stateMutability": "payable",
            "type": "function"
        },
        {
            "inputs": [
                {
                    "internalType": "bytes32",
                    "name": "",
                    "type": "bytes32"
                }
            ],
            "name": "claimedWL",
            "outputs": [
                {
                    "internalType": "bool",
                    "name": "",
                    "type": "bool"
                }
            ],
            "stateMutability": "view",
            "type": "function"
        },
        {
            "inputs": [],
            "name": "dutchAuction",
            "outputs": [
                {
                    "internalType": "uint128",
                    "name": "startingPrice",
                    "type": "uint128"
                },
                {
                    "internalType": "uint128",
                    "name": "floorPrice",
                    "type": "uint128"
                },
                {
                    "internalType": "uint64",
                    "name": "startAt",
                    "type": "uint64"
                },
                {
                    "internalType": "uint64",
                    "name": "expiresAt",
                    "type": "uint64"
                },
                {
                    "internalType": "uint128",
                    "name": "priceDeductionRate",
                    "type": "uint128"
                }
            ],
            "stateMutability": "view",
            "type": "function"
        },
        {
            "inputs": [
                {
                    "internalType": "uint256",
                    "name": "tokenId",
                    "type": "uint256"
                }
            ],
            "name": "getApproved",
            "outputs": [
                {
                    "internalType": "address",
                    "name": "",
                    "type": "address"
                }
            ],
            "stateMutability": "view",
            "type": "function"
        },
        {
            "inputs": [],
            "name": "indexWL",
            "outputs": [
                {
                    "internalType": "uint8",
                    "name": "",
                    "type": "uint8"
                }
            ],
            "stateMutability": "view",
            "type": "function"
        },
        {
            "inputs": [
                {
                    "internalType": "address[]",
                    "name": "payees",
                    "type": "address[]"
                },
                {
                    "internalType": "uint256[]",
                    "name": "shares_",
                    "type": "uint256[]"
                }
            ],
            "name": "initialize",
            "outputs": [],
            "stateMutability": "nonpayable",
            "type": "function"
        },
        {
            "inputs": [
                {
                    "internalType": "address",
                    "name": "owner",
                    "type": "address"
                },
                {
                    "internalType": "address",
                    "name": "operator",
                    "type": "address"
                }
            ],
            "name": "isApprovedForAll",
            "outputs": [
                {
                    "internalType": "bool",
                    "name": "",
                    "type": "bool"
                }
            ],
            "stateMutability": "view",
            "type": "function"
        },
        {
            "inputs": [],
            "name": "mint",
            "outputs": [],
            "stateMutability": "payable",
            "type": "function"
        },
        {
            "inputs": [],
            "name": "mintAuction",
            "outputs": [],
            "stateMutability": "payable",
            "type": "function"
        },
        {
            "inputs": [],
            "name": "mintPrice",
            "outputs": [
                {
                    "internalType": "uint128",
                    "name": "",
                    "type": "uint128"
                }
            ],
            "stateMutability": "view",
            "type": "function"
        },
        {
            "inputs": [],
            "name": "name",
            "outputs": [
                {
                    "internalType": "string",
                    "name": "",
                    "type": "string"
                }
            ],
            "stateMutability": "view",
            "type": "function"
        },
        {
            "inputs": [],
            "name": "owner",
            "outputs": [
                {
                    "internalType": "address",
                    "name": "",
                    "type": "address"
                }
            ],
            "stateMutability": "view",
            "type": "function"
        },
        {
            "inputs": [
                {
                    "internalType": "uint256",
                    "name": "tokenId",
                    "type": "uint256"
                }
            ],
            "name": "ownerOf",
            "outputs": [
                {
                    "internalType": "address",
                    "name": "",
                    "type": "address"
                }
            ],
            "stateMutability": "view",
            "type": "function"
        },
        {
            "inputs": [
                {
                    "internalType": "uint256",
                    "name": "index",
                    "type": "uint256"
                }
            ],
            "name": "payee",
            "outputs": [
                {
                    "internalType": "address",
                    "name": "",
                    "type": "address"
                }
            ],
            "stateMutability": "view",
            "type": "function"
        },
        {
            "inputs": [
                {
                    "internalType": "bytes32[]",
                    "name": "proof",
                    "type": "bytes32[]"
                }
            ],
            "name": "redeem",
            "outputs": [],
            "stateMutability": "payable",
            "type": "function"
        },
        {
            "inputs": [
                {
                    "internalType": "address payable",
                    "name": "account",
                    "type": "address"
                }
            ],
            "name": "release",
            "outputs": [],
            "stateMutability": "nonpayable",
            "type": "function"
        },
        {
            "inputs": [
                {
                    "internalType": "contract IERC20Upgradeable",
                    "name": "token",
                    "type": "address"
                },
                {
                    "internalType": "address",
                    "name": "account",
                    "type": "address"
                }
            ],
            "name": "release",
            "outputs": [],
            "stateMutability": "nonpayable",
            "type": "function"
        },
        {
            "inputs": [
                {
                    "internalType": "contract IERC20Upgradeable",
                    "name": "token",
                    "type": "address"
                },
                {
                    "internalType": "address",
                    "name": "account",
                    "type": "address"
                }
            ],
            "name": "released",
            "outputs": [
                {
                    "internalType": "uint256",
                    "name": "",
                    "type": "uint256"
                }
            ],
            "stateMutability": "view",
            "type": "function"
        },
        {
            "inputs": [
                {
                    "internalType": "address",
                    "name": "account",
                    "type": "address"
                }
            ],
            "name": "released",
            "outputs": [
                {
                    "internalType": "uint256",
                    "name": "",
                    "type": "uint256"
                }
            ],
            "stateMutability": "view",
            "type": "function"
        },
        {
            "inputs": [],
            "name": "renounceOwnership",
            "outputs": [],
            "stateMutability": "nonpayable",
            "type": "function"
        },
        {
            "inputs": [],
            "name": "root",
            "outputs": [
                {
                    "internalType": "bytes32",
                    "name": "",
                    "type": "bytes32"
                }
            ],
            "stateMutability": "view",
            "type": "function"
        },
        {
            "inputs": [
                {
                    "internalType": "uint256",
                    "name": "_tokenId",
                    "type": "uint256"
                },
                {
                    "internalType": "uint256",
                    "name": "_salePrice",
                    "type": "uint256"
                }
            ],
            "name": "royaltyInfo",
            "outputs": [
                {
                    "internalType": "address",
                    "name": "receiver",
                    "type": "address"
                },
                {
                    "internalType": "uint256",
                    "name": "royaltyAmount",
                    "type": "uint256"
                }
            ],
            "stateMutability": "view",
            "type": "function"
        },
        {
            "inputs": [
                {
                    "internalType": "address",
                    "name": "from",
                    "type": "address"
                },
                {
                    "internalType": "address",
                    "name": "to",
                    "type": "address"
                },
                {
                    "internalType": "uint256",
                    "name": "tokenId",
                    "type": "uint256"
                }
            ],
            "name": "safeTransferFrom",
            "outputs": [],
            "stateMutability": "nonpayable",
            "type": "function"
        },
        {
            "inputs": [
                {
                    "internalType": "address",
                    "name": "from",
                    "type": "address"
                },
                {
                    "internalType": "address",
                    "name": "to",
                    "type": "address"
                },
                {
                    "internalType": "uint256",
                    "name": "tokenId",
                    "type": "uint256"
                },
                {
                    "internalType": "bytes",
                    "name": "_data",
                    "type": "bytes"
                }
            ],
            "name": "safeTransferFrom",
            "outputs": [],
            "stateMutability": "nonpayable",
            "type": "function"
        },
        {
            "inputs": [],
            "name": "saleActive",
            "outputs": [
                {
                    "internalType": "bool",
                    "name": "",
                    "type": "bool"
                }
            ],
            "stateMutability": "view",
            "type": "function"
        },
        {
            "inputs": [
                {
                    "internalType": "uint16",
                    "name": "_availableTokenId",
                    "type": "uint16"
                },
                {
                    "internalType": "bytes32",
                    "name": "_root",
                    "type": "bytes32"
                },
                {
                    "internalType": "uint8",
                    "name": "_indexWL",
                    "type": "uint8"
                },
                {
                    "internalType": "bool",
                    "name": "_saleActive",
                    "type": "bool"
                },
                {
                    "internalType": "uint128",
                    "name": "_mintPrice",
                    "type": "uint128"
                }
            ],
            "name": "setAllSaleParams",
            "outputs": [],
            "stateMutability": "nonpayable",
            "type": "function"
        },
        {
            "inputs": [
                {
                    "internalType": "address",
                    "name": "operator",
                    "type": "address"
                },
                {
                    "internalType": "bool",
                    "name": "approved",
                    "type": "bool"
                }
            ],
            "name": "setApprovalForAll",
            "outputs": [],
            "stateMutability": "nonpayable",
            "type": "function"
        },
        {
            "inputs": [
                {
                    "internalType": "uint16",
                    "name": "availableTokenIdIncrease",
                    "type": "uint16"
                }
            ],
            "name": "setAvailableTokenID",
            "outputs": [],
            "stateMutability": "payable",
            "type": "function"
        },
        {
            "inputs": [
                {
                    "internalType": "string",
                    "name": "baseURI",
                    "type": "string"
                }
            ],
            "name": "setBaseURI",
            "outputs": [],
            "stateMutability": "payable",
            "type": "function"
        },
        {
            "inputs": [
                {
                    "internalType": "uint128",
                    "name": "_startingPrice",
                    "type": "uint128"
                },
                {
                    "internalType": "uint128",
                    "name": "_floorPrice",
                    "type": "uint128"
                },
                {
                    "internalType": "uint64",
                    "name": "_startAt",
                    "type": "uint64"
                },
                {
                    "internalType": "uint64",
                    "name": "_expiresAt",
                    "type": "uint64"
                },
                {
                    "internalType": "uint128",
                    "name": "_priceDeductionRate",
                    "type": "uint128"
                }
            ],
            "name": "setDutchAuction",
            "outputs": [],
            "stateMutability": "payable",
            "type": "function"
        },
        {
            "inputs": [
                {
                    "internalType": "uint8",
                    "name": "_indexWL",
                    "type": "uint8"
                }
            ],
            "name": "setIndexWL",
            "outputs": [],
            "stateMutability": "payable",
            "type": "function"
        },
        {
            "inputs": [
                {
                    "internalType": "bytes32",
                    "name": "_root",
                    "type": "bytes32"
                }
            ],
            "name": "setMerkleRoot",
            "outputs": [],
            "stateMutability": "nonpayable",
            "type": "function"
        },
        {
            "inputs": [
                {
                    "internalType": "uint128",
                    "name": "_mintPrice",
                    "type": "uint128"
                }
            ],
            "name": "setMintPrice",
            "outputs": [],
            "stateMutability": "payable",
            "type": "function"
        },
        {
            "inputs": [
                {
                    "internalType": "bool",
                    "name": "_saleActive",
                    "type": "bool"
                }
            ],
            "name": "setSaleActive",
            "outputs": [],
            "stateMutability": "payable",
            "type": "function"
        },
        {
            "inputs": [
                {
                    "internalType": "bool",
                    "name": "_toggleAuction",
                    "type": "bool"
                }
            ],
            "name": "setToggleAuction",
            "outputs": [],
            "stateMutability": "payable",
            "type": "function"
        },
        {
            "inputs": [
                {
                    "internalType": "address",
                    "name": "account",
                    "type": "address"
                }
            ],
            "name": "shares",
            "outputs": [
                {
                    "internalType": "uint256",
                    "name": "",
                    "type": "uint256"
                }
            ],
            "stateMutability": "view",
            "type": "function"
        },
        {
            "inputs": [
                {
                    "internalType": "bytes4",
                    "name": "interfaceId",
                    "type": "bytes4"
                }
            ],
            "name": "supportsInterface",
            "outputs": [
                {
                    "internalType": "bool",
                    "name": "",
                    "type": "bool"
                }
            ],
            "stateMutability": "view",
            "type": "function"
        },
        {
            "inputs": [],
            "name": "symbol",
            "outputs": [
                {
                    "internalType": "string",
                    "name": "",
                    "type": "string"
                }
            ],
            "stateMutability": "view",
            "type": "function"
        },
        {
            "inputs": [],
            "name": "toggleAuction",
            "outputs": [
                {
                    "internalType": "bool",
                    "name": "",
                    "type": "bool"
                }
            ],
            "stateMutability": "view",
            "type": "function"
        },
        {
            "inputs": [],
            "name": "tokenSupply",
            "outputs": [
                {
                    "internalType": "uint16",
                    "name": "",
                    "type": "uint16"
                }
            ],
            "stateMutability": "view",
            "type": "function"
        },
        {
            "inputs": [
                {
                    "internalType": "uint256",
                    "name": "tokenId",
                    "type": "uint256"
                }
            ],
            "name": "tokenURI",
            "outputs": [
                {
                    "internalType": "string",
                    "name": "",
                    "type": "string"
                }
            ],
            "stateMutability": "view",
            "type": "function"
        },
        {
            "inputs": [
                {
                    "internalType": "contract IERC20Upgradeable",
                    "name": "token",
                    "type": "address"
                }
            ],
            "name": "totalReleased",
            "outputs": [
                {
                    "internalType": "uint256",
                    "name": "",
                    "type": "uint256"
                }
            ],
            "stateMutability": "view",
            "type": "function"
        },
        {
            "inputs": [],
            "name": "totalReleased",
            "outputs": [
                {
                    "internalType": "uint256",
                    "name": "",
                    "type": "uint256"
                }
            ],
            "stateMutability": "view",
            "type": "function"
        },
        {
            "inputs": [],
            "name": "totalShares",
            "outputs": [
                {
                    "internalType": "uint256",
                    "name": "",
                    "type": "uint256"
                }
            ],
            "stateMutability": "view",
            "type": "function"
        },
        {
            "inputs": [
                {
                    "internalType": "address",
                    "name": "from",
                    "type": "address"
                },
                {
                    "internalType": "address",
                    "name": "to",
                    "type": "address"
                },
                {
                    "internalType": "uint256",
                    "name": "tokenId",
                    "type": "uint256"
                }
            ],
            "name": "transferFrom",
            "outputs": [],
            "stateMutability": "nonpayable",
            "type": "function"
        },
        {
            "inputs": [
                {
                    "internalType": "address",
                    "name": "newOwner",
                    "type": "address"
                }
            ],
            "name": "transferOwnership",
            "outputs": [],
            "stateMutability": "nonpayable",
            "type": "function"
        },
        {
            "inputs": [
                {
                    "internalType": "address",
                    "name": "newImplementation",
                    "type": "address"
                }
            ],
            "name": "upgradeTo",
            "outputs": [],
            "stateMutability": "nonpayable",
            "type": "function"
        },
        {
            "inputs": [
                {
                    "internalType": "address",
                    "name": "newImplementation",
                    "type": "address"
                },
                {
                    "internalType": "bytes",
                    "name": "data",
                    "type": "bytes"
                }
            ],
            "name": "upgradeToAndCall",
            "outputs": [],
            "stateMutability": "payable",
            "type": "function"
        },
        {
            "stateMutability": "payable",
            "type": "receive"
        }
    ],
    "bytecode": "0x60a06040523060601b60805234801561001757600080fd5b5060805160601c6155d36200004c600039600081816114a20152818161153801528181611b560152611bec01526155d36000f3fe60806040526004361061034e5760003560e01c806368428a1b116101bb578063a22cb465116100f7578063e33b7de311610095578063ebf0c7171161006f578063ebf0c71714610ab9578063f2fde38b14610ad0578063f322bb8514610af0578063f800b8ea14610b0357600080fd5b8063e33b7de314610a48578063e985e9c514610a5d578063ebdd8c4d14610aa657600080fd5b8063cc200b18116100d1578063cc200b1814610992578063ce7c2ac2146109c7578063cfc86f7b146109fd578063d79779b214610a1257600080fd5b8063a22cb46514610932578063b88d4fde14610952578063c87b56dd1461097257600080fd5b80637fbbe46f116101645780638da5cb5b1161013e5780638da5cb5b1461081457806395d89b41146108325780639852595c146108475780639da0d7d41461087d57600080fd5b80637fbbe46f146107c1578063841718a6146107e15780638b83209b146107f457600080fd5b8063715018a611610195578063715018a61461076a5780637824407f1461077f5780637cb64759146107a157600080fd5b806368428a1b1461070f5780636da612d81461073457806370a082311461074a57600080fd5b8063406072a91161028a57806355f804b311610233578063623f1fdd1161020d578063623f1fdd146106665780636352211e1461068657806367af871a146106a65780636817c76c146106b957600080fd5b806355f804b31461061c5780635711b8f91461062f5780635791ef231461065357600080fd5b806348b750441161026457806348b75044146105d65780634f1ef286146105f6578063524c2a041461060957600080fd5b8063406072a91461055d57806342455124146105a357806342842e0e146105b657600080fd5b806323b872dd116102f75780633544c826116102d15780633544c826146104dc5780633659cfe61461050b5780633a98ef391461052b5780633ce5255a1461054a57600080fd5b806323b872dd146104755780632a55205a1461049557806332f4a69b146104d457600080fd5b8063095ea7b311610328578063095ea7b31461042b5780631249c58b1461044d578063191655871461045557600080fd5b806301ffc9a71461039c57806306fdde03146103d1578063081812fc146103f357600080fd5b36610397577f6ef95f06320e7a25a04a175ca677b7052bdd97131872c2192525a629f51be77033604080516001600160a01b0390921682523460208301520160405180910390a1005b600080fd5b3480156103a857600080fd5b506103bc6103b7366004614fe3565b610b34565b60405190151581526020015b60405180910390f35b3480156103dd57600080fd5b506103e6610b90565b6040516103c8919061526a565b3480156103ff57600080fd5b5061041361040e366004614fcb565b610c22565b6040516001600160a01b0390911681526020016103c8565b34801561043757600080fd5b5061044b610446366004614e06565b610ccd565b005b61044b610dff565b34801561046157600080fd5b5061044b610470366004614c8d565b610f33565b34801561048157600080fd5b5061044b610490366004614ce1565b61110d565b3480156104a157600080fd5b506104b56104b0366004615168565b611194565b604080516001600160a01b0390931683526020830191909152016103c8565b61044b6111bb565b3480156104e857600080fd5b50610163546104f89061ffff1681565b60405161ffff90911681526020016103c8565b34801561051757600080fd5b5061044b610526366004614c8d565b611497565b34801561053757600080fd5b5060c9545b6040519081526020016103c8565b61044b61055836600461508d565b611635565b34801561056957600080fd5b5061053c61057836600461501b565b6001600160a01b03918216600090815260cf6020908152604080832093909416825291909152205490565b61044b6105b1366004615189565b61178a565b3480156105c257600080fd5b5061044b6105d1366004614ce1565b611883565b3480156105e257600080fd5b5061044b6105f136600461501b565b61189e565b61044b610604366004614db8565b611b4b565b61044b610617366004614f53565b611cda565b61044b61062a36600461502d565b611f9e565b34801561063b57600080fd5b50610163546103bc9065010000000000900460ff1681565b61044b610661366004614f93565b61200c565b34801561067257600080fd5b5061044b61068136600461510b565b6120a2565b34801561069257600080fd5b506104136106a1366004614fcb565b612130565b61044b6106b4366004615073565b6121bb565b3480156106c557600080fd5b50610163546106ee9067010000000000000090046fffffffffffffffffffffffffffffffff1681565b6040516fffffffffffffffffffffffffffffffff90911681526020016103c8565b34801561071b57600080fd5b50610163546103bc906601000000000000900460ff1681565b34801561074057600080fd5b5061053c61270f81565b34801561075657600080fd5b5061053c610765366004614c8d565b612264565b34801561077657600080fd5b5061044b6122fe565b34801561078b57600080fd5b50610163546104f89062010000900461ffff1681565b3480156107ad57600080fd5b5061044b6107bc366004614fcb565b612362565b3480156107cd57600080fd5b5061044b6107dc366004614e9a565b6123c2565b61044b6107ef366004614f93565b61254b565b34801561080057600080fd5b5061041361080f366004614fcb565b6125e2565b34801561082057600080fd5b506097546001600160a01b0316610413565b34801561083e57600080fd5b506103e6612639565b34801561085357600080fd5b5061053c610862366004614c8d565b6001600160a01b0316600090815260cc602052604090205490565b34801561088957600080fd5b5061016054610161546108e9916fffffffffffffffffffffffffffffffff808216927001000000000000000000000000000000009283900482169267ffffffffffffffff8083169368010000000000000000840490911692919091041685565b604080516fffffffffffffffffffffffffffffffff9687168152948616602086015267ffffffffffffffff9384169085015291166060830152909116608082015260a0016103c8565b34801561093e57600080fd5b5061044b61094d366004614d8b565b612648565b34801561095e57600080fd5b5061044b61096d366004614d21565b612653565b34801561097e57600080fd5b506103e661098d366004614fcb565b6126e1565b34801561099e57600080fd5b50610163546109b590640100000000900460ff1681565b60405160ff90911681526020016103c8565b3480156109d357600080fd5b5061053c6109e2366004614c8d565b6001600160a01b0316600090815260cb602052604090205490565b348015610a0957600080fd5b506103e6612861565b348015610a1e57600080fd5b5061053c610a2d366004614c8d565b6001600160a01b0316600090815260ce602052604090205490565b348015610a5457600080fd5b5060ca5461053c565b348015610a6957600080fd5b506103bc610a78366004614ca9565b6001600160a01b039182166000908152606a6020908152604080832093909416825291909152205460ff1690565b61044b610ab4366004614e31565b6128f0565b348015610ac557600080fd5b5061053c6101645481565b348015610adc57600080fd5b5061044b610aeb366004614c8d565b612b78565b61044b610afe3660046150f1565b612c57565b348015610b0f57600080fd5b506103bc610b1e366004614fcb565b61015f6020526000908152604090205460ff1681565b60007fffffffff0000000000000000000000000000000000000000000000000000000082167f2a55205a000000000000000000000000000000000000000000000000000000001480610b8a5750610b8a82612d51565b92915050565b606060658054610b9f906153d5565b80601f0160208091040260200160405190810160405280929190818152602001828054610bcb906153d5565b8015610c185780601f10610bed57610100808354040283529160200191610c18565b820191906000526020600020905b815481529060010190602001808311610bfb57829003601f168201915b5050505050905090565b6000818152606760205260408120546001600160a01b0316610cb15760405162461bcd60e51b815260206004820152602c60248201527f4552433732313a20617070726f76656420717565727920666f72206e6f6e657860448201527f697374656e7420746f6b656e000000000000000000000000000000000000000060648201526084015b60405180910390fd5b506000908152606960205260409020546001600160a01b031690565b6000610cd882612130565b9050806001600160a01b0316836001600160a01b03161415610d625760405162461bcd60e51b815260206004820152602160248201527f4552433732313a20617070726f76616c20746f2063757272656e74206f776e6560448201527f72000000000000000000000000000000000000000000000000000000000000006064820152608401610ca8565b336001600160a01b0382161480610d7e5750610d7e8133610a78565b610df05760405162461bcd60e51b815260206004820152603860248201527f4552433732313a20617070726f76652063616c6c6572206973206e6f74206f7760448201527f6e6572206e6f7220617070726f76656420666f7220616c6c00000000000000006064820152608401610ca8565b610dfa8383612e34565b505050565b610163546601000000000000900460ff16610e5c5760405162461bcd60e51b815260206004820152600b60248201527f73616c65207061757365640000000000000000000000000000000000000000006044820152606401610ca8565b6101635465010000000000900460ff1615610eb95760405162461bcd60e51b815260206004820152601160248201527f75736520606d696e7441756374696f6e600000000000000000000000000000006044820152606401610ca8565b6101635467010000000000000090046fffffffffffffffffffffffffffffffff163414610f285760405162461bcd60e51b815260206004820152601460248201527f696e636f72726563742065746865722073656e740000000000000000000000006044820152606401610ca8565b610f3133612eba565b565b6001600160a01b038116600090815260cb6020526040902054610fbe5760405162461bcd60e51b815260206004820152602660248201527f5061796d656e7453706c69747465723a206163636f756e7420686173206e6f2060448201527f73686172657300000000000000000000000000000000000000000000000000006064820152608401610ca8565b6000610fc960ca5490565b610fd390476152f8565b905060006110008383610ffb866001600160a01b0316600090815260cc602052604090205490565b612f68565b9050806110755760405162461bcd60e51b815260206004820152602b60248201527f5061796d656e7453706c69747465723a206163636f756e74206973206e6f742060448201527f647565207061796d656e740000000000000000000000000000000000000000006064820152608401610ca8565b6001600160a01b038316600090815260cc60205260408120805483929061109d9084906152f8565b925050819055508060ca60008282546110b691906152f8565b909155506110c690508382612fb0565b604080516001600160a01b0385168152602081018390527fdf20fd1e76bc69d672e4814fafb2c449bba3a5369d8359adf9e05e6fde87b056910160405180910390a1505050565b61111733826130c9565b6111895760405162461bcd60e51b815260206004820152603160248201527f4552433732313a207472616e736665722063616c6c6572206973206e6f74206f60448201527f776e6572206e6f7220617070726f7665640000000000000000000000000000006064820152608401610ca8565b610dfa8383836131cd565b6000803060646111a5856006615324565b6111af9190615310565b915091505b9250929050565b610163546601000000000000900460ff166112185760405162461bcd60e51b815260206004820152600b60248201527f73616c65207061757365640000000000000000000000000000000000000000006044820152606401610ca8565b6101635465010000000000900460ff166112745760405162461bcd60e51b815260206004820152600a60248201527f75736520606d696e7460000000000000000000000000000000000000000000006044820152606401610ca8565b6101615467ffffffffffffffff1642116112d05760405162461bcd60e51b815260206004820152601b60248201527f61756374696f6e20686173206e6f7420737461727465642079657400000000006044820152606401610ca8565b6101615468010000000000000000900467ffffffffffffffff1642106113385760405162461bcd60e51b815260206004820152600f60248201527f61756374696f6e206578706972656400000000000000000000000000000000006044820152606401610ca8565b610161546000906113539067ffffffffffffffff1642615392565b9050600061136361012c83615310565b61016154611397919070010000000000000000000000000000000090046fffffffffffffffffffffffffffffffff16615324565b610160549091506000906113d3906fffffffffffffffffffffffffffffffff700100000000000000000000000000000000820481169116615361565b6fffffffffffffffffffffffffffffffff168211611411576101605461140c9083906fffffffffffffffffffffffffffffffff16615392565b61143c565b6101605470010000000000000000000000000000000090046fffffffffffffffffffffffffffffffff165b90508034101561148e5760405162461bcd60e51b815260206004820152601260248201527f696e73756666696369656e742066756e647300000000000000000000000000006044820152606401610ca8565b610dfa33612eba565b306001600160a01b037f00000000000000000000000000000000000000000000000000000000000000001614156115365760405162461bcd60e51b815260206004820152602c60248201527f46756e6374696f6e206d7573742062652063616c6c6564207468726f7567682060448201527f64656c656761746563616c6c00000000000000000000000000000000000000006064820152608401610ca8565b7f00000000000000000000000000000000000000000000000000000000000000006001600160a01b03166115917f360894a13ba1a3210667c828492db98dca3e2076cc3735a920a3ca505d382bbc546001600160a01b031690565b6001600160a01b03161461160d5760405162461bcd60e51b815260206004820152602c60248201527f46756e6374696f6e206d7573742062652063616c6c6564207468726f7567682060448201527f6163746976652070726f787900000000000000000000000000000000000000006064820152608401610ca8565b611616816133b2565b604080516000808252602082019092526116329183919061340c565b50565b6097546001600160a01b0316331461168f5760405162461bcd60e51b815260206004820181905260248201527f4f776e61626c653a2063616c6c6572206973206e6f7420746865206f776e65726044820152606401610ca8565b6040805160a080820183526fffffffffffffffffffffffffffffffff888116808452888216602080860182905267ffffffffffffffff8a8116878901819052908a1660608089018290528a87166080998a0181905270010000000000000000000000000000000080870288176101605561016180547fffffffffffffffffffffffffffffffff000000000000000000000000000000001686176801000000000000000086021790991690820217909755895195865292850193909352838801528201529283015291517fa22e3662a1d815d84eeb1f7a51cb16b6a593772c3d39c0288249eb41a2752954929181900390910190a15050505050565b6097546001600160a01b031633146117e45760405162461bcd60e51b815260206004820181905260248201527f4f776e61626c653a2063616c6c6572206973206e6f7420746865206f776e65726044820152606401610ca8565b6101635460ff640100000000909104811690821610156118465760405162461bcd60e51b815260206004820152601760248201527f6c657373207468616e2063757272656e7420696e6465780000000000000000006044820152606401610ca8565b610163805460ff909216640100000000027fffffffffffffffffffffffffffffffffffffffffffffffffffffff00ffffffff909216919091179055565b610dfa83838360405180602001604052806000815250612653565b6001600160a01b038116600090815260cb60205260409020546119295760405162461bcd60e51b815260206004820152602660248201527f5061796d656e7453706c69747465723a206163636f756e7420686173206e6f2060448201527f73686172657300000000000000000000000000000000000000000000000000006064820152608401610ca8565b6001600160a01b038216600090815260ce60205260408120546040517f70a082310000000000000000000000000000000000000000000000000000000081523060048201526001600160a01b038516906370a082319060240160206040518083038186803b15801561199a57600080fd5b505afa1580156119ae573d6000803e3d6000fd5b505050506040513d601f19601f820116820180604052508101906119d29190615150565b6119dc91906152f8565b90506000611a158383610ffb87876001600160a01b03918216600090815260cf6020908152604080832093909416825291909152205490565b905080611a8a5760405162461bcd60e51b815260206004820152602b60248201527f5061796d656e7453706c69747465723a206163636f756e74206973206e6f742060448201527f647565207061796d656e740000000000000000000000000000000000000000006064820152608401610ca8565b6001600160a01b03808516600090815260cf6020908152604080832093871683529290529081208054839290611ac19084906152f8565b90915550506001600160a01b038416600090815260ce602052604081208054839290611aee9084906152f8565b90915550611aff9050848483613605565b604080516001600160a01b038581168252602082018490528616917f3be5b7a71e84ed12875d241991c70855ac5817d847039e17a9d895c1ceb0f18a910160405180910390a250505050565b306001600160a01b037f0000000000000000000000000000000000000000000000000000000000000000161415611bea5760405162461bcd60e51b815260206004820152602c60248201527f46756e6374696f6e206d7573742062652063616c6c6564207468726f7567682060448201527f64656c656761746563616c6c00000000000000000000000000000000000000006064820152608401610ca8565b7f00000000000000000000000000000000000000000000000000000000000000006001600160a01b0316611c457f360894a13ba1a3210667c828492db98dca3e2076cc3735a920a3ca505d382bbc546001600160a01b031690565b6001600160a01b031614611cc15760405162461bcd60e51b815260206004820152602c60248201527f46756e6374696f6e206d7573742062652063616c6c6564207468726f7567682060448201527f6163746976652070726f787900000000000000000000000000000000000000006064820152608401610ca8565b611cca826133b2565b611cd68282600161340c565b5050565b604080513360601b7fffffffffffffffffffffffffffffffffffffffff000000000000000000000000166020808301919091528251601481840301815260349092019092528051910120611d619083838080602002602001604051908101604052809392919081815260200183836020028082843760009201919091525061368592505050565b611dad5760405162461bcd60e51b815260206004820152601460248201527f496e76616c6964206d65726b6c652070726f6f660000000000000000000000006044820152606401610ca8565b6101635465010000000000900460ff1615611e0a5760405162461bcd60e51b815260206004820152601160248201527f75736520606d696e7441756374696f6e600000000000000000000000000000006044820152606401610ca8565b6101635467010000000000000090046fffffffffffffffffffffffffffffffff163414611e795760405162461bcd60e51b815260206004820152601460248201527f696e636f72726563742065746865722073656e740000000000000000000000006044820152606401610ca8565b610163546040513360601b7fffffffffffffffffffffffffffffffffffffffff00000000000000000000000016602082015264010000000090910460f81b7fff0000000000000000000000000000000000000000000000000000000000000016603482015260009060350160408051601f198184030181529181528151602092830120600081815261015f90935291205490915060ff1615611f5d5760405162461bcd60e51b815260206004820152600760248201527f636c61696d6564000000000000000000000000000000000000000000000000006044820152606401610ca8565b600081815261015f6020526040902080547fffffffffffffffffffffffffffffffffffffffffffffffffffffffffffffff00166001179055610dfa33612eba565b6097546001600160a01b03163314611ff85760405162461bcd60e51b815260206004820181905260248201527f4f776e61626c653a2063616c6c6572206973206e6f7420746865206f776e65726044820152606401610ca8565b8051611cd690610162906020840190614a6b565b6097546001600160a01b031633146120665760405162461bcd60e51b815260206004820181905260248201527f4f776e61626c653a2063616c6c6572206973206e6f7420746865206f776e65726044820152606401610ca8565b610163805491151565010000000000027fffffffffffffffffffffffffffffffffffffffffffffffffffff00ffffffffff909216919091179055565b6097546001600160a01b031633146120fc5760405162461bcd60e51b815260206004820181905260248201527f4f776e61626c653a2063616c6c6572206973206e6f7420746865206f776e65726044820152606401610ca8565b61210584612362565b61210e8361178a565b6121178261254b565b612120816121bb565b61212985612c57565b5050505050565b6000818152606760205260408120546001600160a01b031680610b8a5760405162461bcd60e51b815260206004820152602960248201527f4552433732313a206f776e657220717565727920666f72206e6f6e657869737460448201527f656e7420746f6b656e00000000000000000000000000000000000000000000006064820152608401610ca8565b6097546001600160a01b031633146122155760405162461bcd60e51b815260206004820181905260248201527f4f776e61626c653a2063616c6c6572206973206e6f7420746865206f776e65726044820152606401610ca8565b61016380546fffffffffffffffffffffffffffffffff909216670100000000000000027fffffffffffffffffff00000000000000000000000000000000ffffffffffffff909216919091179055565b60006001600160a01b0382166122e25760405162461bcd60e51b815260206004820152602a60248201527f4552433732313a2062616c616e636520717565727920666f7220746865207a6560448201527f726f2061646472657373000000000000000000000000000000000000000000006064820152608401610ca8565b506001600160a01b031660009081526068602052604090205490565b6097546001600160a01b031633146123585760405162461bcd60e51b815260206004820181905260248201527f4f776e61626c653a2063616c6c6572206973206e6f7420746865206f776e65726044820152606401610ca8565b610f316000613695565b6097546001600160a01b031633146123bc5760405162461bcd60e51b815260206004820181905260248201527f4f776e61626c653a2063616c6c6572206973206e6f7420746865206f776e65726044820152606401610ca8565b61016455565b600054610100900460ff166123dd5760005460ff16156123e1565b303b155b6124535760405162461bcd60e51b815260206004820152602e60248201527f496e697469616c697a61626c653a20636f6e747261637420697320616c72656160448201527f647920696e697469616c697a65640000000000000000000000000000000000006064820152608401610ca8565b600054610100900460ff1615801561249257600080547fffffffffffffffffffffffffffffffffffffffffffffffffffffffffffff0000166101011790555b61249a6136ff565b61250e6040518060400160405280601b81526020017f57726973742041666963696f6e61646f20576174636820436c756200000000008152506040518060400160405280600481526020017f574157430000000000000000000000000000000000000000000000000000000081525061378c565b6125188383613823565b8015610dfa57600080547fffffffffffffffffffffffffffffffffffffffffffffffffffffffffffff00ff169055505050565b6097546001600160a01b031633146125a55760405162461bcd60e51b815260206004820181905260248201527f4f776e61626c653a2063616c6c6572206973206e6f7420746865206f776e65726044820152606401610ca8565b61016380549115156601000000000000027fffffffffffffffffffffffffffffffffffffffffffffffffff00ffffffffffff909216919091179055565b600060cd828154811061261e577f4e487b7100000000000000000000000000000000000000000000000000000000600052603260045260246000fd5b6000918252602090912001546001600160a01b031692915050565b606060668054610b9f906153d5565b611cd63383836138b2565b61265d33836130c9565b6126cf5760405162461bcd60e51b815260206004820152603160248201527f4552433732313a207472616e736665722063616c6c6572206973206e6f74206f60448201527f776e6572206e6f7220617070726f7665640000000000000000000000000000006064820152608401610ca8565b6126db8484848461399f565b50505050565b6000818152606760205260409020546060906001600160a01b03166127485760405162461bcd60e51b815260206004820152601f60248201527f55524920717565727920666f72206e6f6e6578697374656e7420746f6b656e006044820152606401610ca8565b60408051808201909152600581527f2e6a736f6e000000000000000000000000000000000000000000000000000000602082015261016280546000919061278e906153d5565b80601f01602080910402602001604051908101604052809291908181526020018280546127ba906153d5565b80156128075780601f106127dc57610100808354040283529160200191612807565b820191906000526020600020905b8154815290600101906020018083116127ea57829003601f168201915b50505050509050600081511161282c5760405180602001604052806000815250612859565b8061283685613a28565b83604051602001612849939291906151eb565b6040516020818303038152906040525b949350505050565b610162805461286f906153d5565b80601f016020809104026020016040519081016040528092919081815260200182805461289b906153d5565b80156128e85780601f106128bd576101008083540402835291602001916128e8565b820191906000526020600020905b8154815290600101906020018083116128cb57829003601f168201915b505050505081565b6097546001600160a01b0316331461294a5760405162461bcd60e51b815260206004820181905260248201527f4f776e61626c653a2063616c6c6572206973206e6f7420746865206f776e65726044820152606401610ca8565b8281146129995760405162461bcd60e51b815260206004820152600e60248201527f5b5d2064696666206c656e6774680000000000000000000000000000000000006044820152606401610ca8565b61016354839062010000900461ffff1660005b8261ffff168161ffff161015612b3657600087878361ffff168181106129fb577f4e487b7100000000000000000000000000000000000000000000000000000000600052603260045260246000fd5b9050602002016020810190612a109190614c8d565b9050600086868461ffff16818110612a51577f4e487b7100000000000000000000000000000000000000000000000000000000600052603260045260246000fd5b9050602002016020810190612a6691906150f1565b61016354909150612a7c9061ffff1660016152d2565b61ffff16612a8a82866152d2565b61ffff161115612adc5760405162461bcd60e51b815260206004820152601460248201527f6578636565647320746f6b656e20737570706c790000000000000000000000006044820152606401610ca8565b60005b8161ffff168161ffff161015612b1657612b0683612afd83886152d2565b61ffff16613ba8565b612b0f81615429565b9050612adf565b50612b2181856152d2565b9350505080612b2f90615429565b90506129ac565b50610163805461ffff90921662010000027fffffffffffffffffffffffffffffffffffffffffffffffffffffffff0000ffff9092169190911790555050505050565b6097546001600160a01b03163314612bd25760405162461bcd60e51b815260206004820181905260248201527f4f776e61626c653a2063616c6c6572206973206e6f7420746865206f776e65726044820152606401610ca8565b6001600160a01b038116612c4e5760405162461bcd60e51b815260206004820152602660248201527f4f776e61626c653a206e6577206f776e657220697320746865207a65726f206160448201527f64647265737300000000000000000000000000000000000000000000000000006064820152608401610ca8565b61163281613695565b6097546001600160a01b03163314612cb15760405162461bcd60e51b815260206004820181905260248201527f4f776e61626c653a2063616c6c6572206973206e6f7420746865206f776e65726044820152606401610ca8565b6101635461270f90612cc890839061ffff166152d2565b61ffff161115612d1a5760405162461bcd60e51b815260206004820152601b60248201527f63616e6e6f742062652067726561746572207468616e203939393900000000006044820152606401610ca8565b6101638054829190600090612d3490849061ffff166152d2565b92506101000a81548161ffff021916908361ffff16021790555050565b60007fffffffff0000000000000000000000000000000000000000000000000000000082167f80ac58cd000000000000000000000000000000000000000000000000000000001480612de457507fffffffff0000000000000000000000000000000000000000000000000000000082167f5b5e139f00000000000000000000000000000000000000000000000000000000145b80610b8a57507f01ffc9a7000000000000000000000000000000000000000000000000000000007fffffffff00000000000000000000000000000000000000000000000000000000831614610b8a565b600081815260696020526040902080547fffffffffffffffffffffffff0000000000000000000000000000000000000000166001600160a01b0384169081179091558190612e8182612130565b6001600160a01b03167f8c5be1e5ebec7d5bd14f71427d1e84f3dd0314c0f7b2291e5b200ac8c7c3b92560405160405180910390a45050565b6101635461ffff62010000820481169116811115612f1a5760405162461bcd60e51b815260206004820152601460248201527f6578636565647320746f6b656e20737570706c790000000000000000000000006044820152606401610ca8565b612f248282613ba8565b50506101638054600161ffff6201000080840482169290920116027fffffffffffffffffffffffffffffffffffffffffffffffffffffffff0000ffff909116179055565b60c9546001600160a01b038416600090815260cb602052604081205490918391612f929086615324565b612f9c9190615310565b612fa69190615392565b90505b9392505050565b804710156130005760405162461bcd60e51b815260206004820152601d60248201527f416464726573733a20696e73756666696369656e742062616c616e63650000006044820152606401610ca8565b6000826001600160a01b03168260405160006040518083038185875af1925050503d806000811461304d576040519150601f19603f3d011682016040523d82523d6000602084013e613052565b606091505b5050905080610dfa5760405162461bcd60e51b815260206004820152603a60248201527f416464726573733a20756e61626c6520746f2073656e642076616c75652c207260448201527f6563697069656e74206d617920686176652072657665727465640000000000006064820152608401610ca8565b6000818152606760205260408120546001600160a01b03166131535760405162461bcd60e51b815260206004820152602c60248201527f4552433732313a206f70657261746f7220717565727920666f72206e6f6e657860448201527f697374656e7420746f6b656e00000000000000000000000000000000000000006064820152608401610ca8565b600061315e83612130565b9050806001600160a01b0316846001600160a01b031614806131995750836001600160a01b031661318e84610c22565b6001600160a01b0316145b8061285957506001600160a01b038082166000908152606a602090815260408083209388168352929052205460ff16612859565b826001600160a01b03166131e082612130565b6001600160a01b03161461325c5760405162461bcd60e51b815260206004820152602960248201527f4552433732313a207472616e73666572206f6620746f6b656e2074686174206960448201527f73206e6f74206f776e00000000000000000000000000000000000000000000006064820152608401610ca8565b6001600160a01b0382166132d75760405162461bcd60e51b8152602060048201526024808201527f4552433732313a207472616e7366657220746f20746865207a65726f2061646460448201527f72657373000000000000000000000000000000000000000000000000000000006064820152608401610ca8565b6132e2600082612e34565b6001600160a01b038316600090815260686020526040812080546001929061330b908490615392565b90915550506001600160a01b03821660009081526068602052604081208054600192906133399084906152f8565b909155505060008181526067602052604080822080547fffffffffffffffffffffffff0000000000000000000000000000000000000000166001600160a01b0386811691821790925591518493918716917fddf252ad1be2c89b69c2b068fc378daa952ba7f163c4a11628f55a4df523b3ef91a4505050565b6097546001600160a01b031633146116325760405162461bcd60e51b815260206004820181905260248201527f4f776e61626c653a2063616c6c6572206973206e6f7420746865206f776e65726044820152606401610ca8565b600061343f7f360894a13ba1a3210667c828492db98dca3e2076cc3735a920a3ca505d382bbc546001600160a01b031690565b905061344a84613bc2565b6000835111806134575750815b15613468576134668484613c8f565b505b7f4910fdfa16fed3260ed0e7147f7cc6da11a60208b5b9406d12a635614ffd9143805460ff166121295780547fffffffffffffffffffffffffffffffffffffffffffffffffffffffffffffff001660011781556040516001600160a01b038316602482015261353390869060440160408051601f198184030181529190526020810180517bffffffffffffffffffffffffffffffffffffffffffffffffffffffff167f3659cfe600000000000000000000000000000000000000000000000000000000179052613c8f565b5080547fffffffffffffffffffffffffffffffffffffffffffffffffffffffffffffff001681557f360894a13ba1a3210667c828492db98dca3e2076cc3735a920a3ca505d382bbc546001600160a01b038381169116146135fc5760405162461bcd60e51b815260206004820152602f60248201527f45524331393637557067726164653a207570677261646520627265616b73206660448201527f75727468657220757067726164657300000000000000000000000000000000006064820152608401610ca8565b61212985613d91565b604080516001600160a01b038416602482015260448082018490528251808303909101815260649091019091526020810180517bffffffffffffffffffffffffffffffffffffffffffffffffffffffff167fa9059cbb00000000000000000000000000000000000000000000000000000000179052610dfa908490613dd1565b6000612fa9826101645485613eb6565b609780546001600160a01b038381167fffffffffffffffffffffffff0000000000000000000000000000000000000000831681179093556040519116919082907f8be0079c531659141344cd1fd0a4f28419497f9722a3daafe3b4186f6b6457e090600090a35050565b600054610100900460ff1661377c5760405162461bcd60e51b815260206004820152602b60248201527f496e697469616c697a61626c653a20636f6e7472616374206973206e6f74206960448201527f6e697469616c697a696e670000000000000000000000000000000000000000006064820152608401610ca8565b613784613ecc565b610f31613f49565b600054610100900460ff166138095760405162461bcd60e51b815260206004820152602b60248201527f496e697469616c697a61626c653a20636f6e7472616374206973206e6f74206960448201527f6e697469616c697a696e670000000000000000000000000000000000000000006064820152608401610ca8565b613811613ecc565b613819613ecc565b611cd68282613fcf565b600054610100900460ff166138a05760405162461bcd60e51b815260206004820152602b60248201527f496e697469616c697a61626c653a20636f6e7472616374206973206e6f74206960448201527f6e697469616c697a696e670000000000000000000000000000000000000000006064820152608401610ca8565b6138a8613ecc565b611cd68282614073565b816001600160a01b0316836001600160a01b031614156139145760405162461bcd60e51b815260206004820152601960248201527f4552433732313a20617070726f766520746f2063616c6c6572000000000000006044820152606401610ca8565b6001600160a01b038381166000818152606a602090815260408083209487168084529482529182902080547fffffffffffffffffffffffffffffffffffffffffffffffffffffffffffffff001686151590811790915591519182527f17307eab39ab6107e8899845ad3d59bd9653f200f220920489ca2b5937696c31910160405180910390a3505050565b6139aa8484846131cd565b6139b684848484614260565b6126db5760405162461bcd60e51b815260206004820152603260248201527f4552433732313a207472616e7366657220746f206e6f6e20455243373231526560448201527f63656976657220696d706c656d656e74657200000000000000000000000000006064820152608401610ca8565b606081613a6857505060408051808201909152600181527f3000000000000000000000000000000000000000000000000000000000000000602082015290565b8160005b8115613a925780613a7c8161544b565b9150613a8b9050600a83615310565b9150613a6c565b60008167ffffffffffffffff811115613ad4577f4e487b7100000000000000000000000000000000000000000000000000000000600052604160045260246000fd5b6040519080825280601f01601f191660200182016040528015613afe576020820181803683370190505b5090505b841561285957613b13600183615392565b9150613b20600a86615484565b613b2b9060306152f8565b60f81b818381518110613b67577f4e487b7100000000000000000000000000000000000000000000000000000000600052603260045260246000fd5b60200101907effffffffffffffffffffffffffffffffffffffffffffffffffffffffffffff1916908160001a905350613ba1600a86615310565b9450613b02565b611cd682826040518060200160405280600081525061440d565b803b613c365760405162461bcd60e51b815260206004820152602d60248201527f455243313936373a206e657720696d706c656d656e746174696f6e206973206e60448201527f6f74206120636f6e7472616374000000000000000000000000000000000000006064820152608401610ca8565b7f360894a13ba1a3210667c828492db98dca3e2076cc3735a920a3ca505d382bbc80547fffffffffffffffffffffffff0000000000000000000000000000000000000000166001600160a01b0392909216919091179055565b6060823b613d055760405162461bcd60e51b815260206004820152602660248201527f416464726573733a2064656c65676174652063616c6c20746f206e6f6e2d636f60448201527f6e747261637400000000000000000000000000000000000000000000000000006064820152608401610ca8565b600080846001600160a01b031684604051613d2091906151cf565b600060405180830381855af49150503d8060008114613d5b576040519150601f19603f3d011682016040523d82523d6000602084013e613d60565b606091505b5091509150613d88828260405180606001604052806027815260200161557760279139614496565b95945050505050565b613d9a81613bc2565b6040516001600160a01b038216907fbc7cd75a20ee27fd9adebab32041f755214dbc6bffa90cc0225b39da2e5c2d3b90600090a250565b6000613e26826040518060400160405280602081526020017f5361666545524332303a206c6f772d6c6576656c2063616c6c206661696c6564815250856001600160a01b03166144cf9092919063ffffffff16565b805190915015610dfa5780806020019051810190613e449190614faf565b610dfa5760405162461bcd60e51b815260206004820152602a60248201527f5361666545524332303a204552433230206f7065726174696f6e20646964206e60448201527f6f742073756363656564000000000000000000000000000000000000000000006064820152608401610ca8565b600082613ec385846144de565b14949350505050565b600054610100900460ff16610f315760405162461bcd60e51b815260206004820152602b60248201527f496e697469616c697a61626c653a20636f6e7472616374206973206e6f74206960448201527f6e697469616c697a696e670000000000000000000000000000000000000000006064820152608401610ca8565b600054610100900460ff16613fc65760405162461bcd60e51b815260206004820152602b60248201527f496e697469616c697a61626c653a20636f6e7472616374206973206e6f74206960448201527f6e697469616c697a696e670000000000000000000000000000000000000000006064820152608401610ca8565b610f3133613695565b600054610100900460ff1661404c5760405162461bcd60e51b815260206004820152602b60248201527f496e697469616c697a61626c653a20636f6e7472616374206973206e6f74206960448201527f6e697469616c697a696e670000000000000000000000000000000000000000006064820152608401610ca8565b815161405f906065906020850190614a6b565b508051610dfa906066906020840190614a6b565b600054610100900460ff166140f05760405162461bcd60e51b815260206004820152602b60248201527f496e697469616c697a61626c653a20636f6e7472616374206973206e6f74206960448201527f6e697469616c697a696e670000000000000000000000000000000000000000006064820152608401610ca8565b80518251146141675760405162461bcd60e51b815260206004820152603260248201527f5061796d656e7453706c69747465723a2070617965657320616e64207368617260448201527f6573206c656e677468206d69736d6174636800000000000000000000000000006064820152608401610ca8565b60008251116141b85760405162461bcd60e51b815260206004820152601a60248201527f5061796d656e7453706c69747465723a206e6f207061796565730000000000006044820152606401610ca8565b60005b8251811015610dfa5761424e838281518110614200577f4e487b7100000000000000000000000000000000000000000000000000000000600052603260045260246000fd5b6020026020010151838381518110614241577f4e487b7100000000000000000000000000000000000000000000000000000000600052603260045260246000fd5b60200260200101516145b1565b806142588161544b565b9150506141bb565b60006001600160a01b0384163b15614402576040517f150b7a020000000000000000000000000000000000000000000000000000000081526001600160a01b0385169063150b7a02906142bd90339089908890889060040161522e565b602060405180830381600087803b1580156142d757600080fd5b505af1925050508015614307575060408051601f3d908101601f1916820190925261430491810190614fff565b60015b6143b7573d808015614335576040519150601f19603f3d011682016040523d82523d6000602084013e61433a565b606091505b5080516143af5760405162461bcd60e51b815260206004820152603260248201527f4552433732313a207472616e7366657220746f206e6f6e20455243373231526560448201527f63656976657220696d706c656d656e74657200000000000000000000000000006064820152608401610ca8565b805181602001fd5b7fffffffff00000000000000000000000000000000000000000000000000000000167f150b7a0200000000000000000000000000000000000000000000000000000000149050612859565b506001949350505050565b61441783836147d2565b6144246000848484614260565b610dfa5760405162461bcd60e51b815260206004820152603260248201527f4552433732313a207472616e7366657220746f206e6f6e20455243373231526560448201527f63656976657220696d706c656d656e74657200000000000000000000000000006064820152608401610ca8565b606083156144a5575081612fa9565b8251156144b55782518084602001fd5b8160405162461bcd60e51b8152600401610ca8919061526a565b6060612fa6848460008561492c565b600081815b84518110156145a9576000858281518110614527577f4e487b7100000000000000000000000000000000000000000000000000000000600052603260045260246000fd5b60200260200101519050808311614569576040805160208101859052908101829052606001604051602081830303815290604052805190602001209250614596565b60408051602081018390529081018490526060016040516020818303038152906040528051906020012092505b50806145a18161544b565b9150506144e3565b509392505050565b6001600160a01b03821661462d5760405162461bcd60e51b815260206004820152602c60248201527f5061796d656e7453706c69747465723a206163636f756e74206973207468652060448201527f7a65726f206164647265737300000000000000000000000000000000000000006064820152608401610ca8565b6000811161467d5760405162461bcd60e51b815260206004820152601d60248201527f5061796d656e7453706c69747465723a207368617265732061726520300000006044820152606401610ca8565b6001600160a01b038216600090815260cb6020526040902054156147095760405162461bcd60e51b815260206004820152602b60248201527f5061796d656e7453706c69747465723a206163636f756e7420616c726561647960448201527f20686173207368617265730000000000000000000000000000000000000000006064820152608401610ca8565b60cd8054600181019091557f83978b4c69c48dd978ab43fe30f077615294f938fb7f936d9eb340e51ea7db2e0180547fffffffffffffffffffffffff0000000000000000000000000000000000000000166001600160a01b038416908117909155600090815260cb6020526040902081905560c9546147899082906152f8565b60c955604080516001600160a01b0384168152602081018390527f40c340f65e17194d14ddddb073d3c9f888e3cb52b5aae0c6c7706b4fbc905fac910160405180910390a15050565b6001600160a01b0382166148285760405162461bcd60e51b815260206004820181905260248201527f4552433732313a206d696e7420746f20746865207a65726f20616464726573736044820152606401610ca8565b6000818152606760205260409020546001600160a01b03161561488d5760405162461bcd60e51b815260206004820152601c60248201527f4552433732313a20746f6b656e20616c7265616479206d696e746564000000006044820152606401610ca8565b6001600160a01b03821660009081526068602052604081208054600192906148b69084906152f8565b909155505060008181526067602052604080822080547fffffffffffffffffffffffff0000000000000000000000000000000000000000166001600160a01b03861690811790915590518392907fddf252ad1be2c89b69c2b068fc378daa952ba7f163c4a11628f55a4df523b3ef908290a45050565b6060824710156149a45760405162461bcd60e51b815260206004820152602660248201527f416464726573733a20696e73756666696369656e742062616c616e636520666f60448201527f722063616c6c00000000000000000000000000000000000000000000000000006064820152608401610ca8565b843b6149f25760405162461bcd60e51b815260206004820152601d60248201527f416464726573733a2063616c6c20746f206e6f6e2d636f6e74726163740000006044820152606401610ca8565b600080866001600160a01b03168587604051614a0e91906151cf565b60006040518083038185875af1925050503d8060008114614a4b576040519150601f19603f3d011682016040523d82523d6000602084013e614a50565b606091505b5091509150614a60828286614496565b979650505050505050565b828054614a77906153d5565b90600052602060002090601f016020900481019282614a995760008555614adf565b82601f10614ab257805160ff1916838001178555614adf565b82800160010185558215614adf579182015b82811115614adf578251825591602001919060010190614ac4565b50614aeb929150614aef565b5090565b5b80821115614aeb5760008155600101614af0565b600067ffffffffffffffff831115614b1e57614b1e6154f6565b614b316020601f19601f8601160161527d565b9050828152838383011115614b4557600080fd5b828260208301376000602084830101529392505050565b60008083601f840112614b6d578182fd5b50813567ffffffffffffffff811115614b84578182fd5b6020830191508360208260051b85010111156111b457600080fd5b600082601f830112614baf578081fd5b81356020614bc4614bbf836152ae565b61527d565b80838252828201915082860187848660051b8901011115614be3578586fd5b855b85811015614c0157813584529284019290840190600101614be5565b5090979650505050505050565b600082601f830112614c1e578081fd5b612fa983833560208501614b04565b80356fffffffffffffffffffffffffffffffff81168114614c4d57600080fd5b919050565b803561ffff81168114614c4d57600080fd5b803567ffffffffffffffff81168114614c4d57600080fd5b803560ff81168114614c4d57600080fd5b600060208284031215614c9e578081fd5b8135612fa981615525565b60008060408385031215614cbb578081fd5b8235614cc681615525565b91506020830135614cd681615525565b809150509250929050565b600080600060608486031215614cf5578081fd5b8335614d0081615525565b92506020840135614d1081615525565b929592945050506040919091013590565b60008060008060808587031215614d36578182fd5b8435614d4181615525565b93506020850135614d5181615525565b925060408501359150606085013567ffffffffffffffff811115614d73578182fd5b614d7f87828801614c0e565b91505092959194509250565b60008060408385031215614d9d578182fd5b8235614da881615525565b91506020830135614cd68161553a565b60008060408385031215614dca578182fd5b8235614dd581615525565b9150602083013567ffffffffffffffff811115614df0578182fd5b614dfc85828601614c0e565b9150509250929050565b60008060408385031215614e18578182fd5b8235614e2381615525565b946020939093013593505050565b60008060008060408587031215614e46578182fd5b843567ffffffffffffffff80821115614e5d578384fd5b614e6988838901614b5c565b90965094506020870135915080821115614e81578384fd5b50614e8e87828801614b5c565b95989497509550505050565b60008060408385031215614eac578182fd5b823567ffffffffffffffff80821115614ec3578384fd5b818501915085601f830112614ed6578384fd5b81356020614ee6614bbf836152ae565b8083825282820191508286018a848660051b8901011115614f05578889fd5b8896505b84871015614f30578035614f1c81615525565b835260019690960195918301918301614f09565b5096505086013592505080821115614f46578283fd5b50614dfc85828601614b9f565b60008060208385031215614f65578182fd5b823567ffffffffffffffff811115614f7b578283fd5b614f8785828601614b5c565b90969095509350505050565b600060208284031215614fa4578081fd5b8135612fa98161553a565b600060208284031215614fc0578081fd5b8151612fa98161553a565b600060208284031215614fdc578081fd5b5035919050565b600060208284031215614ff4578081fd5b8135612fa981615548565b600060208284031215615010578081fd5b8151612fa981615548565b60008060408385031215614cbb578182fd5b60006020828403121561503e578081fd5b813567ffffffffffffffff811115615054578182fd5b8201601f81018413615064578182fd5b61285984823560208401614b04565b600060208284031215615084578081fd5b612fa982614c2d565b600080600080600060a086880312156150a4578283fd5b6150ad86614c2d565b94506150bb60208701614c2d565b93506150c960408701614c64565b92506150d760608701614c64565b91506150e560808701614c2d565b90509295509295909350565b600060208284031215615102578081fd5b612fa982614c52565b600080600080600060a08688031215615122578283fd5b61512b86614c52565b94506020860135935061514060408701614c7c565b925060608601356150d78161553a565b600060208284031215615161578081fd5b5051919050565b6000806040838503121561517a578182fd5b50508035926020909101359150565b60006020828403121561519a578081fd5b612fa982614c7c565b600081518084526151bb8160208601602086016153a9565b601f01601f19169290920160200192915050565b600082516151e18184602087016153a9565b9190910192915050565b600084516151fd8184602089016153a9565b8451908301906152118183602089016153a9565b84519101906152248183602088016153a9565b0195945050505050565b60006001600160a01b0380871683528086166020840152508360408301526080606083015261526060808301846151a3565b9695505050505050565b602081526000612fa960208301846151a3565b604051601f8201601f1916810167ffffffffffffffff811182821017156152a6576152a66154f6565b604052919050565b600067ffffffffffffffff8211156152c8576152c86154f6565b5060051b60200190565b600061ffff8083168185168083038211156152ef576152ef615498565b01949350505050565b6000821982111561530b5761530b615498565b500190565b60008261531f5761531f6154c7565b500490565b6000817fffffffffffffffffffffffffffffffffffffffffffffffffffffffffffffffff048311821515161561535c5761535c615498565b500290565b60006fffffffffffffffffffffffffffffffff8381169083168181101561538a5761538a615498565b039392505050565b6000828210156153a4576153a4615498565b500390565b60005b838110156153c45781810151838201526020016153ac565b838111156126db5750506000910152565b600181811c908216806153e957607f821691505b60208210811415615423577f4e487b7100000000000000000000000000000000000000000000000000000000600052602260045260246000fd5b50919050565b600061ffff8083168181141561544157615441615498565b6001019392505050565b60007fffffffffffffffffffffffffffffffffffffffffffffffffffffffffffffffff82141561547d5761547d615498565b5060010190565b600082615493576154936154c7565b500690565b7f4e487b7100000000000000000000000000000000000000000000000000000000600052601160045260246000fd5b7f4e487b7100000000000000000000000000000000000000000000000000000000600052601260045260246000fd5b7f4e487b7100000000000000000000000000000000000000000000000000000000600052604160045260246000fd5b6001600160a01b038116811461163257600080fd5b801515811461163257600080fd5b7fffffffff000000000000000000000000000000000000000000000000000000008116811461163257600080fdfe416464726573733a206c6f772d6c6576656c2064656c65676174652063616c6c206661696c6564a2646970667358221220e6551d7179b71a39128de6c84710d8cfe67c3244a737afca2f57c5e9d7194a3464736f6c63430008040033",
    "linkReferences": {},
    "deployedLinkReferences": {}
}