{
  "_format": "hh-sol-artifact-1",
  "contractName": "WristAficionadoWatchClub",
  "sourceName": "contracts/Wristables.sol",
  "abi": [
    {
      "anonymous": false,
      "inputs": [
        {
          "indexed": false,
          "internalType": "address",
          "name": "previousAdmin",
          "type": "address"
        },
        {
          "indexed": false,
          "internalType": "address",
          "name": "newAdmin",
          "type": "address"
        }
      ],
      "name": "AdminChanged",
      "type": "event"
    },
    {
      "anonymous": false,
      "inputs": [
        {
          "indexed": true,
          "internalType": "address",
          "name": "owner",
          "type": "address"
        },
        {
          "indexed": true,
          "internalType": "address",
          "name": "approved",
          "type": "address"
        },
        {
          "indexed": true,
          "internalType": "uint256",
          "name": "tokenId",
          "type": "uint256"
        }
      ],
      "name": "Approval",
      "type": "event"
    },
    {
      "anonymous": false,
      "inputs": [
        {
          "indexed": true,
          "internalType": "address",
          "name": "owner",
          "type": "address"
        },
        {
          "indexed": true,
          "internalType": "address",
          "name": "operator",
          "type": "address"
        },
        {
          "indexed": false,
          "internalType": "bool",
          "name": "approved",
          "type": "bool"
        }
      ],
      "name": "ApprovalForAll",
      "type": "event"
    },
    {
      "anonymous": false,
      "inputs": [
        {
          "indexed": true,
          "internalType": "address",
          "name": "beacon",
          "type": "address"
        }
      ],
      "name": "BeaconUpgraded",
      "type": "event"
    },
    {
      "anonymous": false,
      "inputs": [
        {
          "indexed": true,
          "internalType": "contract IERC20Upgradeable",
          "name": "token",
          "type": "address"
        },
        {
          "indexed": false,
          "internalType": "address",
          "name": "to",
          "type": "address"
        },
        {
          "indexed": false,
          "internalType": "uint256",
          "name": "amount",
          "type": "uint256"
        }
      ],
      "name": "ERC20PaymentReleased",
      "type": "event"
    },
    {
      "anonymous": false,
      "inputs": [
        {
          "indexed": false,
          "internalType": "uint256",
          "name": "startingPrice",
          "type": "uint256"
        },
        {
          "indexed": false,
          "internalType": "uint256",
          "name": "floorPrice",
          "type": "uint256"
        },
        {
          "indexed": false,
          "internalType": "uint256",
          "name": "startAt",
          "type": "uint256"
        },
        {
          "indexed": false,
          "internalType": "uint256",
          "name": "expiresAt",
          "type": "uint256"
        },
        {
          "indexed": false,
          "internalType": "uint256",
          "name": "priceDeductionRate",
          "type": "uint256"
        }
      ],
      "name": "NewDutchAuction",
      "type": "event"
    },
    {
      "anonymous": false,
      "inputs": [
        {
          "indexed": true,
          "internalType": "address",
          "name": "previousOwner",
          "type": "address"
        },
        {
          "indexed": true,
          "internalType": "address",
          "name": "newOwner",
          "type": "address"
        }
      ],
      "name": "OwnershipTransferred",
      "type": "event"
    },
    {
      "anonymous": false,
      "inputs": [
        {
          "indexed": false,
          "internalType": "address",
          "name": "account",
          "type": "address"
        },
        {
          "indexed": false,
          "internalType": "uint256",
          "name": "shares",
          "type": "uint256"
        }
      ],
      "name": "PayeeAdded",
      "type": "event"
    },
    {
      "anonymous": false,
      "inputs": [
        {
          "indexed": false,
          "internalType": "address",
          "name": "from",
          "type": "address"
        },
        {
          "indexed": false,
          "internalType": "uint256",
          "name": "amount",
          "type": "uint256"
        }
      ],
      "name": "PaymentReceived",
      "type": "event"
    },
    {
      "anonymous": false,
      "inputs": [
        {
          "indexed": false,
          "internalType": "address",
          "name": "to",
          "type": "address"
        },
        {
          "indexed": false,
          "internalType": "uint256",
          "name": "amount",
          "type": "uint256"
        }
      ],
      "name": "PaymentReleased",
      "type": "event"
    },
    {
      "anonymous": false,
      "inputs": [
        {
          "indexed": true,
          "internalType": "address",
          "name": "from",
          "type": "address"
        },
        {
          "indexed": true,
          "internalType": "address",
          "name": "to",
          "type": "address"
        },
        {
          "indexed": true,
          "internalType": "uint256",
          "name": "tokenId",
          "type": "uint256"
        }
      ],
      "name": "Transfer",
      "type": "event"
    },
    {
      "anonymous": false,
      "inputs": [
        {
          "indexed": true,
          "internalType": "address",
          "name": "implementation",
          "type": "address"
        }
      ],
      "name": "Upgraded",
      "type": "event"
    },
    {
      "inputs": [],
      "name": "MAX_SUPPLY",
      "outputs": [
        {
          "internalType": "uint256",
          "name": "",
          "type": "uint256"
        }
      ],
      "stateMutability": "view",
      "type": "function"
    },
    {
      "inputs": [
        {
          "internalType": "uint256",
          "name": "availableSupplyIncrease",
          "type": "uint256"
        }
      ],
      "name": "addAvailableSupply",
      "outputs": [],
      "stateMutability": "payable",
      "type": "function"
    },
    {
      "inputs": [
        {
          "internalType": "address",
          "name": "to",
          "type": "address"
        },
        {
          "internalType": "uint256",
          "name": "tokenId",
          "type": "uint256"
        }
      ],
      "name": "approve",
      "outputs": [],
      "stateMutability": "nonpayable",
      "type": "function"
    },
    {
      "inputs": [],
      "name": "availableSupply",
      "outputs": [
        {
          "internalType": "uint256",
          "name": "",
          "type": "uint256"
        }
      ],
      "stateMutability": "view",
      "type": "function"
    },
    {
      "inputs": [
        {
          "internalType": "address",
          "name": "owner",
          "type": "address"
        }
      ],
      "name": "balanceOf",
      "outputs": [
        {
          "internalType": "uint256",
          "name": "",
          "type": "uint256"
        }
      ],
      "stateMutability": "view",
      "type": "function"
    },
    {
      "inputs": [
        {
          "internalType": "address[]",
          "name": "to",
          "type": "address[]"
        },
        {
          "internalType": "uint256[]",
          "name": "quantity",
          "type": "uint256[]"
        }
      ],
      "name": "batchAirdrop",
      "outputs": [],
      "stateMutability": "payable",
      "type": "function"
    },
    {
      "inputs": [
        {
          "internalType": "address",
          "name": "",
          "type": "address"
        },
        {
          "internalType": "uint256",
          "name": "",
          "type": "uint256"
        }
      ],
      "name": "claimedWL",
      "outputs": [
        {
          "internalType": "bool",
          "name": "",
          "type": "bool"
        }
      ],
      "stateMutability": "view",
      "type": "function"
    },
    {
      "inputs": [],
      "name": "dutchAuction",
      "outputs": [
        {
          "internalType": "uint256",
          "name": "startingPrice",
          "type": "uint256"
        },
        {
          "internalType": "uint256",
          "name": "floorPrice",
          "type": "uint256"
        },
        {
          "internalType": "uint256",
          "name": "startAt",
          "type": "uint256"
        },
        {
          "internalType": "uint256",
          "name": "expiresAt",
          "type": "uint256"
        },
        {
          "internalType": "uint256",
          "name": "priceDeductionRate",
          "type": "uint256"
        }
      ],
      "stateMutability": "view",
      "type": "function"
    },
    {
      "inputs": [
        {
          "internalType": "uint256",
          "name": "tokenId",
          "type": "uint256"
        }
      ],
      "name": "getApproved",
      "outputs": [
        {
          "internalType": "address",
          "name": "",
          "type": "address"
        }
      ],
      "stateMutability": "view",
      "type": "function"
    },
    {
      "inputs": [],
      "name": "getCurrentSupply",
      "outputs": [
        {
          "internalType": "uint256",
          "name": "",
          "type": "uint256"
        }
      ],
      "stateMutability": "view",
      "type": "function"
    },
    {
      "inputs": [],
      "name": "indexWL",
      "outputs": [
        {
          "internalType": "uint32",
          "name": "",
          "type": "uint32"
        }
      ],
      "stateMutability": "view",
      "type": "function"
    },
    {
      "inputs": [
        {
          "internalType": "address[]",
          "name": "payees",
          "type": "address[]"
        },
        {
          "internalType": "uint256[]",
          "name": "shares_",
          "type": "uint256[]"
        },
        {
          "internalType": "bytes32",
          "name": "_root",
          "type": "bytes32"
        }
      ],
      "name": "initialize",
      "outputs": [],
      "stateMutability": "nonpayable",
      "type": "function"
    },
    {
      "inputs": [
        {
          "internalType": "address",
          "name": "owner",
          "type": "address"
        },
        {
          "internalType": "address",
          "name": "operator",
          "type": "address"
        }
      ],
      "name": "isApprovedForAll",
      "outputs": [
        {
          "internalType": "bool",
          "name": "",
          "type": "bool"
        }
      ],
      "stateMutability": "view",
      "type": "function"
    },
    {
      "inputs": [],
      "name": "mint",
      "outputs": [],
      "stateMutability": "payable",
      "type": "function"
    },
    {
      "inputs": [],
      "name": "mintAuction",
      "outputs": [],
      "stateMutability": "payable",
      "type": "function"
    },
    {
      "inputs": [],
      "name": "name",
      "outputs": [
        {
          "internalType": "string",
          "name": "",
          "type": "string"
        }
      ],
      "stateMutability": "view",
      "type": "function"
    },
    {
      "inputs": [],
      "name": "owner",
      "outputs": [
        {
          "internalType": "address",
          "name": "",
          "type": "address"
        }
      ],
      "stateMutability": "view",
      "type": "function"
    },
    {
      "inputs": [
        {
          "internalType": "uint256",
          "name": "tokenId",
          "type": "uint256"
        }
      ],
      "name": "ownerOf",
      "outputs": [
        {
          "internalType": "address",
          "name": "",
          "type": "address"
        }
      ],
      "stateMutability": "view",
      "type": "function"
    },
    {
      "inputs": [
        {
          "internalType": "uint256",
          "name": "index",
          "type": "uint256"
        }
      ],
      "name": "payee",
      "outputs": [
        {
          "internalType": "address",
          "name": "",
          "type": "address"
        }
      ],
      "stateMutability": "view",
      "type": "function"
    },
    {
      "inputs": [],
      "name": "proxiableUUID",
      "outputs": [
        {
          "internalType": "bytes32",
          "name": "",
          "type": "bytes32"
        }
      ],
      "stateMutability": "view",
      "type": "function"
    },
    {
      "inputs": [
        {
          "internalType": "bytes32[]",
          "name": "proof",
          "type": "bytes32[]"
        }
      ],
      "name": "redeem",
      "outputs": [],
      "stateMutability": "payable",
      "type": "function"
    },
    {
      "inputs": [
        {
          "internalType": "address payable",
          "name": "account",
          "type": "address"
        }
      ],
      "name": "release",
      "outputs": [],
      "stateMutability": "nonpayable",
      "type": "function"
    },
    {
      "inputs": [
        {
          "internalType": "contract IERC20Upgradeable",
          "name": "token",
          "type": "address"
        },
        {
          "internalType": "address",
          "name": "account",
          "type": "address"
        }
      ],
      "name": "release",
      "outputs": [],
      "stateMutability": "nonpayable",
      "type": "function"
    },
    {
      "inputs": [
        {
          "internalType": "contract IERC20Upgradeable",
          "name": "token",
          "type": "address"
        },
        {
          "internalType": "address",
          "name": "account",
          "type": "address"
        }
      ],
      "name": "released",
      "outputs": [
        {
          "internalType": "uint256",
          "name": "",
          "type": "uint256"
        }
      ],
      "stateMutability": "view",
      "type": "function"
    },
    {
      "inputs": [
        {
          "internalType": "address",
          "name": "account",
          "type": "address"
        }
      ],
      "name": "released",
      "outputs": [
        {
          "internalType": "uint256",
          "name": "",
          "type": "uint256"
        }
      ],
      "stateMutability": "view",
      "type": "function"
    },
    {
      "inputs": [],
      "name": "renounceOwnership",
      "outputs": [],
      "stateMutability": "nonpayable",
      "type": "function"
    },
    {
      "inputs": [],
      "name": "root",
      "outputs": [
        {
          "internalType": "bytes32",
          "name": "",
          "type": "bytes32"
        }
      ],
      "stateMutability": "view",
      "type": "function"
    },
    {
      "inputs": [
        {
          "internalType": "uint256",
          "name": "_tokenId",
          "type": "uint256"
        },
        {
          "internalType": "uint256",
          "name": "_salePrice",
          "type": "uint256"
        }
      ],
      "name": "royaltyInfo",
      "outputs": [
        {
          "internalType": "address",
          "name": "receiver",
          "type": "address"
        },
        {
          "internalType": "uint256",
          "name": "royaltyAmount",
          "type": "uint256"
        }
      ],
      "stateMutability": "view",
      "type": "function"
    },
    {
      "inputs": [
        {
          "internalType": "address",
          "name": "from",
          "type": "address"
        },
        {
          "internalType": "address",
          "name": "to",
          "type": "address"
        },
        {
          "internalType": "uint256",
          "name": "tokenId",
          "type": "uint256"
        }
      ],
      "name": "safeTransferFrom",
      "outputs": [],
      "stateMutability": "nonpayable",
      "type": "function"
    },
    {
      "inputs": [
        {
          "internalType": "address",
          "name": "from",
          "type": "address"
        },
        {
          "internalType": "address",
          "name": "to",
          "type": "address"
        },
        {
          "internalType": "uint256",
          "name": "tokenId",
          "type": "uint256"
        },
        {
          "internalType": "bytes",
          "name": "_data",
          "type": "bytes"
        }
      ],
      "name": "safeTransferFrom",
      "outputs": [],
      "stateMutability": "nonpayable",
      "type": "function"
    },
    {
      "inputs": [
        {
          "internalType": "address",
          "name": "operator",
          "type": "address"
        },
        {
          "internalType": "bool",
          "name": "approved",
          "type": "bool"
        }
      ],
      "name": "setApprovalForAll",
      "outputs": [],
      "stateMutability": "nonpayable",
      "type": "function"
    },
    {
      "inputs": [
        {
          "internalType": "string",
          "name": "baseURI",
          "type": "string"
        }
      ],
      "name": "setBaseURI",
      "outputs": [],
      "stateMutability": "payable",
      "type": "function"
    },
    {
      "inputs": [
        {
          "internalType": "uint256",
          "name": "_startingPrice",
          "type": "uint256"
        },
        {
          "internalType": "uint256",
          "name": "_floorPrice",
          "type": "uint256"
        },
        {
          "internalType": "uint256",
          "name": "_startAt",
          "type": "uint256"
        },
        {
          "internalType": "uint256",
          "name": "_expiresAt",
          "type": "uint256"
        },
        {
          "internalType": "uint256",
          "name": "_priceDeductionRate",
          "type": "uint256"
        }
      ],
      "name": "setDutchAuction",
      "outputs": [],
      "stateMutability": "payable",
      "type": "function"
    },
    {
      "inputs": [
        {
          "internalType": "uint32",
          "name": "_indexWL",
          "type": "uint32"
        }
      ],
      "name": "setIndexWL",
      "outputs": [],
      "stateMutability": "payable",
      "type": "function"
    },
    {
      "inputs": [
        {
          "internalType": "uint256",
          "name": "_mintPrice",
          "type": "uint256"
        }
      ],
      "name": "setMintPrice",
      "outputs": [],
      "stateMutability": "payable",
      "type": "function"
    },
    {
      "inputs": [
        {
          "internalType": "bool",
          "name": "_saleActive",
          "type": "bool"
        }
      ],
      "name": "setSaleActive",
      "outputs": [],
      "stateMutability": "payable",
      "type": "function"
    },
    {
      "inputs": [
        {
          "internalType": "bool",
          "name": "_toggleAuction",
          "type": "bool"
        }
      ],
      "name": "setToggleAuction",
      "outputs": [],
      "stateMutability": "payable",
      "type": "function"
    },
    {
      "inputs": [
        {
          "internalType": "address",
          "name": "account",
          "type": "address"
        }
      ],
      "name": "shares",
      "outputs": [
        {
          "internalType": "uint256",
          "name": "",
          "type": "uint256"
        }
      ],
      "stateMutability": "view",
      "type": "function"
    },
    {
      "inputs": [
        {
          "internalType": "bytes4",
          "name": "interfaceId",
          "type": "bytes4"
        }
      ],
      "name": "supportsInterface",
      "outputs": [
        {
          "internalType": "bool",
          "name": "",
          "type": "bool"
        }
      ],
      "stateMutability": "view",
      "type": "function"
    },
    {
      "inputs": [],
      "name": "symbol",
      "outputs": [
        {
          "internalType": "string",
          "name": "",
          "type": "string"
        }
      ],
      "stateMutability": "view",
      "type": "function"
    },
    {
      "inputs": [
        {
          "internalType": "uint256",
          "name": "tokenId",
          "type": "uint256"
        }
      ],
      "name": "tokenURI",
      "outputs": [
        {
          "internalType": "string",
          "name": "",
          "type": "string"
        }
      ],
      "stateMutability": "view",
      "type": "function"
    },
    {
      "inputs": [
        {
          "internalType": "contract IERC20Upgradeable",
          "name": "token",
          "type": "address"
        }
      ],
      "name": "totalReleased",
      "outputs": [
        {
          "internalType": "uint256",
          "name": "",
          "type": "uint256"
        }
      ],
      "stateMutability": "view",
      "type": "function"
    },
    {
      "inputs": [],
      "name": "totalReleased",
      "outputs": [
        {
          "internalType": "uint256",
          "name": "",
          "type": "uint256"
        }
      ],
      "stateMutability": "view",
      "type": "function"
    },
    {
      "inputs": [],
      "name": "totalShares",
      "outputs": [
        {
          "internalType": "uint256",
          "name": "",
          "type": "uint256"
        }
      ],
      "stateMutability": "view",
      "type": "function"
    },
    {
      "inputs": [
        {
          "internalType": "address",
          "name": "from",
          "type": "address"
        },
        {
          "internalType": "address",
          "name": "to",
          "type": "address"
        },
        {
          "internalType": "uint256",
          "name": "tokenId",
          "type": "uint256"
        }
      ],
      "name": "transferFrom",
      "outputs": [],
      "stateMutability": "nonpayable",
      "type": "function"
    },
    {
      "inputs": [
        {
          "internalType": "address",
          "name": "newOwner",
          "type": "address"
        }
      ],
      "name": "transferOwnership",
      "outputs": [],
      "stateMutability": "nonpayable",
      "type": "function"
    },
    {
      "inputs": [
        {
          "internalType": "address",
          "name": "newImplementation",
          "type": "address"
        }
      ],
      "name": "upgradeTo",
      "outputs": [],
      "stateMutability": "nonpayable",
      "type": "function"
    },
    {
      "inputs": [
        {
          "internalType": "address",
          "name": "newImplementation",
          "type": "address"
        },
        {
          "internalType": "bytes",
          "name": "data",
          "type": "bytes"
        }
      ],
      "name": "upgradeToAndCall",
      "outputs": [],
      "stateMutability": "payable",
      "type": "function"
    },
    {
      "stateMutability": "payable",
      "type": "receive"
    }
  ],
  "bytecode": "0x60a06040523060601b60805234801561001757600080fd5b5060805160601c6150db610052600039600081816112c80152818161135e01528181611860015281816118f60152611cde01526150db6000f3fe6080604052600436106103175760003560e01c8063715018a61161019a578063b88d4fde116100e1578063e33b7de31161008a578063f2fde38b11610064578063f2fde38b14610937578063f4a0a52814610957578063f54dd7d01461096a57610360565b8063e33b7de3146108c2578063e985e9c5146108d7578063ebf0c7171461092057610360565b8063cc200b18116100bb578063cc200b1814610823578063ce7c2ac214610856578063d79779b21461088c57610360565b8063b88d4fde146107c3578063c455b540146107e3578063c87b56dd1461080357610360565b80639852595c11610143578063a22cb4651161011d578063a22cb4651461077d578063a70bd59d1461079d578063b816d087146107b057610360565b80639852595c146106e057806398fc8abc146107165780639da0d7d41461072957610360565b80638b83209b116101745780638b83209b1461068d5780638da5cb5b146106ad57806395d89b41146106cb57610360565b8063715018a61461064e5780637ecc2b5614610663578063841718a61461067a57610360565b80633e91b5161161025e578063524c2a04116102075780635791ef23116101e15780635791ef23146105fb5780636352211e1461060e57806370a082311461062e57610360565b8063524c2a04146105c057806352d1902d146105d357806355f804b3146105e857610360565b806348b750441161023857806348b75044146105785780634f1ef286146105985780634f3e1efc146105ab57610360565b80633e91b516146104ff578063406072a91461051257806342842e0e1461055857610360565b806323b872dd116102c057806332f4a69b1161029a57806332f4a69b146104c25780633659cfe6146104ca5780633a98ef39146104ea57610360565b806323b872dd1461043e5780632a55205a1461045e57806332cb6b0c1461049d57610360565b8063095ea7b3116102f1578063095ea7b3146103f45780631249c58b14610416578063191655871461041e57610360565b806301ffc9a71461036557806306fdde031461039a578063081812fc146103bc57610360565b36610360577f6ef95f06320e7a25a04a175ca677b7052bdd97131872c2192525a629f51be77033604080516001600160a01b0390921682523460208301520160405180910390a1005b600080fd5b34801561037157600080fd5b50610385610380366004614c25565b61098a565b60405190151581526020015b60405180910390f35b3480156103a657600080fd5b506103af6109e8565b6040516103919190614e31565b3480156103c857600080fd5b506103dc6103d7366004614cb5565b610a7a565b6040516001600160a01b039091168152602001610391565b34801561040057600080fd5b5061041461040f366004614a38565b610b25565b005b610414610c57565b34801561042a57600080fd5b506104146104393660046148bf565b610dc0565b34801561044a57600080fd5b50610414610459366004614913565b610f9a565b34801561046a57600080fd5b5061047e610479366004614ccd565b611021565b604080516001600160a01b039093168352602083019190915201610391565b3480156104a957600080fd5b506104b461019a5481565b604051908152602001610391565b610414611048565b3480156104d657600080fd5b506104146104e53660046148bf565b6112bd565b3480156104f657600080fd5b5060c9546104b4565b61041461050d366004614cee565b61145b565b34801561051e57600080fd5b506104b461052d366004614c5d565b6001600160a01b03918216600090815260cf6020908152604080832093909416825291909152205490565b34801561056457600080fd5b50610414610573366004614913565b61158d565b34801561058457600080fd5b50610414610593366004614c5d565b6115a8565b6104146105a63660046149ea565b611855565b3480156105b757600080fd5b506104b46119e4565b6104146105ce366004614b95565b6119f5565b3480156105df57600080fd5b506104b4611cd1565b6104146105f6366004614c6f565b611d96565b610414610609366004614bd5565b611e04565b34801561061a57600080fd5b506103dc610629366004614cb5565b611e90565b34801561063a57600080fd5b506104b46106493660046148bf565b611f1b565b34801561065a57600080fd5b50610414611fb5565b34801561066f57600080fd5b506104b46101995481565b610414610688366004614bd5565b61201b565b34801561069957600080fd5b506103dc6106a8366004614cb5565b6120ad565b3480156106b957600080fd5b506097546001600160a01b03166103dc565b3480156106d757600080fd5b506103af6120eb565b3480156106ec57600080fd5b506104b46106fb3660046148bf565b6001600160a01b0316600090815260cc602052604090205490565b610414610724366004614cb5565b6120fa565b34801561073557600080fd5b506101925461019354610194546101955461019654610755949392919085565b604080519586526020860194909452928401919091526060830152608082015260a001610391565b34801561078957600080fd5b506104146107983660046149bd565b6121c2565b6104146107ab366004614d28565b6121cd565b6104146107be366004614a63565b6122bb565b3480156107cf57600080fd5b506104146107de366004614953565b6124c7565b3480156107ef57600080fd5b506103856107fe366004614a38565b612555565b34801561080f57600080fd5b506103af61081e366004614cb5565b61258f565b34801561082f57600080fd5b5061019e546108419063ffffffff1681565b60405163ffffffff9091168152602001610391565b34801561086257600080fd5b506104b46108713660046148bf565b6001600160a01b0316600090815260cb602052604090205490565b34801561089857600080fd5b506104b46108a73660046148bf565b6001600160a01b0316600090815260ce602052604090205490565b3480156108ce57600080fd5b5060ca546104b4565b3480156108e357600080fd5b506103856108f23660046148db565b6001600160a01b039182166000908152606a6020908152604080832093909416825291909152205460ff1690565b34801561092c57600080fd5b506104b461019d5481565b34801561094357600080fd5b506104146109523660046148bf565b61270f565b610414610965366004614cb5565b6127ee565b34801561097657600080fd5b50610414610985366004614acc565b61284e565b60007fffffffff0000000000000000000000000000000000000000000000000000000082167f2a55205a0000000000000000000000000000000000000000000000000000000014806109e057506109e082612a14565b90505b919050565b6060606580546109f790614f63565b80601f0160208091040260200160405190810160405280929190818152602001828054610a2390614f63565b8015610a705780601f10610a4557610100808354040283529160200191610a70565b820191906000526020600020905b815481529060010190602001808311610a5357829003601f168201915b5050505050905090565b6000818152606760205260408120546001600160a01b0316610b095760405162461bcd60e51b815260206004820152602c60248201527f4552433732313a20617070726f76656420717565727920666f72206e6f6e657860448201527f697374656e7420746f6b656e000000000000000000000000000000000000000060648201526084015b60405180910390fd5b506000908152606960205260409020546001600160a01b031690565b6000610b3082611e90565b9050806001600160a01b0316836001600160a01b03161415610bba5760405162461bcd60e51b815260206004820152602160248201527f4552433732313a20617070726f76616c20746f2063757272656e74206f776e6560448201527f72000000000000000000000000000000000000000000000000000000000000006064820152608401610b00565b336001600160a01b0382161480610bd65750610bd681336108f2565b610c485760405162461bcd60e51b815260206004820152603860248201527f4552433732313a20617070726f76652063616c6c6572206973206e6f74206f7760448201527f6e6572206e6f7220617070726f76656420666f7220616c6c00000000000000006064820152608401610b00565b610c528383612af7565b505050565b61019c54610100900460ff16610caf5760405162461bcd60e51b815260206004820152600b60248201527f73616c65207061757365640000000000000000000000000000000000000000006044820152606401610b00565b600261015f541415610d035760405162461bcd60e51b815260206004820152601f60248201527f5265656e7472616e637947756172643a207265656e7472616e742063616c6c006044820152606401610b00565b600261015f5561019c5460ff1615610d5d5760405162461bcd60e51b815260206004820152601160248201527f75736520606d696e7441756374696f6e600000000000000000000000000000006044820152606401610b00565b61019b543414610daf5760405162461bcd60e51b815260206004820152601460248201527f696e636f72726563742065746865722073656e740000000000000000000000006044820152606401610b00565b610db833612b7d565b600161015f55565b6001600160a01b038116600090815260cb6020526040902054610e4b5760405162461bcd60e51b815260206004820152602660248201527f5061796d656e7453706c69747465723a206163636f756e7420686173206e6f2060448201527f73686172657300000000000000000000000000000000000000000000000000006064820152608401610b00565b6000610e5660ca5490565b610e609047614eb7565b90506000610e8d8383610e88866001600160a01b0316600090815260cc602052604090205490565b612bf7565b905080610f025760405162461bcd60e51b815260206004820152602b60248201527f5061796d656e7453706c69747465723a206163636f756e74206973206e6f742060448201527f647565207061796d656e740000000000000000000000000000000000000000006064820152608401610b00565b6001600160a01b038316600090815260cc602052604081208054839290610f2a908490614eb7565b925050819055508060ca6000828254610f439190614eb7565b90915550610f5390508382612c3f565b604080516001600160a01b0385168152602081018390527fdf20fd1e76bc69d672e4814fafb2c449bba3a5369d8359adf9e05e6fde87b056910160405180910390a1505050565b610fa43382612d58565b6110165760405162461bcd60e51b815260206004820152603160248201527f4552433732313a207472616e736665722063616c6c6572206973206e6f74206f60448201527f776e6572206e6f7220617070726f7665640000000000000000000000000000006064820152608401610b00565b610c52838383612e5c565b600080306064611032856006614ee3565b61103c9190614ecf565b915091505b9250929050565b61019c54610100900460ff166110a05760405162461bcd60e51b815260206004820152600b60248201527f73616c65207061757365640000000000000000000000000000000000000000006044820152606401610b00565b600261015f5414156110f45760405162461bcd60e51b815260206004820152601f60248201527f5265656e7472616e637947756172643a207265656e7472616e742063616c6c006044820152606401610b00565b600261015f5561019c5460ff1661114d5760405162461bcd60e51b815260206004820152600a60248201527f75736520606d696e7460000000000000000000000000000000000000000000006044820152606401610b00565b61019454421161119f5760405162461bcd60e51b815260206004820152601b60248201527f61756374696f6e20686173206e6f7420737461727465642079657400000000006044820152606401610b00565b6101955442106111f15760405162461bcd60e51b815260206004820152600f60248201527f61756374696f6e206578706972656400000000000000000000000000000000006044820152606401610b00565b610194546000906112029042614f20565b9050600061121261012c83614ecf565b610196546112209190614ee3565b61019354610192549192506000916112389190614f20565b8211611252576101925461124d908390614f20565b611257565b610193545b9050803410156112a95760405162461bcd60e51b815260206004820152601260248201527f696e73756666696369656e742066756e647300000000000000000000000000006044820152606401610b00565b6112b233612b7d565b5050600161015f5550565b306001600160a01b037f000000000000000000000000000000000000000000000000000000000000000016141561135c5760405162461bcd60e51b815260206004820152602c60248201527f46756e6374696f6e206d7573742062652063616c6c6564207468726f7567682060448201527f64656c656761746563616c6c00000000000000000000000000000000000000006064820152608401610b00565b7f00000000000000000000000000000000000000000000000000000000000000006001600160a01b03166113b77f360894a13ba1a3210667c828492db98dca3e2076cc3735a920a3ca505d382bbc546001600160a01b031690565b6001600160a01b0316146114335760405162461bcd60e51b815260206004820152602c60248201527f46756e6374696f6e206d7573742062652063616c6c6564207468726f7567682060448201527f6163746976652070726f787900000000000000000000000000000000000000006064820152608401610b00565b61143c81613041565b604080516000808252602082019092526114589183919061309b565b50565b6097546001600160a01b031633146114b55760405162461bcd60e51b815260206004820181905260248201527f4f776e61626c653a2063616c6c6572206973206e6f7420746865206f776e65726044820152606401610b00565b600085116114c257600080fd5b600084116114cf57600080fd5b4283116114db57600080fd5b8183106114e757600080fd5b600081116114f457600080fd5b6040805160a080820183528782526020808301889052828401879052606080840187905260809384018690526101928a905561019389905561019488905561019587905561019686905584518a81529182018990529381018790529283018590529082018390527fbd0bbff8ef694cfae32ec10e7671cfe67d5b3452e8adfd13ffb731b2efdbd453910160405180910390a15050505050565b610c52838383604051806020016040528060008152506124c7565b6001600160a01b038116600090815260cb60205260409020546116335760405162461bcd60e51b815260206004820152602660248201527f5061796d656e7453706c69747465723a206163636f756e7420686173206e6f2060448201527f73686172657300000000000000000000000000000000000000000000000000006064820152608401610b00565b6001600160a01b038216600090815260ce60205260408120546040517f70a082310000000000000000000000000000000000000000000000000000000081523060048201526001600160a01b038516906370a082319060240160206040518083038186803b1580156116a457600080fd5b505afa1580156116b8573d6000803e3d6000fd5b505050506040513d601f19601f820116820180604052508101906116dc9190614c0d565b6116e69190614eb7565b9050600061171f8383610e8887876001600160a01b03918216600090815260cf6020908152604080832093909416825291909152205490565b9050806117945760405162461bcd60e51b815260206004820152602b60248201527f5061796d656e7453706c69747465723a206163636f756e74206973206e6f742060448201527f647565207061796d656e740000000000000000000000000000000000000000006064820152608401610b00565b6001600160a01b03808516600090815260cf60209081526040808320938716835292905290812080548392906117cb908490614eb7565b90915550506001600160a01b038416600090815260ce6020526040812080548392906117f8908490614eb7565b90915550611809905084848361326d565b604080516001600160a01b038581168252602082018490528616917f3be5b7a71e84ed12875d241991c70855ac5817d847039e17a9d895c1ceb0f18a910160405180910390a250505050565b306001600160a01b037f00000000000000000000000000000000000000000000000000000000000000001614156118f45760405162461bcd60e51b815260206004820152602c60248201527f46756e6374696f6e206d7573742062652063616c6c6564207468726f7567682060448201527f64656c656761746563616c6c00000000000000000000000000000000000000006064820152608401610b00565b7f00000000000000000000000000000000000000000000000000000000000000006001600160a01b031661194f7f360894a13ba1a3210667c828492db98dca3e2076cc3735a920a3ca505d382bbc546001600160a01b031690565b6001600160a01b0316146119cb5760405162461bcd60e51b815260206004820152602c60248201527f46756e6374696f6e206d7573742062652063616c6c6564207468726f7567682060448201527f6163746976652070726f787900000000000000000000000000000000000000006064820152608401610b00565b6119d482613041565b6119e08282600161309b565b5050565b60006119f06101975490565b905090565b600261015f541415611a495760405162461bcd60e51b815260206004820152601f60248201527f5265656e7472616e637947756172643a207265656e7472616e742063616c6c006044820152606401610b00565b600261015f55604080513360601b7fffffffffffffffffffffffffffffffffffffffff000000000000000000000000166020808301919091528251601481840301815260349092019092528051910120611ad6908383808060200260200160405190810160405280939291908181526020018383602002808284376000920191909152506132ed92505050565b611b225760405162461bcd60e51b815260206004820152601460248201527f496e76616c6964206d65726b6c652070726f6f660000000000000000000000006044820152606401610b00565b61019c5460ff1615611b765760405162461bcd60e51b815260206004820152601160248201527f75736520606d696e7441756374696f6e600000000000000000000000000000006044820152606401610b00565b61019b543414611bc85760405162461bcd60e51b815260206004820152601460248201527f696e636f72726563742065746865722073656e740000000000000000000000006044820152606401610b00565b3360009081526101916020526040902061019e5463ffffffff16600a8110611c0057634e487b7160e01b600052603260045260246000fd5b602081049091015460ff601f9092166101000a90041615611c635760405162461bcd60e51b815260206004820152600760248201527f636c61696d6564000000000000000000000000000000000000000000000000006044820152606401610b00565b3360009081526101916020526040902061019e546001919063ffffffff16600a8110611c9f57634e487b7160e01b600052603260045260246000fd5b602091828204019190066101000a81548160ff021916908315150217905550611cc733612b7d565b5050600161015f55565b6000306001600160a01b037f00000000000000000000000000000000000000000000000000000000000000001614611d715760405162461bcd60e51b815260206004820152603860248201527f555550535570677261646561626c653a206d757374206e6f742062652063616c60448201527f6c6564207468726f7567682064656c656761746563616c6c00000000000000006064820152608401610b00565b507f360894a13ba1a3210667c828492db98dca3e2076cc3735a920a3ca505d382bbc90565b6097546001600160a01b03163314611df05760405162461bcd60e51b815260206004820181905260248201527f4f776e61626c653a2063616c6c6572206973206e6f7420746865206f776e65726044820152606401610b00565b80516119e0906101989060208401906146e3565b6097546001600160a01b03163314611e5e5760405162461bcd60e51b815260206004820181905260248201527f4f776e61626c653a2063616c6c6572206973206e6f7420746865206f776e65726044820152606401610b00565b61019c80547fffffffffffffffffffffffffffffffffffffffffffffffffffffffffffffff0016911515919091179055565b6000818152606760205260408120546001600160a01b0316806109e05760405162461bcd60e51b815260206004820152602960248201527f4552433732313a206f776e657220717565727920666f72206e6f6e657869737460448201527f656e7420746f6b656e00000000000000000000000000000000000000000000006064820152608401610b00565b60006001600160a01b038216611f995760405162461bcd60e51b815260206004820152602a60248201527f4552433732313a2062616c616e636520717565727920666f7220746865207a6560448201527f726f2061646472657373000000000000000000000000000000000000000000006064820152608401610b00565b506001600160a01b031660009081526068602052604090205490565b6097546001600160a01b0316331461200f5760405162461bcd60e51b815260206004820181905260248201527f4f776e61626c653a2063616c6c6572206973206e6f7420746865206f776e65726044820152606401610b00565b61201960006132fd565b565b6097546001600160a01b031633146120755760405162461bcd60e51b815260206004820181905260248201527f4f776e61626c653a2063616c6c6572206973206e6f7420746865206f776e65726044820152606401610b00565b61019c8054911515610100027fffffffffffffffffffffffffffffffffffffffffffffffffffffffffffff00ff909216919091179055565b600060cd82815481106120d057634e487b7160e01b600052603260045260246000fd5b6000918252602090912001546001600160a01b031692915050565b6060606680546109f790614f63565b6097546001600160a01b031633146121545760405162461bcd60e51b815260206004820181905260248201527f4f776e61626c653a2063616c6c6572206973206e6f7420746865206f776e65726044820152606401610b00565b8061019960008282546121679190614eb7565b909155505061019a546101995411156114585760405162461bcd60e51b815260206004820152601b60248201527f63616e6e6f742062652067726561746572207468616e203939393900000000006044820152606401610b00565b6119e0338383613367565b6097546001600160a01b031633146122275760405162461bcd60e51b815260206004820181905260248201527f4f776e61626c653a2063616c6c6572206973206e6f7420746865206f776e65726044820152606401610b00565b61019e5463ffffffff908116908216116122835760405162461bcd60e51b815260206004820152601760248201527f6c657373207468616e2063757272656e7420696e6465780000000000000000006044820152606401610b00565b61019e80547fffffffffffffffffffffffffffffffffffffffffffffffffffffffff000000001663ffffffff92909216919091179055565b6097546001600160a01b031633146123155760405162461bcd60e51b815260206004820181905260248201527f4f776e61626c653a2063616c6c6572206973206e6f7420746865206f776e65726044820152606401610b00565b600261015f5414156123695760405162461bcd60e51b815260206004820152601f60248201527f5265656e7472616e637947756172643a207265656e7472616e742063616c6c006044820152606401610b00565b600261015f5560005b838110156124ba5760006123866101975490565b9050610199548484848181106123ac57634e487b7160e01b600052603260045260246000fd5b90506020020135826123be9190614eb7565b111561240c5760405162461bcd60e51b815260206004820152601460248201527f6578636565647320746f6b656e20737570706c790000000000000000000000006044820152606401610b00565b60005b84848481811061242f57634e487b7160e01b600052603260045260246000fd5b905060200201358110156124a55761244c61019780546001019055565b61249387878581811061246f57634e487b7160e01b600052603260045260246000fd5b905060200201602081019061248491906148bf565b61248e8385614eb7565b613454565b8061249d81614f9e565b91505061240f565b505080806124b290614f9e565b915050612372565b5050600161015f55505050565b6124d13383612d58565b6125435760405162461bcd60e51b815260206004820152603160248201527f4552433732313a207472616e736665722063616c6c6572206973206e6f74206f60448201527f776e6572206e6f7220617070726f7665640000000000000000000000000000006064820152608401610b00565b61254f8484848461346e565b50505050565b61019160205281600052604060002081600a811061257257600080fd5b602081049091015460ff601f9092166101000a9004169150829050565b6000818152606760205260409020546060906001600160a01b03166125f65760405162461bcd60e51b815260206004820152601f60248201527f55524920717565727920666f72206e6f6e6578697374656e7420746f6b656e006044820152606401610b00565b60408051808201909152600581527f2e6a736f6e000000000000000000000000000000000000000000000000000000602082015261019880546000919061263c90614f63565b80601f016020809104026020016040519081016040528092919081815260200182805461266890614f63565b80156126b55780601f1061268a576101008083540402835291602001916126b5565b820191906000526020600020905b81548152906001019060200180831161269857829003601f168201915b5050505050905060008151116126da5760405180602001604052806000815250612707565b806126e4856134f7565b836040516020016126f793929190614db2565b6040516020818303038152906040525b949350505050565b6097546001600160a01b031633146127695760405162461bcd60e51b815260206004820181905260248201527f4f776e61626c653a2063616c6c6572206973206e6f7420746865206f776e65726044820152606401610b00565b6001600160a01b0381166127e55760405162461bcd60e51b815260206004820152602660248201527f4f776e61626c653a206e6577206f776e657220697320746865207a65726f206160448201527f64647265737300000000000000000000000000000000000000000000000000006064820152608401610b00565b611458816132fd565b6097546001600160a01b031633146128485760405162461bcd60e51b815260206004820181905260248201527f4f776e61626c653a2063616c6c6572206973206e6f7420746865206f776e65726044820152606401610b00565b61019b55565b600054610100900460ff166128695760005460ff161561286d565b303b155b6128df5760405162461bcd60e51b815260206004820152602e60248201527f496e697469616c697a61626c653a20636f6e747261637420697320616c72656160448201527f647920696e697469616c697a65640000000000000000000000000000000000006064820152608401610b00565b600054610100900460ff1615801561294557600080547fffffffffffffffffffffffffffffffffffffffffffffffffffffffffffffff007fffffffffffffffffffffffffffffffffffffffffffffffffffffffffffff00ff909116610100171660011790555b61294d613646565b6129c16040518060400160405280601b81526020017f57726973742041666963696f6e61646f20576174636820436c756200000000008152506040518060400160405280600481526020017f57415743000000000000000000000000000000000000000000000000000000008152506136cb565b6129cb8484613752565b6129d36137d9565b61270f61019a5561019d829055801561254f57600080547fffffffffffffffffffffffffffffffffffffffffffffffffffffffffffff00ff16905550505050565b60007fffffffff0000000000000000000000000000000000000000000000000000000082167f80ac58cd000000000000000000000000000000000000000000000000000000001480612aa757507fffffffff0000000000000000000000000000000000000000000000000000000082167f5b5e139f00000000000000000000000000000000000000000000000000000000145b806109e057507f01ffc9a7000000000000000000000000000000000000000000000000000000007fffffffff000000000000000000000000000000000000000000000000000000008316146109e0565b600081815260696020526040902080547fffffffffffffffffffffffff0000000000000000000000000000000000000000166001600160a01b0384169081179091558190612b4482611e90565b6001600160a01b03167f8c5be1e5ebec7d5bd14f71427d1e84f3dd0314c0f7b2291e5b200ac8c7c3b92560405160405180910390a45050565b6000612b896101975490565b905061019954811115612bde5760405162461bcd60e51b815260206004820152601460248201527f6578636565647320746f6b656e20737570706c790000000000000000000000006044820152606401610b00565b612bed61019780546001019055565b6119e08282613454565b60c9546001600160a01b038416600090815260cb602052604081205490918391612c219086614ee3565b612c2b9190614ecf565b612c359190614f20565b90505b9392505050565b80471015612c8f5760405162461bcd60e51b815260206004820152601d60248201527f416464726573733a20696e73756666696369656e742062616c616e63650000006044820152606401610b00565b6000826001600160a01b03168260405160006040518083038185875af1925050503d8060008114612cdc576040519150601f19603f3d011682016040523d82523d6000602084013e612ce1565b606091505b5050905080610c525760405162461bcd60e51b815260206004820152603a60248201527f416464726573733a20756e61626c6520746f2073656e642076616c75652c207260448201527f6563697069656e74206d617920686176652072657665727465640000000000006064820152608401610b00565b6000818152606760205260408120546001600160a01b0316612de25760405162461bcd60e51b815260206004820152602c60248201527f4552433732313a206f70657261746f7220717565727920666f72206e6f6e657860448201527f697374656e7420746f6b656e00000000000000000000000000000000000000006064820152608401610b00565b6000612ded83611e90565b9050806001600160a01b0316846001600160a01b03161480612e285750836001600160a01b0316612e1d84610a7a565b6001600160a01b0316145b8061270757506001600160a01b038082166000908152606a602090815260408083209388168352929052205460ff16612707565b826001600160a01b0316612e6f82611e90565b6001600160a01b031614612eeb5760405162461bcd60e51b815260206004820152602560248201527f4552433732313a207472616e736665722066726f6d20696e636f72726563742060448201527f6f776e65720000000000000000000000000000000000000000000000000000006064820152608401610b00565b6001600160a01b038216612f665760405162461bcd60e51b8152602060048201526024808201527f4552433732313a207472616e7366657220746f20746865207a65726f2061646460448201527f72657373000000000000000000000000000000000000000000000000000000006064820152608401610b00565b612f71600082612af7565b6001600160a01b0383166000908152606860205260408120805460019290612f9a908490614f20565b90915550506001600160a01b0382166000908152606860205260408120805460019290612fc8908490614eb7565b909155505060008181526067602052604080822080547fffffffffffffffffffffffff0000000000000000000000000000000000000000166001600160a01b0386811691821790925591518493918716917fddf252ad1be2c89b69c2b068fc378daa952ba7f163c4a11628f55a4df523b3ef91a4610c52565b6097546001600160a01b031633146114585760405162461bcd60e51b815260206004820181905260248201527f4f776e61626c653a2063616c6c6572206973206e6f7420746865206f776e65726044820152606401610b00565b7f4910fdfa16fed3260ed0e7147f7cc6da11a60208b5b9406d12a635614ffd91435460ff16156130d3576130ce8361385e565b610c52565b826001600160a01b03166352d1902d6040518163ffffffff1660e01b815260040160206040518083038186803b15801561310c57600080fd5b505afa92505050801561315a575060408051601f3d9081017fffffffffffffffffffffffffffffffffffffffffffffffffffffffffffffffe016820190925261315791810190614c0d565b60015b6131cc5760405162461bcd60e51b815260206004820152602e60248201527f45524331393637557067726164653a206e657720696d706c656d656e7461746960448201527f6f6e206973206e6f7420555550530000000000000000000000000000000000006064820152608401610b00565b7f360894a13ba1a3210667c828492db98dca3e2076cc3735a920a3ca505d382bbc81146132615760405162461bcd60e51b815260206004820152602960248201527f45524331393637557067726164653a20756e737570706f727465642070726f7860448201527f6961626c655555494400000000000000000000000000000000000000000000006064820152608401610b00565b50610c52838383613934565b604080516001600160a01b038416602482015260448082018490528251808303909101815260649091019091526020810180517bffffffffffffffffffffffffffffffffffffffffffffffffffffffff167fa9059cbb00000000000000000000000000000000000000000000000000000000179052610c52908490613959565b6000612c388261019d5485613a3e565b609780546001600160a01b038381167fffffffffffffffffffffffff0000000000000000000000000000000000000000831681179093556040519116919082907f8be0079c531659141344cd1fd0a4f28419497f9722a3daafe3b4186f6b6457e090600090a35050565b816001600160a01b0316836001600160a01b031614156133c95760405162461bcd60e51b815260206004820152601960248201527f4552433732313a20617070726f766520746f2063616c6c6572000000000000006044820152606401610b00565b6001600160a01b038381166000818152606a602090815260408083209487168084529482529182902080547fffffffffffffffffffffffffffffffffffffffffffffffffffffffffffffff001686151590811790915591519182527f17307eab39ab6107e8899845ad3d59bd9653f200f220920489ca2b5937696c31910160405180910390a3505050565b6119e0828260405180602001604052806000815250613a54565b613479848484612e5c565b61348584848484613add565b61254f5760405162461bcd60e51b815260206004820152603260248201527f4552433732313a207472616e7366657220746f206e6f6e20455243373231526560448201527f63656976657220696d706c656d656e74657200000000000000000000000000006064820152608401610b00565b606081613538575060408051808201909152600181527f300000000000000000000000000000000000000000000000000000000000000060208201526109e3565b8160005b8115613562578061354c81614f9e565b915061355b9050600a83614ecf565b915061353c565b60008167ffffffffffffffff81111561358b57634e487b7160e01b600052604160045260246000fd5b6040519080825280601f01601f1916602001820160405280156135b5576020820181803683370190505b5090505b8415612707576135ca600183614f20565b91506135d7600a86614fd7565b6135e2906030614eb7565b60f81b81838151811061360557634e487b7160e01b600052603260045260246000fd5b60200101907effffffffffffffffffffffffffffffffffffffffffffffffffffffffffffff1916908160001a90535061363f600a86614ecf565b94506135b9565b600054610100900460ff166136c35760405162461bcd60e51b815260206004820152602b60248201527f496e697469616c697a61626c653a20636f6e7472616374206973206e6f74206960448201527f6e697469616c697a696e670000000000000000000000000000000000000000006064820152608401610b00565b612019613ca8565b600054610100900460ff166137485760405162461bcd60e51b815260206004820152602b60248201527f496e697469616c697a61626c653a20636f6e7472616374206973206e6f74206960448201527f6e697469616c697a696e670000000000000000000000000000000000000000006064820152608401610b00565b6119e08282613d2e565b600054610100900460ff166137cf5760405162461bcd60e51b815260206004820152602b60248201527f496e697469616c697a61626c653a20636f6e7472616374206973206e6f74206960448201527f6e697469616c697a696e670000000000000000000000000000000000000000006064820152608401610b00565b6119e08282613dd2565b600054610100900460ff166138565760405162461bcd60e51b815260206004820152602b60248201527f496e697469616c697a61626c653a20636f6e7472616374206973206e6f74206960448201527f6e697469616c697a696e670000000000000000000000000000000000000000006064820152608401610b00565b612019613f8d565b6001600160a01b0381163b6138db5760405162461bcd60e51b815260206004820152602d60248201527f455243313936373a206e657720696d706c656d656e746174696f6e206973206e60448201527f6f74206120636f6e7472616374000000000000000000000000000000000000006064820152608401610b00565b7f360894a13ba1a3210667c828492db98dca3e2076cc3735a920a3ca505d382bbc80547fffffffffffffffffffffffff0000000000000000000000000000000000000000166001600160a01b0392909216919091179055565b61393d8361400a565b60008251118061394a5750805b15610c525761254f838361404a565b60006139ae826040518060400160405280602081526020017f5361666545524332303a206c6f772d6c6576656c2063616c6c206661696c6564815250856001600160a01b03166141559092919063ffffffff16565b805190915015610c5257808060200190518101906139cc9190614bf1565b610c525760405162461bcd60e51b815260206004820152602a60248201527f5361666545524332303a204552433230206f7065726174696f6e20646964206e60448201527f6f742073756363656564000000000000000000000000000000000000000000006064820152608401610b00565b600082613a4b8584614164565b14949350505050565b613a5e83836141e6565b613a6b6000848484613add565b610c525760405162461bcd60e51b815260206004820152603260248201527f4552433732313a207472616e7366657220746f206e6f6e20455243373231526560448201527f63656976657220696d706c656d656e74657200000000000000000000000000006064820152608401610b00565b60006001600160a01b0384163b15613c9d576040517f150b7a020000000000000000000000000000000000000000000000000000000081526001600160a01b0385169063150b7a0290613b3a903390899088908890600401614df5565b602060405180830381600087803b158015613b5457600080fd5b505af1925050508015613ba2575060408051601f3d9081017fffffffffffffffffffffffffffffffffffffffffffffffffffffffffffffffe0168201909252613b9f91810190614c41565b60015b613c52573d808015613bd0576040519150601f19603f3d011682016040523d82523d6000602084013e613bd5565b606091505b508051613c4a5760405162461bcd60e51b815260206004820152603260248201527f4552433732313a207472616e7366657220746f206e6f6e20455243373231526560448201527f63656976657220696d706c656d656e74657200000000000000000000000000006064820152608401610b00565b805181602001fd5b7fffffffff00000000000000000000000000000000000000000000000000000000167f150b7a0200000000000000000000000000000000000000000000000000000000149050612707565b506001949350505050565b600054610100900460ff16613d255760405162461bcd60e51b815260206004820152602b60248201527f496e697469616c697a61626c653a20636f6e7472616374206973206e6f74206960448201527f6e697469616c697a696e670000000000000000000000000000000000000000006064820152608401610b00565b612019336132fd565b600054610100900460ff16613dab5760405162461bcd60e51b815260206004820152602b60248201527f496e697469616c697a61626c653a20636f6e7472616374206973206e6f74206960448201527f6e697469616c697a696e670000000000000000000000000000000000000000006064820152608401610b00565b8151613dbe9060659060208501906146e3565b508051610c529060669060208401906146e3565b600054610100900460ff16613e4f5760405162461bcd60e51b815260206004820152602b60248201527f496e697469616c697a61626c653a20636f6e7472616374206973206e6f74206960448201527f6e697469616c697a696e670000000000000000000000000000000000000000006064820152608401610b00565b8051825114613ec65760405162461bcd60e51b815260206004820152603260248201527f5061796d656e7453706c69747465723a2070617965657320616e64207368617260448201527f6573206c656e677468206d69736d6174636800000000000000000000000000006064820152608401610b00565b6000825111613f175760405162461bcd60e51b815260206004820152601a60248201527f5061796d656e7453706c69747465723a206e6f207061796565730000000000006044820152606401610b00565b60005b8251811015610c5257613f7b838281518110613f4657634e487b7160e01b600052603260045260246000fd5b6020026020010151838381518110613f6e57634e487b7160e01b600052603260045260246000fd5b6020026020010151614341565b80613f8581614f9e565b915050613f1a565b600054610100900460ff16610db85760405162461bcd60e51b815260206004820152602b60248201527f496e697469616c697a61626c653a20636f6e7472616374206973206e6f74206960448201527f6e697469616c697a696e670000000000000000000000000000000000000000006064820152608401610b00565b6140138161385e565b6040516001600160a01b038216907fbc7cd75a20ee27fd9adebab32041f755214dbc6bffa90cc0225b39da2e5c2d3b90600090a250565b60606001600160a01b0383163b6140c95760405162461bcd60e51b815260206004820152602660248201527f416464726573733a2064656c65676174652063616c6c20746f206e6f6e2d636f60448201527f6e747261637400000000000000000000000000000000000000000000000000006064820152608401610b00565b600080846001600160a01b0316846040516140e49190614d96565b600060405180830381855af49150503d806000811461411f576040519150601f19603f3d011682016040523d82523d6000602084013e614124565b606091505b509150915061414c828260405180606001604052806027815260200161507f60279139614562565b95945050505050565b6060612c35848460008561459b565b600081815b84518110156141de57600085828151811061419457634e487b7160e01b600052603260045260246000fd5b602002602001015190508083116141ba57600083815260208290526040902092506141cb565b600081815260208490526040902092505b50806141d681614f9e565b915050614169565b509392505050565b6001600160a01b03821661423c5760405162461bcd60e51b815260206004820181905260248201527f4552433732313a206d696e7420746f20746865207a65726f20616464726573736044820152606401610b00565b6000818152606760205260409020546001600160a01b0316156142a15760405162461bcd60e51b815260206004820152601c60248201527f4552433732313a20746f6b656e20616c7265616479206d696e746564000000006044820152606401610b00565b6001600160a01b03821660009081526068602052604081208054600192906142ca908490614eb7565b909155505060008181526067602052604080822080547fffffffffffffffffffffffff0000000000000000000000000000000000000000166001600160a01b03861690811790915590518392907fddf252ad1be2c89b69c2b068fc378daa952ba7f163c4a11628f55a4df523b3ef908290a46119e0565b6001600160a01b0382166143bd5760405162461bcd60e51b815260206004820152602c60248201527f5061796d656e7453706c69747465723a206163636f756e74206973207468652060448201527f7a65726f206164647265737300000000000000000000000000000000000000006064820152608401610b00565b6000811161440d5760405162461bcd60e51b815260206004820152601d60248201527f5061796d656e7453706c69747465723a207368617265732061726520300000006044820152606401610b00565b6001600160a01b038216600090815260cb6020526040902054156144995760405162461bcd60e51b815260206004820152602b60248201527f5061796d656e7453706c69747465723a206163636f756e7420616c726561647960448201527f20686173207368617265730000000000000000000000000000000000000000006064820152608401610b00565b60cd8054600181019091557f83978b4c69c48dd978ab43fe30f077615294f938fb7f936d9eb340e51ea7db2e0180547fffffffffffffffffffffffff0000000000000000000000000000000000000000166001600160a01b038416908117909155600090815260cb6020526040902081905560c954614519908290614eb7565b60c955604080516001600160a01b0384168152602081018390527f40c340f65e17194d14ddddb073d3c9f888e3cb52b5aae0c6c7706b4fbc905fac910160405180910390a15050565b60608315614571575081612c38565b8251156145815782518084602001fd5b8160405162461bcd60e51b8152600401610b009190614e31565b6060824710156146135760405162461bcd60e51b815260206004820152602660248201527f416464726573733a20696e73756666696369656e742062616c616e636520666f60448201527f722063616c6c00000000000000000000000000000000000000000000000000006064820152608401610b00565b6001600160a01b0385163b61466a5760405162461bcd60e51b815260206004820152601d60248201527f416464726573733a2063616c6c20746f206e6f6e2d636f6e74726163740000006044820152606401610b00565b600080866001600160a01b031685876040516146869190614d96565b60006040518083038185875af1925050503d80600081146146c3576040519150601f19603f3d011682016040523d82523d6000602084013e6146c8565b606091505b50915091506146d8828286614562565b979650505050505050565b8280546146ef90614f63565b90600052602060002090601f0160209004810192826147115760008555614757565b82601f1061472a57805160ff1916838001178555614757565b82800160010185558215614757579182015b8281111561475757825182559160200191906001019061473c565b50614763929150614767565b5090565b5b808211156147635760008155600101614768565b600067ffffffffffffffff83111561479657614796615017565b6147c760207fffffffffffffffffffffffffffffffffffffffffffffffffffffffffffffffe0601f86011601614e44565b90508281528383830111156147db57600080fd5b828260208301376000602084830101529392505050565b60008083601f840112614803578182fd5b50813567ffffffffffffffff81111561481a578182fd5b602083019150836020808302850101111561104157600080fd5b600082601f830112614844578081fd5b8135602061485961485483614e93565b614e44565b8281528181019085830183850287018401881015614875578586fd5b855b8581101561489357813584529284019290840190600101614877565b5090979650505050505050565b600082601f8301126148b0578081fd5b612c388383356020850161477c565b6000602082840312156148d0578081fd5b8135612c388161502d565b600080604083850312156148ed578081fd5b82356148f88161502d565b915060208301356149088161502d565b809150509250929050565b600080600060608486031215614927578081fd5b83356149328161502d565b925060208401356149428161502d565b929592945050506040919091013590565b60008060008060808587031215614968578182fd5b84356149738161502d565b935060208501356149838161502d565b925060408501359150606085013567ffffffffffffffff8111156149a5578182fd5b6149b1878288016148a0565b91505092959194509250565b600080604083850312156149cf578182fd5b82356149da8161502d565b9150602083013561490881615042565b600080604083850312156149fc578182fd5b8235614a078161502d565b9150602083013567ffffffffffffffff811115614a22578182fd5b614a2e858286016148a0565b9150509250929050565b60008060408385031215614a4a578182fd5b8235614a558161502d565b946020939093013593505050565b60008060008060408587031215614a78578182fd5b843567ffffffffffffffff80821115614a8f578384fd5b614a9b888389016147f2565b90965094506020870135915080821115614ab3578384fd5b50614ac0878288016147f2565b95989497509550505050565b600080600060608486031215614ae0578081fd5b833567ffffffffffffffff80821115614af7578283fd5b818601915086601f830112614b0a578283fd5b81356020614b1a61485483614e93565b82815281810190858301838502870184018c1015614b36578788fd5b8796505b84871015614b61578035614b4d8161502d565b835260019690960195918301918301614b3a565b5097505087013592505080821115614b77578283fd5b50614b8486828701614834565b925050604084013590509250925092565b60008060208385031215614ba7578182fd5b823567ffffffffffffffff811115614bbd578283fd5b614bc9858286016147f2565b90969095509350505050565b600060208284031215614be6578081fd5b8135612c3881615042565b600060208284031215614c02578081fd5b8151612c3881615042565b600060208284031215614c1e578081fd5b5051919050565b600060208284031215614c36578081fd5b8135612c3881615050565b600060208284031215614c52578081fd5b8151612c3881615050565b600080604083850312156148ed578182fd5b600060208284031215614c80578081fd5b813567ffffffffffffffff811115614c96578182fd5b8201601f81018413614ca6578182fd5b6127078482356020840161477c565b600060208284031215614cc6578081fd5b5035919050565b60008060408385031215614cdf578182fd5b50508035926020909101359150565b600080600080600060a08688031215614d05578283fd5b505083359560208501359550604085013594606081013594506080013592509050565b600060208284031215614d39578081fd5b813563ffffffff81168114612c38578182fd5b60008151808452614d64816020860160208601614f37565b601f017fffffffffffffffffffffffffffffffffffffffffffffffffffffffffffffffe0169290920160200192915050565b60008251614da8818460208701614f37565b9190910192915050565b60008451614dc4818460208901614f37565b845190830190614dd8818360208901614f37565b8451910190614deb818360208801614f37565b0195945050505050565b60006001600160a01b03808716835280861660208401525083604083015260806060830152614e276080830184614d4c565b9695505050505050565b600060208252612c386020830184614d4c565b604051601f82017fffffffffffffffffffffffffffffffffffffffffffffffffffffffffffffffe016810167ffffffffffffffff81118282101715614e8b57614e8b615017565b604052919050565b600067ffffffffffffffff821115614ead57614ead615017565b5060209081020190565b60008219821115614eca57614eca614feb565b500190565b600082614ede57614ede615001565b500490565b6000817fffffffffffffffffffffffffffffffffffffffffffffffffffffffffffffffff0483118215151615614f1b57614f1b614feb565b500290565b600082821015614f3257614f32614feb565b500390565b60005b83811015614f52578181015183820152602001614f3a565b8381111561254f5750506000910152565b600281046001821680614f7757607f821691505b60208210811415614f9857634e487b7160e01b600052602260045260246000fd5b50919050565b60007fffffffffffffffffffffffffffffffffffffffffffffffffffffffffffffffff821415614fd057614fd0614feb565b5060010190565b600082614fe657614fe6615001565b500690565b634e487b7160e01b600052601160045260246000fd5b634e487b7160e01b600052601260045260246000fd5b634e487b7160e01b600052604160045260246000fd5b6001600160a01b038116811461145857600080fd5b801515811461145857600080fd5b7fffffffff000000000000000000000000000000000000000000000000000000008116811461145857600080fdfe416464726573733a206c6f772d6c6576656c2064656c65676174652063616c6c206661696c6564a264697066735822122039b2d99d4ac5e5ea481e4acfbac38012e1cf757cde94a4db3ced85555545782364736f6c63430008020033",
  "linkReferences": {},
  "deployedLinkReferences": {}
}