{
  "_format": "hh-sol-artifact-1",
  "contractName": "WristAficionadoWatchClub",
  "sourceName": "contracts/Wristables.sol",
  "abi": [
    {
      "anonymous": false,
      "inputs": [
        {
          "indexed": false,
          "internalType": "address",
          "name": "previousAdmin",
          "type": "address"
        },
        {
          "indexed": false,
          "internalType": "address",
          "name": "newAdmin",
          "type": "address"
        }
      ],
      "name": "AdminChanged",
      "type": "event"
    },
    {
      "anonymous": false,
      "inputs": [
        {
          "indexed": true,
          "internalType": "address",
          "name": "owner",
          "type": "address"
        },
        {
          "indexed": true,
          "internalType": "address",
          "name": "approved",
          "type": "address"
        },
        {
          "indexed": true,
          "internalType": "uint256",
          "name": "tokenId",
          "type": "uint256"
        }
      ],
      "name": "Approval",
      "type": "event"
    },
    {
      "anonymous": false,
      "inputs": [
        {
          "indexed": true,
          "internalType": "address",
          "name": "owner",
          "type": "address"
        },
        {
          "indexed": true,
          "internalType": "address",
          "name": "operator",
          "type": "address"
        },
        {
          "indexed": false,
          "internalType": "bool",
          "name": "approved",
          "type": "bool"
        }
      ],
      "name": "ApprovalForAll",
      "type": "event"
    },
    {
      "anonymous": false,
      "inputs": [
        {
          "indexed": true,
          "internalType": "address",
          "name": "beacon",
          "type": "address"
        }
      ],
      "name": "BeaconUpgraded",
      "type": "event"
    },
    {
      "anonymous": false,
      "inputs": [
        {
          "indexed": true,
          "internalType": "contract IERC20Upgradeable",
          "name": "token",
          "type": "address"
        },
        {
          "indexed": false,
          "internalType": "address",
          "name": "to",
          "type": "address"
        },
        {
          "indexed": false,
          "internalType": "uint256",
          "name": "amount",
          "type": "uint256"
        }
      ],
      "name": "ERC20PaymentReleased",
      "type": "event"
    },
    {
      "anonymous": false,
      "inputs": [
        {
          "indexed": false,
          "internalType": "uint256",
          "name": "startingPrice",
          "type": "uint256"
        },
        {
          "indexed": false,
          "internalType": "uint256",
          "name": "floorPrice",
          "type": "uint256"
        },
        {
          "indexed": false,
          "internalType": "uint256",
          "name": "startAt",
          "type": "uint256"
        },
        {
          "indexed": false,
          "internalType": "uint256",
          "name": "expiresAt",
          "type": "uint256"
        },
        {
          "indexed": false,
          "internalType": "uint256",
          "name": "priceDeductionRate",
          "type": "uint256"
        }
      ],
      "name": "NewDutchAuction",
      "type": "event"
    },
    {
      "anonymous": false,
      "inputs": [
        {
          "indexed": true,
          "internalType": "address",
          "name": "previousOwner",
          "type": "address"
        },
        {
          "indexed": true,
          "internalType": "address",
          "name": "newOwner",
          "type": "address"
        }
      ],
      "name": "OwnershipTransferred",
      "type": "event"
    },
    {
      "anonymous": false,
      "inputs": [
        {
          "indexed": false,
          "internalType": "address",
          "name": "account",
          "type": "address"
        },
        {
          "indexed": false,
          "internalType": "uint256",
          "name": "shares",
          "type": "uint256"
        }
      ],
      "name": "PayeeAdded",
      "type": "event"
    },
    {
      "anonymous": false,
      "inputs": [
        {
          "indexed": false,
          "internalType": "address",
          "name": "from",
          "type": "address"
        },
        {
          "indexed": false,
          "internalType": "uint256",
          "name": "amount",
          "type": "uint256"
        }
      ],
      "name": "PaymentReceived",
      "type": "event"
    },
    {
      "anonymous": false,
      "inputs": [
        {
          "indexed": false,
          "internalType": "address",
          "name": "to",
          "type": "address"
        },
        {
          "indexed": false,
          "internalType": "uint256",
          "name": "amount",
          "type": "uint256"
        }
      ],
      "name": "PaymentReleased",
      "type": "event"
    },
    {
      "anonymous": false,
      "inputs": [
        {
          "indexed": true,
          "internalType": "address",
          "name": "from",
          "type": "address"
        },
        {
          "indexed": true,
          "internalType": "address",
          "name": "to",
          "type": "address"
        },
        {
          "indexed": true,
          "internalType": "uint256",
          "name": "tokenId",
          "type": "uint256"
        }
      ],
      "name": "Transfer",
      "type": "event"
    },
    {
      "anonymous": false,
      "inputs": [
        {
          "indexed": true,
          "internalType": "address",
          "name": "implementation",
          "type": "address"
        }
      ],
      "name": "Upgraded",
      "type": "event"
    },
    {
      "inputs": [],
      "name": "MAX_SUPPLY",
      "outputs": [
        {
          "internalType": "uint256",
          "name": "",
          "type": "uint256"
        }
      ],
      "stateMutability": "view",
      "type": "function"
    },
    {
      "inputs": [
        {
          "internalType": "address",
          "name": "to",
          "type": "address"
        },
        {
          "internalType": "uint256",
          "name": "quantity",
          "type": "uint256"
        }
      ],
      "name": "airdrop",
      "outputs": [],
      "stateMutability": "payable",
      "type": "function"
    },
    {
      "inputs": [
        {
          "internalType": "address",
          "name": "to",
          "type": "address"
        },
        {
          "internalType": "uint256",
          "name": "tokenId",
          "type": "uint256"
        }
      ],
      "name": "approve",
      "outputs": [],
      "stateMutability": "nonpayable",
      "type": "function"
    },
    {
      "inputs": [],
      "name": "availableSupply",
      "outputs": [
        {
          "internalType": "uint256",
          "name": "",
          "type": "uint256"
        }
      ],
      "stateMutability": "view",
      "type": "function"
    },
    {
      "inputs": [
        {
          "internalType": "address",
          "name": "owner",
          "type": "address"
        }
      ],
      "name": "balanceOf",
      "outputs": [
        {
          "internalType": "uint256",
          "name": "",
          "type": "uint256"
        }
      ],
      "stateMutability": "view",
      "type": "function"
    },
    {
      "inputs": [
        {
          "internalType": "address[]",
          "name": "to",
          "type": "address[]"
        }
      ],
      "name": "batchAirdrop",
      "outputs": [],
      "stateMutability": "payable",
      "type": "function"
    },
    {
      "inputs": [
        {
          "internalType": "address",
          "name": "",
          "type": "address"
        },
        {
          "internalType": "uint256",
          "name": "",
          "type": "uint256"
        }
      ],
      "name": "claimedWL",
      "outputs": [
        {
          "internalType": "bool",
          "name": "",
          "type": "bool"
        }
      ],
      "stateMutability": "view",
      "type": "function"
    },
    {
      "inputs": [],
      "name": "dutchAuction",
      "outputs": [
        {
          "internalType": "uint256",
          "name": "startingPrice",
          "type": "uint256"
        },
        {
          "internalType": "uint256",
          "name": "floorPrice",
          "type": "uint256"
        },
        {
          "internalType": "uint256",
          "name": "startAt",
          "type": "uint256"
        },
        {
          "internalType": "uint256",
          "name": "expiresAt",
          "type": "uint256"
        },
        {
          "internalType": "uint256",
          "name": "priceDeductionRate",
          "type": "uint256"
        }
      ],
      "stateMutability": "view",
      "type": "function"
    },
    {
      "inputs": [
        {
          "internalType": "uint256",
          "name": "tokenId",
          "type": "uint256"
        }
      ],
      "name": "getApproved",
      "outputs": [
        {
          "internalType": "address",
          "name": "",
          "type": "address"
        }
      ],
      "stateMutability": "view",
      "type": "function"
    },
    {
      "inputs": [],
      "name": "getCurrentSupply",
      "outputs": [
        {
          "internalType": "uint256",
          "name": "",
          "type": "uint256"
        }
      ],
      "stateMutability": "view",
      "type": "function"
    },
    {
      "inputs": [],
      "name": "indexWL",
      "outputs": [
        {
          "internalType": "uint32",
          "name": "",
          "type": "uint32"
        }
      ],
      "stateMutability": "view",
      "type": "function"
    },
    {
      "inputs": [
        {
          "internalType": "address[]",
          "name": "payees",
          "type": "address[]"
        },
        {
          "internalType": "uint256[]",
          "name": "shares_",
          "type": "uint256[]"
        },
        {
          "internalType": "bytes32",
          "name": "_root",
          "type": "bytes32"
        }
      ],
      "name": "initialize",
      "outputs": [],
      "stateMutability": "nonpayable",
      "type": "function"
    },
    {
      "inputs": [
        {
          "internalType": "address",
          "name": "owner",
          "type": "address"
        },
        {
          "internalType": "address",
          "name": "operator",
          "type": "address"
        }
      ],
      "name": "isApprovedForAll",
      "outputs": [
        {
          "internalType": "bool",
          "name": "",
          "type": "bool"
        }
      ],
      "stateMutability": "view",
      "type": "function"
    },
    {
      "inputs": [],
      "name": "mint",
      "outputs": [],
      "stateMutability": "payable",
      "type": "function"
    },
    {
      "inputs": [],
      "name": "mintAuction",
      "outputs": [],
      "stateMutability": "payable",
      "type": "function"
    },
    {
      "inputs": [],
      "name": "name",
      "outputs": [
        {
          "internalType": "string",
          "name": "",
          "type": "string"
        }
      ],
      "stateMutability": "view",
      "type": "function"
    },
    {
      "inputs": [],
      "name": "owner",
      "outputs": [
        {
          "internalType": "address",
          "name": "",
          "type": "address"
        }
      ],
      "stateMutability": "view",
      "type": "function"
    },
    {
      "inputs": [
        {
          "internalType": "uint256",
          "name": "tokenId",
          "type": "uint256"
        }
      ],
      "name": "ownerOf",
      "outputs": [
        {
          "internalType": "address",
          "name": "",
          "type": "address"
        }
      ],
      "stateMutability": "view",
      "type": "function"
    },
    {
      "inputs": [
        {
          "internalType": "uint256",
          "name": "index",
          "type": "uint256"
        }
      ],
      "name": "payee",
      "outputs": [
        {
          "internalType": "address",
          "name": "",
          "type": "address"
        }
      ],
      "stateMutability": "view",
      "type": "function"
    },
    {
      "inputs": [
        {
          "internalType": "bytes32[]",
          "name": "proof",
          "type": "bytes32[]"
        }
      ],
      "name": "redeem",
      "outputs": [],
      "stateMutability": "payable",
      "type": "function"
    },
    {
      "inputs": [
        {
          "internalType": "address payable",
          "name": "account",
          "type": "address"
        }
      ],
      "name": "release",
      "outputs": [],
      "stateMutability": "nonpayable",
      "type": "function"
    },
    {
      "inputs": [
        {
          "internalType": "contract IERC20Upgradeable",
          "name": "token",
          "type": "address"
        },
        {
          "internalType": "address",
          "name": "account",
          "type": "address"
        }
      ],
      "name": "release",
      "outputs": [],
      "stateMutability": "nonpayable",
      "type": "function"
    },
    {
      "inputs": [
        {
          "internalType": "contract IERC20Upgradeable",
          "name": "token",
          "type": "address"
        },
        {
          "internalType": "address",
          "name": "account",
          "type": "address"
        }
      ],
      "name": "released",
      "outputs": [
        {
          "internalType": "uint256",
          "name": "",
          "type": "uint256"
        }
      ],
      "stateMutability": "view",
      "type": "function"
    },
    {
      "inputs": [
        {
          "internalType": "address",
          "name": "account",
          "type": "address"
        }
      ],
      "name": "released",
      "outputs": [
        {
          "internalType": "uint256",
          "name": "",
          "type": "uint256"
        }
      ],
      "stateMutability": "view",
      "type": "function"
    },
    {
      "inputs": [],
      "name": "renounceOwnership",
      "outputs": [],
      "stateMutability": "nonpayable",
      "type": "function"
    },
    {
      "inputs": [],
      "name": "root",
      "outputs": [
        {
          "internalType": "bytes32",
          "name": "",
          "type": "bytes32"
        }
      ],
      "stateMutability": "view",
      "type": "function"
    },
    {
      "inputs": [
        {
          "internalType": "uint256",
          "name": "_tokenId",
          "type": "uint256"
        },
        {
          "internalType": "uint256",
          "name": "_salePrice",
          "type": "uint256"
        }
      ],
      "name": "royaltyInfo",
      "outputs": [
        {
          "internalType": "address",
          "name": "receiver",
          "type": "address"
        },
        {
          "internalType": "uint256",
          "name": "royaltyAmount",
          "type": "uint256"
        }
      ],
      "stateMutability": "view",
      "type": "function"
    },
    {
      "inputs": [
        {
          "internalType": "address",
          "name": "from",
          "type": "address"
        },
        {
          "internalType": "address",
          "name": "to",
          "type": "address"
        },
        {
          "internalType": "uint256",
          "name": "tokenId",
          "type": "uint256"
        }
      ],
      "name": "safeTransferFrom",
      "outputs": [],
      "stateMutability": "nonpayable",
      "type": "function"
    },
    {
      "inputs": [
        {
          "internalType": "address",
          "name": "from",
          "type": "address"
        },
        {
          "internalType": "address",
          "name": "to",
          "type": "address"
        },
        {
          "internalType": "uint256",
          "name": "tokenId",
          "type": "uint256"
        },
        {
          "internalType": "bytes",
          "name": "_data",
          "type": "bytes"
        }
      ],
      "name": "safeTransferFrom",
      "outputs": [],
      "stateMutability": "nonpayable",
      "type": "function"
    },
    {
      "inputs": [
        {
          "internalType": "address",
          "name": "operator",
          "type": "address"
        },
        {
          "internalType": "bool",
          "name": "approved",
          "type": "bool"
        }
      ],
      "name": "setApprovalForAll",
      "outputs": [],
      "stateMutability": "nonpayable",
      "type": "function"
    },
    {
      "inputs": [
        {
          "internalType": "uint256",
          "name": "availableSupplyIncrease",
          "type": "uint256"
        }
      ],
      "name": "setAvailableSupply",
      "outputs": [],
      "stateMutability": "payable",
      "type": "function"
    },
    {
      "inputs": [
        {
          "internalType": "string",
          "name": "baseURI",
          "type": "string"
        }
      ],
      "name": "setBaseURI",
      "outputs": [],
      "stateMutability": "payable",
      "type": "function"
    },
    {
      "inputs": [
        {
          "internalType": "uint256",
          "name": "_startingPrice",
          "type": "uint256"
        },
        {
          "internalType": "uint256",
          "name": "_floorPrice",
          "type": "uint256"
        },
        {
          "internalType": "uint256",
          "name": "_startAt",
          "type": "uint256"
        },
        {
          "internalType": "uint256",
          "name": "_expiresAt",
          "type": "uint256"
        },
        {
          "internalType": "uint256",
          "name": "_priceDeductionRate",
          "type": "uint256"
        }
      ],
      "name": "setDutchAuction",
      "outputs": [],
      "stateMutability": "payable",
      "type": "function"
    },
    {
      "inputs": [
        {
          "internalType": "uint32",
          "name": "_indexWL",
          "type": "uint32"
        }
      ],
      "name": "setIndexWL",
      "outputs": [],
      "stateMutability": "payable",
      "type": "function"
    },
    {
      "inputs": [
        {
          "internalType": "uint256",
          "name": "_mintPrice",
          "type": "uint256"
        }
      ],
      "name": "setMintPrice",
      "outputs": [],
      "stateMutability": "payable",
      "type": "function"
    },
    {
      "inputs": [
        {
          "internalType": "bool",
          "name": "_saleActive",
          "type": "bool"
        }
      ],
      "name": "setSaleActive",
      "outputs": [],
      "stateMutability": "payable",
      "type": "function"
    },
    {
      "inputs": [
        {
          "internalType": "bool",
          "name": "_toggleAuction",
          "type": "bool"
        }
      ],
      "name": "setToggleAuction",
      "outputs": [],
      "stateMutability": "payable",
      "type": "function"
    },
    {
      "inputs": [
        {
          "internalType": "address",
          "name": "account",
          "type": "address"
        }
      ],
      "name": "shares",
      "outputs": [
        {
          "internalType": "uint256",
          "name": "",
          "type": "uint256"
        }
      ],
      "stateMutability": "view",
      "type": "function"
    },
    {
      "inputs": [
        {
          "internalType": "bytes4",
          "name": "interfaceId",
          "type": "bytes4"
        }
      ],
      "name": "supportsInterface",
      "outputs": [
        {
          "internalType": "bool",
          "name": "",
          "type": "bool"
        }
      ],
      "stateMutability": "view",
      "type": "function"
    },
    {
      "inputs": [],
      "name": "symbol",
      "outputs": [
        {
          "internalType": "string",
          "name": "",
          "type": "string"
        }
      ],
      "stateMutability": "view",
      "type": "function"
    },
    {
      "inputs": [
        {
          "internalType": "uint256",
          "name": "tokenId",
          "type": "uint256"
        }
      ],
      "name": "tokenURI",
      "outputs": [
        {
          "internalType": "string",
          "name": "",
          "type": "string"
        }
      ],
      "stateMutability": "view",
      "type": "function"
    },
    {
      "inputs": [
        {
          "internalType": "contract IERC20Upgradeable",
          "name": "token",
          "type": "address"
        }
      ],
      "name": "totalReleased",
      "outputs": [
        {
          "internalType": "uint256",
          "name": "",
          "type": "uint256"
        }
      ],
      "stateMutability": "view",
      "type": "function"
    },
    {
      "inputs": [],
      "name": "totalReleased",
      "outputs": [
        {
          "internalType": "uint256",
          "name": "",
          "type": "uint256"
        }
      ],
      "stateMutability": "view",
      "type": "function"
    },
    {
      "inputs": [],
      "name": "totalShares",
      "outputs": [
        {
          "internalType": "uint256",
          "name": "",
          "type": "uint256"
        }
      ],
      "stateMutability": "view",
      "type": "function"
    },
    {
      "inputs": [
        {
          "internalType": "address",
          "name": "from",
          "type": "address"
        },
        {
          "internalType": "address",
          "name": "to",
          "type": "address"
        },
        {
          "internalType": "uint256",
          "name": "tokenId",
          "type": "uint256"
        }
      ],
      "name": "transferFrom",
      "outputs": [],
      "stateMutability": "nonpayable",
      "type": "function"
    },
    {
      "inputs": [
        {
          "internalType": "address",
          "name": "newOwner",
          "type": "address"
        }
      ],
      "name": "transferOwnership",
      "outputs": [],
      "stateMutability": "nonpayable",
      "type": "function"
    },
    {
      "inputs": [
        {
          "internalType": "address",
          "name": "newImplementation",
          "type": "address"
        }
      ],
      "name": "upgradeTo",
      "outputs": [],
      "stateMutability": "nonpayable",
      "type": "function"
    },
    {
      "inputs": [
        {
          "internalType": "address",
          "name": "newImplementation",
          "type": "address"
        },
        {
          "internalType": "bytes",
          "name": "data",
          "type": "bytes"
        }
      ],
      "name": "upgradeToAndCall",
      "outputs": [],
      "stateMutability": "payable",
      "type": "function"
    },
    {
      "stateMutability": "payable",
      "type": "receive"
    }
  ],
  "bytecode": "0x60a06040523060601b60805234801561001757600080fd5b5060805160601c6150c961004b60003960008181611424015281816114ba0152818161197d0152611a1301526150c96000f3fe6080604052600436106103175760003560e01c8063715018a61161019a578063b88d4fde116100e1578063e33b7de31161008a578063f2fde38b11610064578063f2fde38b14610935578063f4a0a52814610955578063f54dd7d01461096857610360565b8063e33b7de3146108c0578063e985e9c5146108d5578063ebf0c7171461091e57610360565b8063cc200b18116100bb578063cc200b1814610821578063ce7c2ac214610854578063d79779b21461088a57610360565b8063b88d4fde146107c1578063c455b540146107e1578063c87b56dd1461080157610360565b806395d89b41116101435780639edfbec91161011d5780639edfbec91461077b578063a22cb4651461078e578063a70bd59d146107ae57610360565b806395d89b41146106dc5780639852595c146106f15780639da0d7d41461072757610360565b80638b83209b116101745780638b83209b1461068b5780638ba4cc3c146106ab5780638da5cb5b146106be57610360565b8063715018a61461064c5780637ecc2b5614610661578063841718a61461067857610360565b80633a98ef391161025e5780634f3e1efc116102075780635791ef23116101e15780635791ef23146105f95780636352211e1461060c57806370a082311461062c57610360565b80634f3e1efc146105be578063524c2a04146105d357806355f804b3146105e657610360565b806342842e0e1161023857806342842e0e1461056b57806348b750441461058b5780634f1ef286146105ab57610360565b80633a98ef39146104fd5780633e91b51614610512578063406072a91461052557610360565b806319165587116102c057806332cb6b0c1161029a57806332cb6b0c146104b057806332f4a69b146104d55780633659cfe6146104dd57610360565b8063191655871461043157806323b872dd146104515780632a55205a1461047157610360565b8063095ea7b3116102f1578063095ea7b3146103f45780631249c58b146104165780631723934d1461041e57610360565b806301ffc9a71461036557806306fdde031461039a578063081812fc146103bc57610360565b36610360577f6ef95f06320e7a25a04a175ca677b7052bdd97131872c2192525a629f51be77033604080516001600160a01b0390921682523460208301520160405180910390a1005b600080fd5b34801561037157600080fd5b50610385610380366004614bfb565b610988565b60405190151581526020015b60405180910390f35b3480156103a657600080fd5b506103af610a6f565b6040516103919190614e1f565b3480156103c857600080fd5b506103dc6103d7366004614c8b565b610b01565b6040516001600160a01b039091168152602001610391565b34801561040057600080fd5b5061041461040f366004614a35565b610bac565b005b610414610cde565b61041461042c366004614c8b565b610e47565b34801561043d57600080fd5b5061041461044c3660046148bc565b610f1d565b34801561045d57600080fd5b5061041461046c366004614910565b6110f7565b34801561047d57600080fd5b5061049161048c366004614cbb565b61117e565b604080516001600160a01b039093168352602083019190915201610391565b3480156104bc57600080fd5b506104c761019a5481565b604051908152602001610391565b6104146111a4565b3480156104e957600080fd5b506104146104f83660046148bc565b611419565b34801561050957600080fd5b5060c9546104c7565b610414610520366004614cdc565b6115b7565b34801561053157600080fd5b506104c7610540366004614c33565b6001600160a01b03918216600090815260cf6020908152604080832093909416825291909152205490565b34801561057757600080fd5b50610414610586366004614910565b6116aa565b34801561059757600080fd5b506104146105a6366004614c33565b6116c5565b6104146105b93660046149e7565b611972565b3480156105ca57600080fd5b506104c7611b01565b6104146105e1366004614b54565b611b12565b6104146105f4366004614c45565b611d8a565b610414610607366004614bc3565b611df8565b34801561061857600080fd5b506103dc610627366004614c8b565b611e84565b34801561063857600080fd5b506104c76106473660046148bc565b611f0f565b34801561065857600080fd5b50610414611fa9565b34801561066d57600080fd5b506104c76101995481565b610414610686366004614bc3565b61200f565b34801561069757600080fd5b506103dc6106a6366004614c8b565b6120a1565b6104146106b9366004614a35565b6120df565b3480156106ca57600080fd5b506097546001600160a01b03166103dc565b3480156106e857600080fd5b506103af612249565b3480156106fd57600080fd5b506104c761070c3660046148bc565b6001600160a01b0316600090815260cc602052604090205490565b34801561073357600080fd5b506101925461019354610194546101955461019654610753949392919085565b604080519586526020860194909452928401919091526060830152608082015260a001610391565b610414610789366004614a60565b612258565b34801561079a57600080fd5b506104146107a93660046149ba565b6123dd565b6104146107bc366004614d16565b6123e8565b3480156107cd57600080fd5b506104146107dc366004614950565b6124d6565b3480156107ed57600080fd5b506103856107fc366004614a35565b612564565b34801561080d57600080fd5b506103af61081c366004614c8b565b61259e565b34801561082d57600080fd5b5061019e5461083f9063ffffffff1681565b60405163ffffffff9091168152602001610391565b34801561086057600080fd5b506104c761086f3660046148bc565b6001600160a01b0316600090815260cb602052604090205490565b34801561089657600080fd5b506104c76108a53660046148bc565b6001600160a01b0316600090815260ce602052604090205490565b3480156108cc57600080fd5b5060ca546104c7565b3480156108e157600080fd5b506103856108f03660046148d8565b6001600160a01b039182166000908152606a6020908152604080832093909416825291909152205460ff1690565b34801561092a57600080fd5b506104c761019d5481565b34801561094157600080fd5b506104146109503660046148bc565b61271e565b610414610963366004614c8b565b6127fd565b34801561097457600080fd5b50610414610983366004614a93565b61285d565b60007fffffffff0000000000000000000000000000000000000000000000000000000082167f80ac58cd000000000000000000000000000000000000000000000000000000001480610a1b57507fffffffff0000000000000000000000000000000000000000000000000000000082167f5b5e139f00000000000000000000000000000000000000000000000000000000145b80610a6757507f01ffc9a7000000000000000000000000000000000000000000000000000000007fffffffff000000000000000000000000000000000000000000000000000000008316145b90505b919050565b606060658054610a7e90614f51565b80601f0160208091040260200160405190810160405280929190818152602001828054610aaa90614f51565b8015610af75780601f10610acc57610100808354040283529160200191610af7565b820191906000526020600020905b815481529060010190602001808311610ada57829003601f168201915b5050505050905090565b6000818152606760205260408120546001600160a01b0316610b905760405162461bcd60e51b815260206004820152602c60248201527f4552433732313a20617070726f76656420717565727920666f72206e6f6e657860448201527f697374656e7420746f6b656e000000000000000000000000000000000000000060648201526084015b60405180910390fd5b506000908152606960205260409020546001600160a01b031690565b6000610bb782611e84565b9050806001600160a01b0316836001600160a01b03161415610c415760405162461bcd60e51b815260206004820152602160248201527f4552433732313a20617070726f76616c20746f2063757272656e74206f776e6560448201527f72000000000000000000000000000000000000000000000000000000000000006064820152608401610b87565b336001600160a01b0382161480610c5d5750610c5d81336108f0565b610ccf5760405162461bcd60e51b815260206004820152603860248201527f4552433732313a20617070726f76652063616c6c6572206973206e6f74206f7760448201527f6e6572206e6f7220617070726f76656420666f7220616c6c00000000000000006064820152608401610b87565b610cd98383612a4d565b505050565b61019c54610100900460ff16610d365760405162461bcd60e51b815260206004820152600b60248201527f73616c65207061757365640000000000000000000000000000000000000000006044820152606401610b87565b600261015f541415610d8a5760405162461bcd60e51b815260206004820152601f60248201527f5265656e7472616e637947756172643a207265656e7472616e742063616c6c006044820152606401610b87565b600261015f5561019c5460ff1615610de45760405162461bcd60e51b815260206004820152601160248201527f75736520606d696e7441756374696f6e600000000000000000000000000000006044820152606401610b87565b61019b543414610e365760405162461bcd60e51b815260206004820152601460248201527f696e636f72726563742065746865722073656e740000000000000000000000006044820152606401610b87565b610e3f33612ad3565b600161015f55565b6097546001600160a01b03163314610ea15760405162461bcd60e51b815260206004820181905260248201527f4f776e61626c653a2063616c6c6572206973206e6f7420746865206f776e65726044820152606401610b87565b61019a548161019954610eb49190614ea5565b1115610f025760405162461bcd60e51b815260206004820152601b60248201527f63616e6e6f742062652067726561746572207468616e203939393900000000006044820152606401610b87565b806101996000828254610f159190614ea5565b909155505050565b6001600160a01b038116600090815260cb6020526040902054610fa85760405162461bcd60e51b815260206004820152602660248201527f5061796d656e7453706c69747465723a206163636f756e7420686173206e6f2060448201527f73686172657300000000000000000000000000000000000000000000000000006064820152608401610b87565b6000610fb360ca5490565b610fbd9047614ea5565b90506000610fea8383610fe5866001600160a01b0316600090815260cc602052604090205490565b612b4d565b90508061105f5760405162461bcd60e51b815260206004820152602b60248201527f5061796d656e7453706c69747465723a206163636f756e74206973206e6f742060448201527f647565207061796d656e740000000000000000000000000000000000000000006064820152608401610b87565b6001600160a01b038316600090815260cc602052604081208054839290611087908490614ea5565b925050819055508060ca60008282546110a09190614ea5565b909155506110b090508382612b95565b604080516001600160a01b0385168152602081018390527fdf20fd1e76bc69d672e4814fafb2c449bba3a5369d8359adf9e05e6fde87b056910160405180910390a1505050565b6111013382612cae565b6111735760405162461bcd60e51b815260206004820152603160248201527f4552433732313a207472616e736665722063616c6c6572206973206e6f74206f60448201527f776e6572206e6f7220617070726f7665640000000000000000000000000000006064820152608401610b87565b610cd9838383612db2565b60008030606461118f856006614ed1565b6111999190614ebd565b915091509250929050565b61019c54610100900460ff166111fc5760405162461bcd60e51b815260206004820152600b60248201527f73616c65207061757365640000000000000000000000000000000000000000006044820152606401610b87565b600261015f5414156112505760405162461bcd60e51b815260206004820152601f60248201527f5265656e7472616e637947756172643a207265656e7472616e742063616c6c006044820152606401610b87565b600261015f5561019c5460ff166112a95760405162461bcd60e51b815260206004820152600a60248201527f75736520606d696e7460000000000000000000000000000000000000000000006044820152606401610b87565b6101945442116112fb5760405162461bcd60e51b815260206004820152601b60248201527f61756374696f6e20686173206e6f7420737461727465642079657400000000006044820152606401610b87565b61019554421061134d5760405162461bcd60e51b815260206004820152600f60248201527f61756374696f6e206578706972656400000000000000000000000000000000006044820152606401610b87565b6101945460009061135e9042614f0e565b9050600061136e61012c83614ebd565b6101965461137c9190614ed1565b61019354610192549192506000916113949190614f0e565b82116113ae57610192546113a9908390614f0e565b6113b3565b610193545b9050803410156114055760405162461bcd60e51b815260206004820152601260248201527f696e73756666696369656e742066756e647300000000000000000000000000006044820152606401610b87565b61140e33612ad3565b5050600161015f5550565b306001600160a01b037f00000000000000000000000000000000000000000000000000000000000000001614156114b85760405162461bcd60e51b815260206004820152602c60248201527f46756e6374696f6e206d7573742062652063616c6c6564207468726f7567682060448201527f64656c656761746563616c6c00000000000000000000000000000000000000006064820152608401610b87565b7f00000000000000000000000000000000000000000000000000000000000000006001600160a01b03166115137f360894a13ba1a3210667c828492db98dca3e2076cc3735a920a3ca505d382bbc546001600160a01b031690565b6001600160a01b03161461158f5760405162461bcd60e51b815260206004820152602c60248201527f46756e6374696f6e206d7573742062652063616c6c6564207468726f7567682060448201527f6163746976652070726f787900000000000000000000000000000000000000006064820152608401610b87565b61159881612f97565b604080516000808252602082019092526115b491839190612ff1565b50565b6097546001600160a01b031633146116115760405162461bcd60e51b815260206004820181905260248201527f4f776e61626c653a2063616c6c6572206973206e6f7420746865206f776e65726044820152606401610b87565b6040805160a080820183528782526020808301889052828401879052606080840187905260809384018690526101928a905561019389905561019488905561019587905561019686905584518a81529182018990529381018790529283018590529082018390527fbd0bbff8ef694cfae32ec10e7671cfe67d5b3452e8adfd13ffb731b2efdbd453910160405180910390a15050505050565b610cd9838383604051806020016040528060008152506124d6565b6001600160a01b038116600090815260cb60205260409020546117505760405162461bcd60e51b815260206004820152602660248201527f5061796d656e7453706c69747465723a206163636f756e7420686173206e6f2060448201527f73686172657300000000000000000000000000000000000000000000000000006064820152608401610b87565b6001600160a01b038216600090815260ce60205260408120546040517f70a082310000000000000000000000000000000000000000000000000000000081523060048201526001600160a01b038516906370a082319060240160206040518083038186803b1580156117c157600080fd5b505afa1580156117d5573d6000803e3d6000fd5b505050506040513d601f19601f820116820180604052508101906117f99190614ca3565b6118039190614ea5565b9050600061183c8383610fe587876001600160a01b03918216600090815260cf6020908152604080832093909416825291909152205490565b9050806118b15760405162461bcd60e51b815260206004820152602b60248201527f5061796d656e7453706c69747465723a206163636f756e74206973206e6f742060448201527f647565207061796d656e740000000000000000000000000000000000000000006064820152608401610b87565b6001600160a01b03808516600090815260cf60209081526040808320938716835292905290812080548392906118e8908490614ea5565b90915550506001600160a01b038416600090815260ce602052604081208054839290611915908490614ea5565b90915550611926905084848361320f565b604080516001600160a01b038581168252602082018490528616917f3be5b7a71e84ed12875d241991c70855ac5817d847039e17a9d895c1ceb0f18a910160405180910390a250505050565b306001600160a01b037f0000000000000000000000000000000000000000000000000000000000000000161415611a115760405162461bcd60e51b815260206004820152602c60248201527f46756e6374696f6e206d7573742062652063616c6c6564207468726f7567682060448201527f64656c656761746563616c6c00000000000000000000000000000000000000006064820152608401610b87565b7f00000000000000000000000000000000000000000000000000000000000000006001600160a01b0316611a6c7f360894a13ba1a3210667c828492db98dca3e2076cc3735a920a3ca505d382bbc546001600160a01b031690565b6001600160a01b031614611ae85760405162461bcd60e51b815260206004820152602c60248201527f46756e6374696f6e206d7573742062652063616c6c6564207468726f7567682060448201527f6163746976652070726f787900000000000000000000000000000000000000006064820152608401610b87565b611af182612f97565b611afd82826001612ff1565b5050565b6000611b0d6101975490565b905090565b604080513360601b7fffffffffffffffffffffffffffffffffffffffff000000000000000000000000166020808301919091528251601481840301815260349092019092528051910120611b999083838080602002602001604051908101604052809392919081815260200183836020028082843760009201919091525061328f92505050565b611be55760405162461bcd60e51b815260206004820152601460248201527f496e76616c6964206d65726b6c652070726f6f660000000000000000000000006044820152606401610b87565b61019c5460ff1615611c395760405162461bcd60e51b815260206004820152601160248201527f75736520606d696e7441756374696f6e600000000000000000000000000000006044820152606401610b87565b61019b543414611c8b5760405162461bcd60e51b815260206004820152601460248201527f696e636f72726563742065746865722073656e740000000000000000000000006044820152606401610b87565b3360009081526101916020526040902061019e5463ffffffff16600a8110611cc357634e487b7160e01b600052603260045260246000fd5b602081049091015460ff601f9092166101000a90041615611d265760405162461bcd60e51b815260206004820152600760248201527f636c61696d6564000000000000000000000000000000000000000000000000006044820152606401610b87565b3360009081526101916020526040902061019e546001919063ffffffff16600a8110611d6257634e487b7160e01b600052603260045260246000fd5b602091828204019190066101000a81548160ff021916908315150217905550611afd33612ad3565b6097546001600160a01b03163314611de45760405162461bcd60e51b815260206004820181905260248201527f4f776e61626c653a2063616c6c6572206973206e6f7420746865206f776e65726044820152606401610b87565b8051611afd90610198906020840190614719565b6097546001600160a01b03163314611e525760405162461bcd60e51b815260206004820181905260248201527f4f776e61626c653a2063616c6c6572206973206e6f7420746865206f776e65726044820152606401610b87565b61019c80547fffffffffffffffffffffffffffffffffffffffffffffffffffffffffffffff0016911515919091179055565b6000818152606760205260408120546001600160a01b031680610a675760405162461bcd60e51b815260206004820152602960248201527f4552433732313a206f776e657220717565727920666f72206e6f6e657869737460448201527f656e7420746f6b656e00000000000000000000000000000000000000000000006064820152608401610b87565b60006001600160a01b038216611f8d5760405162461bcd60e51b815260206004820152602a60248201527f4552433732313a2062616c616e636520717565727920666f7220746865207a6560448201527f726f2061646472657373000000000000000000000000000000000000000000006064820152608401610b87565b506001600160a01b031660009081526068602052604090205490565b6097546001600160a01b031633146120035760405162461bcd60e51b815260206004820181905260248201527f4f776e61626c653a2063616c6c6572206973206e6f7420746865206f776e65726044820152606401610b87565b61200d600061329f565b565b6097546001600160a01b031633146120695760405162461bcd60e51b815260206004820181905260248201527f4f776e61626c653a2063616c6c6572206973206e6f7420746865206f776e65726044820152606401610b87565b61019c8054911515610100027fffffffffffffffffffffffffffffffffffffffffffffffffffffffffffff00ff909216919091179055565b600060cd82815481106120c457634e487b7160e01b600052603260045260246000fd5b6000918252602090912001546001600160a01b031692915050565b6097546001600160a01b031633146121395760405162461bcd60e51b815260206004820181905260248201527f4f776e61626c653a2063616c6c6572206973206e6f7420746865206f776e65726044820152606401610b87565b600261015f54141561218d5760405162461bcd60e51b815260206004820152601f60248201527f5265656e7472616e637947756172643a207265656e7472616e742063616c6c006044820152606401610b87565b600261015f55600061219f6101975490565b610199549091506121b08383614ea5565b11156121fe5760405162461bcd60e51b815260206004820152601860248201527f6578636565647320617661696c61626c6520737570706c7900000000000000006044820152606401610b87565b60005b8281101561223d5761221c846122178385614ea5565b613309565b61222b61019780546001019055565b8061223581614f8c565b915050612201565b5050600161015f555050565b606060668054610a7e90614f51565b6097546001600160a01b031633146122b25760405162461bcd60e51b815260206004820181905260248201527f4f776e61626c653a2063616c6c6572206973206e6f7420746865206f776e65726044820152606401610b87565b600261015f5414156123065760405162461bcd60e51b815260206004820152601f60248201527f5265656e7472616e637947756172643a207265656e7472616e742063616c6c006044820152606401610b87565b600261015f5560006123186101975490565b90506101995482518261232b9190614ea5565b11156123795760405162461bcd60e51b815260206004820152601460248201527f6578636565647320746f6b656e20737570706c790000000000000000000000006044820152606401610b87565b60005b825181101561140e576123bc8382815181106123a857634e487b7160e01b600052603260045260246000fd5b602002602001015182846122179190614ea5565b6123cb61019780546001019055565b806123d581614f8c565b91505061237c565b611afd338383613323565b6097546001600160a01b031633146124425760405162461bcd60e51b815260206004820181905260248201527f4f776e61626c653a2063616c6c6572206973206e6f7420746865206f776e65726044820152606401610b87565b61019e5463ffffffff9081169082161161249e5760405162461bcd60e51b815260206004820152601760248201527f6c657373207468616e2063757272656e7420696e6465780000000000000000006044820152606401610b87565b61019e80547fffffffffffffffffffffffffffffffffffffffffffffffffffffffff000000001663ffffffff92909216919091179055565b6124e03383612cae565b6125525760405162461bcd60e51b815260206004820152603160248201527f4552433732313a207472616e736665722063616c6c6572206973206e6f74206f60448201527f776e6572206e6f7220617070726f7665640000000000000000000000000000006064820152608401610b87565b61255e84848484613410565b50505050565b61019160205281600052604060002081600a811061258157600080fd5b602081049091015460ff601f9092166101000a9004169150829050565b6000818152606760205260409020546060906001600160a01b03166126055760405162461bcd60e51b815260206004820152601f60248201527f55524920717565727920666f72206e6f6e6578697374656e7420746f6b656e006044820152606401610b87565b60408051808201909152600581527f2e6a736f6e000000000000000000000000000000000000000000000000000000602082015261019880546000919061264b90614f51565b80601f016020809104026020016040519081016040528092919081815260200182805461267790614f51565b80156126c45780601f10612699576101008083540402835291602001916126c4565b820191906000526020600020905b8154815290600101906020018083116126a757829003601f168201915b5050505050905060008151116126e95760405180602001604052806000815250612716565b806126f385613499565b8360405160200161270693929190614da0565b6040516020818303038152906040525b949350505050565b6097546001600160a01b031633146127785760405162461bcd60e51b815260206004820181905260248201527f4f776e61626c653a2063616c6c6572206973206e6f7420746865206f776e65726044820152606401610b87565b6001600160a01b0381166127f45760405162461bcd60e51b815260206004820152602660248201527f4f776e61626c653a206e6577206f776e657220697320746865207a65726f206160448201527f64647265737300000000000000000000000000000000000000000000000000006064820152608401610b87565b6115b48161329f565b6097546001600160a01b031633146128575760405162461bcd60e51b815260206004820181905260248201527f4f776e61626c653a2063616c6c6572206973206e6f7420746865206f776e65726044820152606401610b87565b61019b55565b600054610100900460ff166128785760005460ff161561287c565b303b155b6128ee5760405162461bcd60e51b815260206004820152602e60248201527f496e697469616c697a61626c653a20636f6e747261637420697320616c72656160448201527f647920696e697469616c697a65640000000000000000000000000000000000006064820152608401610b87565b600054610100900460ff1615801561295457600080547fffffffffffffffffffffffffffffffffffffffffffffffffffffffffffffff007fffffffffffffffffffffffffffffffffffffffffffffffffffffffffffff00ff909116610100171660011790555b61295c6135e8565b6129d06040518060400160405280601b81526020017f57726973742041666963696f6e61646f20576174636820436c756200000000008152506040518060400160405280600481526020017f5741574300000000000000000000000000000000000000000000000000000000815250613675565b6129da848461370c565b6129e261379b565b61270f61019a5561019d829055612a187f2a55205a00000000000000000000000000000000000000000000000000000000610988565b50801561255e57600080547fffffffffffffffffffffffffffffffffffffffffffffffffffffffffffff00ff16905550505050565b600081815260696020526040902080547fffffffffffffffffffffffff0000000000000000000000000000000000000000166001600160a01b0384169081179091558190612a9a82611e84565b6001600160a01b03167f8c5be1e5ebec7d5bd14f71427d1e84f3dd0314c0f7b2291e5b200ac8c7c3b92560405160405180910390a45050565b6000612adf6101975490565b905061019954811115612b345760405162461bcd60e51b815260206004820152601460248201527f6578636565647320746f6b656e20737570706c790000000000000000000000006044820152606401610b87565b612b3e8282613309565b611afd61019780546001019055565b60c9546001600160a01b038416600090815260cb602052604081205490918391612b779086614ed1565b612b819190614ebd565b612b8b9190614f0e565b90505b9392505050565b80471015612be55760405162461bcd60e51b815260206004820152601d60248201527f416464726573733a20696e73756666696369656e742062616c616e63650000006044820152606401610b87565b6000826001600160a01b03168260405160006040518083038185875af1925050503d8060008114612c32576040519150601f19603f3d011682016040523d82523d6000602084013e612c37565b606091505b5050905080610cd95760405162461bcd60e51b815260206004820152603a60248201527f416464726573733a20756e61626c6520746f2073656e642076616c75652c207260448201527f6563697069656e74206d617920686176652072657665727465640000000000006064820152608401610b87565b6000818152606760205260408120546001600160a01b0316612d385760405162461bcd60e51b815260206004820152602c60248201527f4552433732313a206f70657261746f7220717565727920666f72206e6f6e657860448201527f697374656e7420746f6b656e00000000000000000000000000000000000000006064820152608401610b87565b6000612d4383611e84565b9050806001600160a01b0316846001600160a01b03161480612d7e5750836001600160a01b0316612d7384610b01565b6001600160a01b0316145b8061271657506001600160a01b038082166000908152606a602090815260408083209388168352929052205460ff16612716565b826001600160a01b0316612dc582611e84565b6001600160a01b031614612e415760405162461bcd60e51b815260206004820152602960248201527f4552433732313a207472616e73666572206f6620746f6b656e2074686174206960448201527f73206e6f74206f776e00000000000000000000000000000000000000000000006064820152608401610b87565b6001600160a01b038216612ebc5760405162461bcd60e51b8152602060048201526024808201527f4552433732313a207472616e7366657220746f20746865207a65726f2061646460448201527f72657373000000000000000000000000000000000000000000000000000000006064820152608401610b87565b612ec7600082612a4d565b6001600160a01b0383166000908152606860205260408120805460019290612ef0908490614f0e565b90915550506001600160a01b0382166000908152606860205260408120805460019290612f1e908490614ea5565b909155505060008181526067602052604080822080547fffffffffffffffffffffffff0000000000000000000000000000000000000000166001600160a01b0386811691821790925591518493918716917fddf252ad1be2c89b69c2b068fc378daa952ba7f163c4a11628f55a4df523b3ef91a4505050565b6097546001600160a01b031633146115b45760405162461bcd60e51b815260206004820181905260248201527f4f776e61626c653a2063616c6c6572206973206e6f7420746865206f776e65726044820152606401610b87565b60006130247f360894a13ba1a3210667c828492db98dca3e2076cc3735a920a3ca505d382bbc546001600160a01b031690565b905061302f84613820565b60008351118061303c5750815b1561304d5761304b84846138ed565b505b7f4910fdfa16fed3260ed0e7147f7cc6da11a60208b5b9406d12a635614ffd9143805460ff166132085780547fffffffffffffffffffffffffffffffffffffffffffffffffffffffffffffff001660011781556040516001600160a01b0383166024820152613136908690604401604080517fffffffffffffffffffffffffffffffffffffffffffffffffffffffffffffffe08184030181529190526020810180517bffffffffffffffffffffffffffffffffffffffffffffffffffffffff167f3659cfe6000000000000000000000000000000000000000000000000000000001790526138ed565b5080547fffffffffffffffffffffffffffffffffffffffffffffffffffffffffffffff001681557f360894a13ba1a3210667c828492db98dca3e2076cc3735a920a3ca505d382bbc546001600160a01b038381169116146131ff5760405162461bcd60e51b815260206004820152602f60248201527f45524331393637557067726164653a207570677261646520627265616b73206660448201527f75727468657220757067726164657300000000000000000000000000000000006064820152608401610b87565b613208856139ef565b5050505050565b604080516001600160a01b038416602482015260448082018490528251808303909101815260649091019091526020810180517bffffffffffffffffffffffffffffffffffffffffffffffffffffffff167fa9059cbb00000000000000000000000000000000000000000000000000000000179052610cd9908490613a2f565b6000612b8e8261019d5485613b14565b609780546001600160a01b038381167fffffffffffffffffffffffff0000000000000000000000000000000000000000831681179093556040519116919082907f8be0079c531659141344cd1fd0a4f28419497f9722a3daafe3b4186f6b6457e090600090a35050565b611afd828260405180602001604052806000815250613b2a565b816001600160a01b0316836001600160a01b031614156133855760405162461bcd60e51b815260206004820152601960248201527f4552433732313a20617070726f766520746f2063616c6c6572000000000000006044820152606401610b87565b6001600160a01b038381166000818152606a602090815260408083209487168084529482529182902080547fffffffffffffffffffffffffffffffffffffffffffffffffffffffffffffff001686151590811790915591519182527f17307eab39ab6107e8899845ad3d59bd9653f200f220920489ca2b5937696c31910160405180910390a3505050565b61341b848484612db2565b61342784848484613bb3565b61255e5760405162461bcd60e51b815260206004820152603260248201527f4552433732313a207472616e7366657220746f206e6f6e20455243373231526560448201527f63656976657220696d706c656d656e74657200000000000000000000000000006064820152608401610b87565b6060816134da575060408051808201909152600181527f30000000000000000000000000000000000000000000000000000000000000006020820152610a6a565b8160005b811561350457806134ee81614f8c565b91506134fd9050600a83614ebd565b91506134de565b60008167ffffffffffffffff81111561352d57634e487b7160e01b600052604160045260246000fd5b6040519080825280601f01601f191660200182016040528015613557576020820181803683370190505b5090505b84156127165761356c600183614f0e565b9150613579600a86614fc5565b613584906030614ea5565b60f81b8183815181106135a757634e487b7160e01b600052603260045260246000fd5b60200101907effffffffffffffffffffffffffffffffffffffffffffffffffffffffffffff1916908160001a9053506135e1600a86614ebd565b945061355b565b600054610100900460ff166136655760405162461bcd60e51b815260206004820152602b60248201527f496e697469616c697a61626c653a20636f6e7472616374206973206e6f74206960448201527f6e697469616c697a696e670000000000000000000000000000000000000000006064820152608401610b87565b61366d613d7e565b61200d613dfb565b600054610100900460ff166136f25760405162461bcd60e51b815260206004820152602b60248201527f496e697469616c697a61626c653a20636f6e7472616374206973206e6f74206960448201527f6e697469616c697a696e670000000000000000000000000000000000000000006064820152608401610b87565b6136fa613d7e565b613702613d7e565b611afd8282613e81565b600054610100900460ff166137895760405162461bcd60e51b815260206004820152602b60248201527f496e697469616c697a61626c653a20636f6e7472616374206973206e6f74206960448201527f6e697469616c697a696e670000000000000000000000000000000000000000006064820152608401610b87565b613791613d7e565b611afd8282613f25565b600054610100900460ff166138185760405162461bcd60e51b815260206004820152602b60248201527f496e697469616c697a61626c653a20636f6e7472616374206973206e6f74206960448201527f6e697469616c697a696e670000000000000000000000000000000000000000006064820152608401610b87565b61200d6140e0565b803b6138945760405162461bcd60e51b815260206004820152602d60248201527f455243313936373a206e657720696d706c656d656e746174696f6e206973206e60448201527f6f74206120636f6e7472616374000000000000000000000000000000000000006064820152608401610b87565b7f360894a13ba1a3210667c828492db98dca3e2076cc3735a920a3ca505d382bbc80547fffffffffffffffffffffffff0000000000000000000000000000000000000000166001600160a01b0392909216919091179055565b6060823b6139635760405162461bcd60e51b815260206004820152602660248201527f416464726573733a2064656c65676174652063616c6c20746f206e6f6e2d636f60448201527f6e747261637400000000000000000000000000000000000000000000000000006064820152608401610b87565b600080846001600160a01b03168460405161397e9190614d84565b600060405180830381855af49150503d80600081146139b9576040519150601f19603f3d011682016040523d82523d6000602084013e6139be565b606091505b50915091506139e6828260405180606001604052806027815260200161506d6027913961415d565b95945050505050565b6139f881613820565b6040516001600160a01b038216907fbc7cd75a20ee27fd9adebab32041f755214dbc6bffa90cc0225b39da2e5c2d3b90600090a250565b6000613a84826040518060400160405280602081526020017f5361666545524332303a206c6f772d6c6576656c2063616c6c206661696c6564815250856001600160a01b03166141969092919063ffffffff16565b805190915015610cd95780806020019051810190613aa29190614bdf565b610cd95760405162461bcd60e51b815260206004820152602a60248201527f5361666545524332303a204552433230206f7065726174696f6e20646964206e60448201527f6f742073756363656564000000000000000000000000000000000000000000006064820152608401610b87565b600082613b2185846141a5565b14949350505050565b613b34838361425f565b613b416000848484613bb3565b610cd95760405162461bcd60e51b815260206004820152603260248201527f4552433732313a207472616e7366657220746f206e6f6e20455243373231526560448201527f63656976657220696d706c656d656e74657200000000000000000000000000006064820152608401610b87565b60006001600160a01b0384163b15613d73576040517f150b7a020000000000000000000000000000000000000000000000000000000081526001600160a01b0385169063150b7a0290613c10903390899088908890600401614de3565b602060405180830381600087803b158015613c2a57600080fd5b505af1925050508015613c78575060408051601f3d9081017fffffffffffffffffffffffffffffffffffffffffffffffffffffffffffffffe0168201909252613c7591810190614c17565b60015b613d28573d808015613ca6576040519150601f19603f3d011682016040523d82523d6000602084013e613cab565b606091505b508051613d205760405162461bcd60e51b815260206004820152603260248201527f4552433732313a207472616e7366657220746f206e6f6e20455243373231526560448201527f63656976657220696d706c656d656e74657200000000000000000000000000006064820152608401610b87565b805181602001fd5b7fffffffff00000000000000000000000000000000000000000000000000000000167f150b7a0200000000000000000000000000000000000000000000000000000000149050612716565b506001949350505050565b600054610100900460ff1661200d5760405162461bcd60e51b815260206004820152602b60248201527f496e697469616c697a61626c653a20636f6e7472616374206973206e6f74206960448201527f6e697469616c697a696e670000000000000000000000000000000000000000006064820152608401610b87565b600054610100900460ff16613e785760405162461bcd60e51b815260206004820152602b60248201527f496e697469616c697a61626c653a20636f6e7472616374206973206e6f74206960448201527f6e697469616c697a696e670000000000000000000000000000000000000000006064820152608401610b87565b61200d3361329f565b600054610100900460ff16613efe5760405162461bcd60e51b815260206004820152602b60248201527f496e697469616c697a61626c653a20636f6e7472616374206973206e6f74206960448201527f6e697469616c697a696e670000000000000000000000000000000000000000006064820152608401610b87565b8151613f11906065906020850190614719565b508051610cd9906066906020840190614719565b600054610100900460ff16613fa25760405162461bcd60e51b815260206004820152602b60248201527f496e697469616c697a61626c653a20636f6e7472616374206973206e6f74206960448201527f6e697469616c697a696e670000000000000000000000000000000000000000006064820152608401610b87565b80518251146140195760405162461bcd60e51b815260206004820152603260248201527f5061796d656e7453706c69747465723a2070617965657320616e64207368617260448201527f6573206c656e677468206d69736d6174636800000000000000000000000000006064820152608401610b87565b600082511161406a5760405162461bcd60e51b815260206004820152601a60248201527f5061796d656e7453706c69747465723a206e6f207061796565730000000000006044820152606401610b87565b60005b8251811015610cd9576140ce83828151811061409957634e487b7160e01b600052603260045260246000fd5b60200260200101518383815181106140c157634e487b7160e01b600052603260045260246000fd5b60200260200101516143b9565b806140d881614f8c565b91505061406d565b600054610100900460ff16610e3f5760405162461bcd60e51b815260206004820152602b60248201527f496e697469616c697a61626c653a20636f6e7472616374206973206e6f74206960448201527f6e697469616c697a696e670000000000000000000000000000000000000000006064820152608401610b87565b6060831561416c575081612b8e565b82511561417c5782518084602001fd5b8160405162461bcd60e51b8152600401610b879190614e1f565b6060612b8b84846000856145da565b600081815b84518110156142575760008582815181106141d557634e487b7160e01b600052603260045260246000fd5b60200260200101519050808311614217576040805160208101859052908101829052606001604051602081830303815290604052805190602001209250614244565b60408051602081018390529081018490526060016040516020818303038152906040528051906020012092505b508061424f81614f8c565b9150506141aa565b509392505050565b6001600160a01b0382166142b55760405162461bcd60e51b815260206004820181905260248201527f4552433732313a206d696e7420746f20746865207a65726f20616464726573736044820152606401610b87565b6000818152606760205260409020546001600160a01b03161561431a5760405162461bcd60e51b815260206004820152601c60248201527f4552433732313a20746f6b656e20616c7265616479206d696e746564000000006044820152606401610b87565b6001600160a01b0382166000908152606860205260408120805460019290614343908490614ea5565b909155505060008181526067602052604080822080547fffffffffffffffffffffffff0000000000000000000000000000000000000000166001600160a01b03861690811790915590518392907fddf252ad1be2c89b69c2b068fc378daa952ba7f163c4a11628f55a4df523b3ef908290a45050565b6001600160a01b0382166144355760405162461bcd60e51b815260206004820152602c60248201527f5061796d656e7453706c69747465723a206163636f756e74206973207468652060448201527f7a65726f206164647265737300000000000000000000000000000000000000006064820152608401610b87565b600081116144855760405162461bcd60e51b815260206004820152601d60248201527f5061796d656e7453706c69747465723a207368617265732061726520300000006044820152606401610b87565b6001600160a01b038216600090815260cb6020526040902054156145115760405162461bcd60e51b815260206004820152602b60248201527f5061796d656e7453706c69747465723a206163636f756e7420616c726561647960448201527f20686173207368617265730000000000000000000000000000000000000000006064820152608401610b87565b60cd8054600181019091557f83978b4c69c48dd978ab43fe30f077615294f938fb7f936d9eb340e51ea7db2e0180547fffffffffffffffffffffffff0000000000000000000000000000000000000000166001600160a01b038416908117909155600090815260cb6020526040902081905560c954614591908290614ea5565b60c955604080516001600160a01b0384168152602081018390527f40c340f65e17194d14ddddb073d3c9f888e3cb52b5aae0c6c7706b4fbc905fac910160405180910390a15050565b6060824710156146525760405162461bcd60e51b815260206004820152602660248201527f416464726573733a20696e73756666696369656e742062616c616e636520666f60448201527f722063616c6c00000000000000000000000000000000000000000000000000006064820152608401610b87565b843b6146a05760405162461bcd60e51b815260206004820152601d60248201527f416464726573733a2063616c6c20746f206e6f6e2d636f6e74726163740000006044820152606401610b87565b600080866001600160a01b031685876040516146bc9190614d84565b60006040518083038185875af1925050503d80600081146146f9576040519150601f19603f3d011682016040523d82523d6000602084013e6146fe565b606091505b509150915061470e82828661415d565b979650505050505050565b82805461472590614f51565b90600052602060002090601f016020900481019282614747576000855561478d565b82601f1061476057805160ff191683800117855561478d565b8280016001018555821561478d579182015b8281111561478d578251825591602001919060010190614772565b5061479992915061479d565b5090565b5b80821115614799576000815560010161479e565b600067ffffffffffffffff8311156147cc576147cc615005565b6147fd60207fffffffffffffffffffffffffffffffffffffffffffffffffffffffffffffffe0601f86011601614e32565b905082815283838301111561481157600080fd5b828260208301376000602084830101529392505050565b600082601f830112614838578081fd5b8135602061484d61484883614e81565b614e32565b8281528181019085830183850287018401881015614869578586fd5b855b8581101561489057813561487e8161501b565b8452928401929084019060010161486b565b5090979650505050505050565b600082601f8301126148ad578081fd5b612b8e838335602085016147b2565b6000602082840312156148cd578081fd5b8135612b8e8161501b565b600080604083850312156148ea578081fd5b82356148f58161501b565b915060208301356149058161501b565b809150509250929050565b600080600060608486031215614924578081fd5b833561492f8161501b565b9250602084013561493f8161501b565b929592945050506040919091013590565b60008060008060808587031215614965578081fd5b84356149708161501b565b935060208501356149808161501b565b925060408501359150606085013567ffffffffffffffff8111156149a2578182fd5b6149ae8782880161489d565b91505092959194509250565b600080604083850312156149cc578182fd5b82356149d78161501b565b9150602083013561490581615030565b600080604083850312156149f9578182fd5b8235614a048161501b565b9150602083013567ffffffffffffffff811115614a1f578182fd5b614a2b8582860161489d565b9150509250929050565b60008060408385031215614a47578182fd5b8235614a528161501b565b946020939093013593505050565b600060208284031215614a71578081fd5b813567ffffffffffffffff811115614a87578182fd5b61271684828501614828565b600080600060608486031215614aa7578081fd5b833567ffffffffffffffff80821115614abe578283fd5b614aca87838801614828565b9450602091508186013581811115614ae0578384fd5b86019050601f81018713614af2578283fd5b8035614b0061484882614e81565b81815283810190838501858402850186018b1015614b1c578687fd5b8694505b83851015614b3e578035835260019490940193918501918501614b20565b5096999698505050506040949094013593505050565b60008060208385031215614b66578182fd5b823567ffffffffffffffff80821115614b7d578384fd5b818501915085601f830112614b90578384fd5b813581811115614b9e578485fd5b8660208083028501011115614bb1578485fd5b60209290920196919550909350505050565b600060208284031215614bd4578081fd5b8135612b8e81615030565b600060208284031215614bf0578081fd5b8151612b8e81615030565b600060208284031215614c0c578081fd5b8135612b8e8161503e565b600060208284031215614c28578081fd5b8151612b8e8161503e565b600080604083850312156148ea578182fd5b600060208284031215614c56578081fd5b813567ffffffffffffffff811115614c6c578182fd5b8201601f81018413614c7c578182fd5b612716848235602084016147b2565b600060208284031215614c9c578081fd5b5035919050565b600060208284031215614cb4578081fd5b5051919050565b60008060408385031215614ccd578182fd5b50508035926020909101359150565b600080600080600060a08688031215614cf3578283fd5b505083359560208501359550604085013594606081013594506080013592509050565b600060208284031215614d27578081fd5b813563ffffffff81168114612b8e578182fd5b60008151808452614d52816020860160208601614f25565b601f017fffffffffffffffffffffffffffffffffffffffffffffffffffffffffffffffe0169290920160200192915050565b60008251614d96818460208701614f25565b9190910192915050565b60008451614db2818460208901614f25565b845190830190614dc6818360208901614f25565b8451910190614dd9818360208801614f25565b0195945050505050565b60006001600160a01b03808716835280861660208401525083604083015260806060830152614e156080830184614d3a565b9695505050505050565b600060208252612b8e6020830184614d3a565b604051601f82017fffffffffffffffffffffffffffffffffffffffffffffffffffffffffffffffe016810167ffffffffffffffff81118282101715614e7957614e79615005565b604052919050565b600067ffffffffffffffff821115614e9b57614e9b615005565b5060209081020190565b60008219821115614eb857614eb8614fd9565b500190565b600082614ecc57614ecc614fef565b500490565b6000817fffffffffffffffffffffffffffffffffffffffffffffffffffffffffffffffff0483118215151615614f0957614f09614fd9565b500290565b600082821015614f2057614f20614fd9565b500390565b60005b83811015614f40578181015183820152602001614f28565b8381111561255e5750506000910152565b600281046001821680614f6557607f821691505b60208210811415614f8657634e487b7160e01b600052602260045260246000fd5b50919050565b60007fffffffffffffffffffffffffffffffffffffffffffffffffffffffffffffffff821415614fbe57614fbe614fd9565b5060010190565b600082614fd457614fd4614fef565b500690565b634e487b7160e01b600052601160045260246000fd5b634e487b7160e01b600052601260045260246000fd5b634e487b7160e01b600052604160045260246000fd5b6001600160a01b03811681146115b457600080fd5b80151581146115b457600080fd5b7fffffffff00000000000000000000000000000000000000000000000000000000811681146115b457600080fdfe416464726573733a206c6f772d6c6576656c2064656c65676174652063616c6c206661696c6564a2646970667358221220197de4e3067ec635800905cb24e25650549f33d267e7a6bb5bf6883f6b35585164736f6c63430008020033",
  "linkReferences": {},
  "deployedLinkReferences": {}
}